:020000040800F2
:1048000000400020758F0008658D0008678D000846
:104810000000000000000000000000000000000098
:10482000000000000000000000000000698D00088A
:1048300000000000000000006B8D00086D8D000876
:10484000C58F0008C58F0008C58F0008C58F0008F8
:10485000C58F0008C58F0008C58F00086F8D000840
:10486000C58F0008C58F0008C58F0008C58F0008D8
:10487000C58F0008C58F0008C58F0008C58F0008C8
:10488000C58F0008C58F0008C58F0008798D000806
:10489000898D0008C58F0008C58F0008C58F0008E6
:1048A000C58F0008C58F0008C58F0008C58F000898
:1048B000C58F0008C58F0008998D0008A98D0008D4
:1048C00010B5064C2378002B07D1054B002B02D0E6
:1048D000044800E000BF0123237010BDD80300206E
:1048E000000000009CD10008044B10B5002B03D041
:1048F0000349044800E000BF10BDC04600000000AE
:10490000DC0300209CD100080023C25C0133002A94
:10491000FBD1581E7047000002B471464908490097
:10492000095C49008E4402BC7047C04603B471461E
:10493000490840004900095A49008E4403BC7047A9
:10494000002243088B4274D303098B425FD3030ACE
:104950008B4244D3030B8B4228D3030C8B420DD3E1
:10496000FF22090212BA030C8B4202D3121209026F
:1049700065D0030B8B4219D300E0090AC30B8B42AD
:1049800001D3CB03C01A5241830B8B4201D38B035B
:10499000C01A5241430B8B4201D34B03C01A524100
:1049A000030B8B4201D30B03C01A5241C30A8B4243
:1049B00001D3CB02C01A5241830A8B4201D38B022E
:1049C000C01A5241430A8B4201D34B02C01A5241D2
:1049D000030A8B4201D30B02C01A5241CDD2C30944
:1049E0008B4201D3CB01C01A524183098B4201D3C0
:1049F0008B01C01A524143098B4201D34B01C01AAB
:104A0000524103098B4201D30B01C01A5241C30822
:104A10008B4201D3CB00C01A524183088B4201D391
:104A20008B00C01A524143088B4201D34B00C01A7D
:104A30005241411A00D20146524110467047FFE7E9
:104A400001B5002000F0F0F802BDC0460029F7D003
:104A500076E7704703460B437FD4002243088B421E
:104A600074D303098B425FD3030A8B4244D3030BF5
:104A70008B4228D3030C8B420DD3FF22090212BABA
:104A8000030C8B4202D31212090265D0030B8B4236
:104A900019D300E0090AC30B8B4201D3CB03C01A20
:104AA0005241830B8B4201D38B03C01A5241430BFB
:104AB0008B4201D34B03C01A5241030B8B4201D3EB
:104AC0000B03C01A5241C30A8B4201D3CB02C01A56
:104AD0005241830A8B4201D38B02C01A5241430ACE
:104AE0008B4201D34B02C01A5241030A8B4201D3BD
:104AF0000B02C01A5241CDD2C3098B4201D3CB0164
:104B0000C01A524183098B4201D38B01C01A524112
:104B100043098B4201D34B01C01A524103098B4216
:104B200001D30B01C01A5241C3088B4201D3CB0001
:104B3000C01A524183088B4201D38B00C01A5241E4
:104B400043088B4201D34B00C01A5241411A00D294
:104B500001465241104670475DE0CA0F00D04942FD
:104B6000031000D34042534000229C4603098B426D
:104B70002DD3030A8B4212D3FC22890112BA030AF5
:104B80008B420CD3890192118B4208D38901921177
:104B90008B4204D389013AD0921100E08909C309FC
:104BA0008B4201D3CB01C01A524183098B4201D3FE
:104BB0008B01C01A524143098B4201D34B01C01AE9
:104BC000524103098B4201D30B01C01A5241C30861
:104BD0008B4201D3CB00C01A524183088B4201D3D0
:104BE0008B00C01A5241D9D243088B4201D34B00EB
:104BF000C01A5241411A00D20146634652415B102D
:104C0000104601D34042002B00D54942704763460D
:104C10005B1000D3404201B5002000F005F802BD52
:104C20000029F8D016E770477047C046D0400B0007
:104C3000D1409C46203AD3401843524263469340A9
:104C400018437047F0B5DE46454657464E46E0B538
:104C500087B0009201930B031B0B9B46CA0F4B00BE
:104C6000040080465B0D029200D16AE1D44A93426F
:104C700000D18CE15946420FC9000A438021090442
:104C80001143C2009046CF4A894692469A44002377
:104C900000240393009E019F3B031B0B9B467B005C
:104CA00030005B0DFD0F002B00D128E1C44A934278
:104CB00000D177E15946720FC9000A4380210904E7
:104CC00011438B46BF49F2008C4651466344CB1AD0
:104CD0009A460023029E6E400F2C27D8BA49A400A2
:104CE00009598F46CB464246029E039B022B16D0A3
:104CF000032B00D1A6E2012B00D0DFE0002200232D
:104D0000002490461B052343F60733434046190011
:104D100007B0F0BCBB46B246A946A046F0BD002293
:104D200000249046A64BEDE72E00DFE7CB4500D2EE
:104D3000D4E100D1CFE101235B429C464446484682
:104D40000027E2445B46150E1B021D43190C2B0481
:104D5000120200951D0C914602910395FFF776FE15
:104D600002006A430B04210C804619438A4209D988
:104D7000009D0123AC465B4261449C46E0448D4269
:104D800000D8FBE1881A0299FFF760FE039A240419
:104D900042430904240C03000C43A24206D90099A3
:104DA000013B8C466444A14200D8E1E1A01A42468E
:104DB00012041A4393464B4659461B0C1D0004939C
:104DC0000B0449460904090C0C001B0C5C43120C33
:104DD0006B43884651436A43250CAC465B186344D9
:104DE000994203D9802149028C466244190C24045B
:104DF0001B04240C8A181C19904202D316D1A74216
:104E000014D25B46009D013B4F4405934F459B41A7
:104E1000AC465B426344C018854200D3A1E18242A4
:104E200000D9F6E100D1F1E1059B9B463C1BA7426E
:104E3000BF41009D801A7F42C01B854200D1D0E156
:104E40000299FFF703FE039A0B044243210C07006B
:104E500019438A4200D978E1881A0299FFF7F6FDD2
:104E6000039A240442430904240C03000C43A24285
:104E700000D95DE14146A41A3A041A43049D130483
:104E80001B0C594347466B439C46100C47430B0C85
:104E9000BC44634468439F4203D980256D02AC46FD
:104EA00060441F0C09041B04090C3F185B18BC422A
:104EB00000D202E100D1FDE001231A43434B5344E9
:104EC000002B00DCAEE0510700D098E15946C90143
:104ED00006D559463E4B194080238B46DB00534490
:104EE0003C498B4200DD1AE75946D2084907114375
:104EF0005A465B0554028846240B5B0D02E75A466E
:104F0000009B1A4300D17EE05B46002B00D100E1FC
:104F1000584600F0E3FC020003000B3A1D27009EF8
:104F2000BA1A19005846D640083988403200024360
:104F30009346009A8A40284953448A469A4400235B
:104F4000C8E65B460343994656D05B46002B00D12A
:104F5000CDE0584600F0C2FC0B235B429C460200A9
:104F6000844466461D239B1B260011005846DE40E4
:104F70000839884033000343994623008B40984604
:104F8000164B00249B1A9A460023039382E65A4646
:104F9000024391462AD100229A46022390460824D1
:104FA000039377E65A46009B1A430D4B9C46E24416
:104FB000002A17D102231C4300239B46023389E6B3
:104FC000FF07000001FCFFFFB4D10008FF03000051
:104FD000FFFFFFFEFE070000F30300000DFCFFFFD4
:104FE00001F8FFFF032332001C4373E69A460323B4
:104FF000D9460C2403934DE6002398469A46013384
:105000000424039346E601231C4300239B460133FB
:1050100060E60023802498460026924B240371E624
:10502000012252420121C91A382900DD66E61F29F2
:1050300000DCABE01F204042C31A5846D8400300B2
:10504000202904D058468849514488400243511EC3
:105050008A411A43072319000024114013420CD03F
:105060000F231340042B00D1F9E0111D91429B4105
:105070000A005B4259075B021C0BD2080A439046A8
:1050800000233FE680244B462403234209D05B469D
:10509000234206D11C4324032E009046714B240B5F
:1050A00030E680244B4624031C432403029E6D4BB0
:1050B000240B27E6002B00D100E70098511E844600
:1050C0006444844200D284E0BC4200D2AEE000D10D
:1050D000C1E00A00F0E6424500D92CE64B46DC0769
:1050E000580843465B081C434346DF072AE600F0A6
:1050F000F5FB15239C4684440200634620321C2B9A
:1051000000DC2EE7230008388340994600239846A8
:1051100036E700F0E3FB02000300153220331C2ABF
:1051200000DCFBE600990838814000228B4602E74C
:105130000099013B8C466444A14200D99AE6A24200
:1051400000D897E6831E644494E6AC466144013F70
:105150008D4200D980E68A4200D87DE6871E6144F0
:105160007AE6854200D05FE6B94500D95CE656E6AE
:10517000A24200D81AE6831E644417E68A4200D889
:1051800000E6AC46831E98466144FBE537481400B0
:10519000504482405B4617008340CC407A1E9741C2
:1051A00023433B431A005B46CB40510709D00F21F4
:1051B0001140042905D0111D9142924152429B1881
:1051C0000A00190200D455E700220123002490466A
:1051D00098E50A00BC4200D06EE64B4500D06BE675
:1051E0006CE6234B234A5344924500DA18E7012129
:1051F00049420A1D8A42894149428B4466E60F2191
:105200001140042900D161E61100F2E7BC4200D848
:105210000AE602235B429C4600994F444F459B415E
:10522000E3448C465B426344C018FFE54946009D59
:10523000480048458941AC46494261448146023AAA
:105240006418C7E780245B4624031C43240390466C
:10525000044B240B56E59945E8D30A00BDE700232B
:1052600008E7C046FF0700003E0400001E040000DF
:10527000FF03000002FCFFFFF0B55746DE464E4636
:105280004546E0B51F000B031B0B16009A46CA0FDC
:105290004B000400934687B05B0D00D1D5E0BB4ABC
:1052A000934200D1F8E05146420FC9000A438021E1
:1052B00009041143C2009146B54A8A469D1800234D
:1052C000984602933C037B00FA0F3000240B5B0DE1
:1052D000009200D196E0AD4A934231D0720FE400C3
:1052E0002243802424041443A94AF00094466344D2
:1052F0005B195A1C0192424600260A2A42DC5A4691
:1053000000994A4093464246022A32DC013A012A79
:1053100000D949E1022E00D1CAE0012E3DD100237F
:105320000024002210005A461B052343D2071343D2
:10533000190007B0F0BCBB46B246A946A046F0BD76
:10534000924B2643EB18002E00D1BBE003224146CE
:1053500011435A46884600994A40802109018C46EB
:1053600029006144019141460A2900DD33E2934658
:105370000326424601279740A6213A00C9000A4069
:105380000F4231D0029E022E00D135E2032E00D111
:10539000D2E154464846012EC1D0019A7D4B944635
:1053A0006344002B00DCC0E0420709D00F2202401A
:1053B000042A05D0021D8242804140422418100078
:1053C000E20106D5744B019A1C4080239446DB0011
:1053D0006344724A93426BDC6207C00864025B0557
:1053E0000243240B5B0D9DE7902189000F4263D19E
:1053F00088223A4200D1D7E0009BA2469B468146D4
:105400000296BFE72300334300D17FE0002C00D198
:10541000ADE1200000F062FA020003000B3A1D200B
:105420001900821A30000839D0408C400443300003
:1054300088405B4AEB1A944663445A1C01924246E8
:1054400000260A2A00DC5AE79CE7534603439946A4
:1054500054D05346002B00D177E1504600F03EFA7D
:105460000B235B429C4602008444110050460839DD
:1054700088401D23804660461B1A2000D840030048
:10548000404603439A4623008B4099460023444DEF
:105490009846AD1A029315E752460243914626D12B
:1054A00000221D000223924608329046029309E72B
:1054B00000240022354B35E7002380249B4624033B
:1054C000324B2FE7022241461143802212019446BB
:1054D0002A006244884601920A2900DD52E75A46B2
:1054E0000020009904004A40934602260BE70C2254
:1054F0001D000323814690460293E3E600239A466B
:1055000004339846033B00250293DBE64246013311
:105510001A432B0090465A1C019242460024002058
:1055200001260A2A00DCEAE62CE70122D21A382AF0
:1055300000DDF4E61F2A00DC2AE11F214942CB1AD4
:105540002100D9400B00202A05D0164A019D94461F
:105550006544AC402043421E904118430723190084
:105560000024014003420CD00F230340042B00D140
:1055700040E1031D8342A4411800644261076402B4
:10558000240BC20800230A43CCE6C046FF070000F4
:1055900001FCFFFFFF030000FFFFFFFEFE0700000E
:1055A0000DFCFFFF3E04000049464A460904090C71
:1055B0000D00160C020C0004000C4543AC4605001F
:1055C0007543A84615000F007543009202952A0006
:1055D000009D6F4365462D0CA94647444F44B8458E
:1055E00005D91500802252029046454402953D0C93
:1055F000039565462D043F042D0CAC463D006544E3
:105600000495250C2404240CAC4625007543A846BB
:1056100065460F006943414489466743390C494454
:105620006E43884503D980225202904646440D0CB1
:10563000A846350045440595039D3F04A8463F0C08
:105640000904C91988444546039555462E04360C6D
:105650002F0C35004543784381463800A8462D0C71
:10566000AA46009A504372434A445244914503D992
:1056700080256D02A9464844150CA94645462D04CF
:105680002D0CA84665467D43120448449044A94623
:105690003200654662436E437C43170C3619BF19CE
:1056A000BC4203D980246402A446E144029C039EC8
:1056B000A446059D66448E428941AC4612043C04D2
:1056C000120CA2186244494254184644A446464566
:1056D000A44182466442A046AA4292418C45894137
:1056E000E244D044494252420A43A045A441824583
:1056F0008941644249420C4341463F0CD219121978
:10570000CC0D049970020843411E884141464A4429
:10571000F60D52023043490214430843D20135D5F5
:105720000122430802401343E0071843640834E6AB
:10573000009BA2469B4681468024534624031C437B
:1057400024034A462E4B240BECE500F0C7F8152342
:105750009C4684440200634620321C2B00DC84E615
:10576000002399462300083883409A468EE600F0CD
:10577000B5F802000300153220331C2A00DC4EE687
:1057800002003400083A0020944052E6019304E6F7
:105790001C4B21009C460300019DD3406544A94059
:1057A00019430300AB40581E834119430800D440FD
:1057B0004B0709D00F230B40042B05D00B1D8B4248
:1057C0008041404224181800230200D4D6E6012369
:1057D00000240022A6E50F29AAD1802352461B03EC
:1057E0001A42A9D01C42A7D11C43009B02009B4631
:1057F000034B97E50024C1E60024014B220091E50C
:10580000FF0700001E0400000B00020070B5164DDB
:105810000C0382B04900002000920193240B490D33
:10582000DE0FA94204DD1148814203DD104BF01860
:1058300002B070BD8020400320430E4C641A1F2C20
:1058400008DD0D4B5B1AD84003005842002EEFD103
:105850001800EDE7094B009A9C46030061448B4019
:10586000E2401343F1E7C046FE0300001D040000C0
:10587000FFFFFF7F3304000013040000EDFBFFFF78
:1058800070B5002816D0C317C5185D40C40F280096
:1058900000F024F8104B1B1A5B055B0D0A2814DC82
:1058A00002002E00153296400B22121AD5402D030D
:1058B0002D0B03E000240023002500261B052B43AD
:1058C000E40723433000190070BD0B3885402D03D9
:1058D00000262D0BF2E7C0461E0400001C21012308
:1058E0001B04984201D3000C10391B0A984201D3C3
:1058F000000A08391B09984201D30009043902A2A1
:10590000105C40187047C046040302020101010107
:1059100000000000000000007FB5244E00900191BF
:1059200005B20121041430000292039302F0FCFD41
:10593000281A0A2819DD1E4B1E4A196C126891425A
:1059400002D91A6C013A1A640321300002F0ECFD0E
:10595000201A0A2819DD164B174AD96B1268914292
:1059600002D2DA6B0A32DA637FBD0121300002F025
:10597000DBFD2D1A0A35E7DA0D4B104A196C126857
:105980009142E1D21A6C0132DDE70321300002F0CE
:10599000CBFD241A0A34E7DA054B094AD96B1268A1
:1059A0009142E1D9DA6B013ADDE7C04614050020E7
:1059B00000040040740400200402002000020020C3
:1059C000700400200122234B70B51B7C224C050083
:1059D0001021200013421AD002F0A6FD01280AD19E
:1059E0002021200002F0A0FD0422024320212000FB
:1059F00092B202F063FD2021200002F095FD042305
:105A0000984382B22021200002F058FD70BD02F0C0
:105A100055FD2021200002F087FD0423984382B227
:105A20002021200002F04AFDAA891821200002F05E
:105A300067FD1121200002F077FD0C23EA5E33237D
:105A40005A435212193A504343435B125B426B81F3
:105A5000DCE7C0460C04002014050020064A074974
:105A6000136C64330B60116C0023642901D9136C2F
:105A7000643B034A136070470004004000020020AA
:105A80007404002010B58010642800D26420034BF9
:105A900064381864FFF7E2FF10BDC0460004004000
:105AA00010B50C4C0021200002F03EFD9623DB00D7
:105AB00098420DD30021200002F036FD064B98429B
:105AC00006D80021200002F02FFD00B2FFF7DAFF18
:105AD00010BDC04614050020DC050000064A074939
:105AE000D36BC8330B60D16B0023C82901D9D36BAA
:105AF000C83B034A136070470004004004020020C2
:105B000070040020A02362229B0043435B120133F8
:105B100053430649002210B58B4202D8044ADB09E0
:105B2000D21A044BDA63FFF7D9FF10BDFF2A020037
:105B3000560400000004004010B5084C022120006B
:105B400002F0F2FC96239B00984206D80221200026
:105B500002F0EAFC00B2FFF7D5FF10BD14050020EB
:105B600010B5084C0321200002F0DEFC96239B00B8
:105B7000984206D80321200002F0D6FC00B2FFF7BD
:105B8000C1FF10BD14050020014B18787047C046B6
:105B900008020020014B18707047C0460802002020
:105BA00010B5084B1B78012B05D0042B03D0012224
:105BB000002B01D010BD002290200421C00504F06C
:105BC000ADFBF7E70802002084B0039303B2019114
:105BD0000120002B0ED06B469B89074A9033FF3380
:105BE0009BB2934206D86B460620185E9638434215
:105BF0005841C0B204B070476A07000070B5E12692
:105C00000022835E0500264CF600B34219DB00211A
:105C1000244A200002F052FCAF220421120120008D
:105C200002F04CFC0022AB5EB3421CDB20212000C2
:105C300002F07AFCDF2220210240200002F03EFC2C
:105C400011E0C826F600B34217DC0021164A2000F6
:105C500002F034FC154A0421200002F02FFC00223F
:105C6000AB5EB342E2DD00220D21200002F026FCF3
:105C700001F062FF02F04AF870BD96220021D200C6
:105C8000200002F01BFC094A0421200002F016FC4F
:105C90002021200002F048FC2021084382B2CCE7FA
:105CA00014050020C80A000064050000AA050000D1
:105CB000F8B5464C05001C21200002F035FC0128F7
:105CC0000BD100220A21200002F0F8FB0023404AF9
:105CD0001360404A1360404A13600A21200002F01A
:105CE00023FC012822D0022845D0002866D1384A5A
:105CF00030211368200001331360364A13680133E2
:105D00001360202202F0DAFB02223121200002F08F
:105D1000D5FB032120000223ED5E02F005FCF323F6
:105D2000434301221B129D4220DDF8BD284A2A4D23
:105D300013683021013313602B68202201332000C7
:105D40002B6002F0BBFB02223121200002F0B6FBE7
:105D5000204B2A681B685B089342E6D80521200087
:105D600002F0E2FB2B689842DFD802220A212000D1
:105D700002F0A4FBD9E7164D164F174E2A683B6870
:105D8000316801325B182A605B009A42CDD306214C
:105D9000200002F0C9FB2B689842C6D80B212000D6
:105DA00002F0C2FB0128C0D100220A21200002F02B
:105DB00085FB00232B603B603360B6E75022302127
:105DC000200002F07BFB02223121D0E714050020E5
:105DD00078040020800400207C04002070B501229B
:105DE0000D00040040211E4804F098FA0122102101
:105DF0001B4804F093FA01222021194804F08EFA7E
:105E0000022D08D0402C1DD006D8202C25D0302CB7
:105E100015D0102C0BD070BD602C19D0702C09D06F
:105E2000502CF8D1002240210D4804F077FA0022CE
:105E3000102109E000224021094804F06FFA0022F5
:105E4000102107E000222100054804F067FAE2E78C
:105E500000224021024804F061FA00222021F3E7E9
:105E6000000400480321034A13688B430343136073
:105E70007047C04600000140044BDA68002902D098
:105E80000243DA6070478243FBE7C04600100240DD
:105E900000234360037070470223002901DD416045
:105EA000013B0370704743680278002B04D1012A3C
:105EB00001D1023303707047012AFCD1013B4360DA
:105EC000F9E70381002310B502AC2478C160C474E3
:105ED000028283744360037010BD10B5C37C04005C
:105EE000002B0BD1C36800229A5E1021435E9A42B8
:105EF0000DDB0023A374636023701AE0012BF8D13B
:105F0000C36800229A5E1021435E9A42F1DD237835
:105F1000002B03D120002189FFF7BEFF2378012B3E
:105F200002D12000FFF7BFFF2378022B01D1013BF4
:105F3000A37410BD036810B51B880824025F9B1A68
:105F40000A24025F0F2453438289134142689B0154
:105F500062439B181A119B121BB24260C3810B80D3
:105F600010BD0000224B10B500241C5F214B002007
:105F7000185E001BFFF784FC02000B0000201E4986
:105F8000FEF760FE00221D4BFFF776F9FFF73CFCA1
:105F90001B4B1C4A1A601C4A9A600B229A811B4BAD
:105FA0001B4A1A601B4A9A600C229A811A4B1B4AA0
:105FB0001C811A600A2258819A81194B194A1A6069
:105FC000194A9A6005229A81184B194A1A60194A8F
:105FD0009A6006229A81197C053A0A431A74164B74
:105FE000164A1A60FA2252049A6008229A8110BD59
:105FF000B8F7FF1FC2F7FF1F000054400000904099
:106000005C0400200E050020000017074804002053
:10601000100500200000E3093404002012050020D0
:106020002004002008050020C012FFFF0C040020FF
:106030000A050020E8023800F80300200C050020C3
:10604000414B70B500241C5F404B0020185E001BC4
:10605000FFF716FC02000B0000203D49FEF7F2FDA1
:1060600000223C4BFFF708F9FFF7CEFB3A4B3B4AC7
:106070001C811A600A223A4C5881382120009A81EA
:1060800002F052FA39210600200002F04DFA3A21BE
:106090000500200002F048FA324B334A98813B2138
:1060A00020001A601E815D8102F03EFA3C2106004C
:1060B000200002F039FA3D210500200002F034FAF8
:1060C0002A4B2B4A9881412120001A601E815D8154
:1060D00002F02AFA42210600200002F025FA4321AC
:1060E0000500200002F020FA224B234A9881472124
:1060F00020001A601E815D8102F016FA4821060018
:10610000200002F011FA49210500200002F00CFAEB
:106110001A4B1B4A9881442120001A601E815D8120
:1061200002F002FA45210600200002F0FDF94621A6
:106130000500200002F0F8F9124B134A1E815D8120
:106140001A60988170BDC046B8F7FF1FC2F7FF1FE5
:10615000000054400000904034040020120500204C
:10616000140500205C0400200E05002048040020D7
:106170001005002020040020080500200C04002049
:106180000A050020F80300200C050020F7B57C4E1E
:10619000010005003000FFF7CDFE3368794C1A8806
:1061A000212192B2200002F089F933684B212000AE
:1061B0001F8802F0B9F9BFB20123874209D33368BF
:1061C0004C2120001F8802F0AFF9BFB2B8429B41BA
:1061D0005B420127327CA91CBA43134333746A4ED5
:1061E0003000FFF7A7FE336822211A88200092B200
:1061F00002F064F933684D211B8820009BB20193A3
:1062000002F092F9019A3B00824209D333684E2191
:1062100020001F8802F088F9BFB2B842BF417B421C
:106220000127327C291DBA4313433374574E300083
:10623000FFF780FE336823211A88200092B202F013
:106240003DF9336855211B8820009BB2019302F071
:106250006BF9019B834209D33368562120001F88C4
:1062600002F062F9BFB2B842BF417F420122337CE3
:10627000474993433B433374464E474B37681B882B
:10628000388801934843FEF75BFB019BC01A5023FB
:106290005843424B1988019BC91AFEF7DBFB1E309D
:1062A00028813A88262192B2200002F007F933684B
:1062B0004F211B8820009BB21F0002F035F90123FB
:1062C00087420AD3336850211B8820009BB21F00ED
:1062D00002F02AF9B8429B415B420127327CA91D9A
:1062E000BA43134333742E4E3000FFF723FE336856
:1062F00025211A88200092B202F0E0F8336851217B
:106300001B8820009BB2019302F00EF9019A3B001A
:10631000824209D33368522120001F8802F004F919
:10632000BFB2B842BF417B4201272900327C0C3109
:10633000BA43134333741B4E3000FFF7FBFD336841
:1063400024211A88200092B202F0B8F83368532151
:106350001D882000ADB202F0E7F8854209D333680A
:10636000542120001D8802F0DFF8ADB2A842BF41E1
:106370007F420122337C93433B433374F7BDC046D5
:106380005C0400201405002048040020F8030020CD
:10639000E40C000034040020B8F7FF1FC2F7FF1F11
:1063A000200400200C040020F8B507000E001500A2
:1063B000294B2A4C4B2818D8002203211A702000A0
:1063C0002A0002F07BF82021200002F0ADF8FD2227
:1063D00020210240200002F071F801222E2120002D
:1063E00002F06CF801F054FD23E002004C3A092A57
:1063F00022D81A78002A1FD12021200002F094F818
:1064000002220243202192B2200002F057F86420B9
:10641000134B144A7B439B1831005843FEF71AFB79
:1064200082B2AA4206D80321200002F047F8FFF703
:1064300097FBF8BD2A00F6E70122202120001A7000
:1064400002F072F80222024392B22021200002F0F0
:1064500035F80022C2E7C046F403002014050020EE
:1064600089FEFFFF298B000010B50C4B0C490D4A2B
:106470001868C85004339342FAD101210800FFF78D
:10648000FBFC0320FFF7EEFC074B1B78012B04D12C
:10649000064B1B78012B00D1C04610BD00480008F8
:1064A00000B8FF17C0480008FCEF0008FCF7000820
:1064B0007FB5684603F0FAFD6B461B7BBB2B0DD006
:1064C00003F010FC03F02CFC02236A46009368469C
:1064D000B933137303F034FD03F0B4FC03F036FC5E
:1064E00003F014FC07B000BD10B5054C200002F00D
:1064F000ADFF06222000034902F08CFE10BDC0460D
:106500009C0900200805002010B5054C082120003A
:1065100005F0F6F80C21200005F0F2F810BDC04699
:10652000980A002070B50225164804F063FE16484C
:10653000FFF7AEFC154C2000FFF7AAFCC821200095
:10654000FFF7AAFC124C2000FFF7A2FC2570114CAB
:106550002000FFF79DFC20000F49FFF79DFC2570F0
:106560000E4C2000FFF794FC0A212000FFF794FC5A
:106570000B4C2000FFF78CFC20000A49FFF78CFC35
:1065800070BDC046500A0020FC040020F404002026
:10659000EC040020E404002060EA0000DC04002099
:1065A000D4040020002E930270B5444C0022312107
:1065B000200001F083FF40223021200001F07EFF07
:1065C0003021200001F0B0FF3D4E3E4D0021C0B211
:1065D000FFF704FC2E60C82002F018FD2E6001F0C9
:1065E00047FA394D38212A89200001F067FF6A896E
:1065F0003921200001F062FFAA893A21200001F030
:106600005DFF324D3B212A89200001F057FF6A8946
:106610003C21200001F052FFAA893D21200001F019
:106620004DFF2B4D3E212A89200001F047FF6A894A
:106630003F21200001F042FFAA894021200001F003
:106640003DFF244D41212A89200001F037FF6A894E
:106650004221200001F032FFAA894321200001F0ED
:106660002DFF1D4D44212A89200001F027FF6A8952
:106670004521200001F022FFAA894621200001F0D7
:106680001DFF164D47212A89200001F017FF6A8956
:106690004821200001F012FFAA894921200001F0C1
:1066A0000DFF02220A21200001F008FF01222E2105
:1066B000200001F003FF01F0EBFB70BD140500208A
:1066C000AAAA0000003000405C040020480400201A
:1066D0003404002020040020F80300200C040020D3
:1066E00010B5024801F0E2FD10BDC04614050020BF
:1066F00070B581260024B6001A4D1B4BEB5AA342FD
:1067000008D84A21280001F00FFF012827D1FFF700
:1067100097FC70BD2100280001F0BAFE134B98428F
:106720000ED0AB5900011B185B7A2100012B0AD057
:10673000280002F029F821000200280001F0BEFE26
:106740000134A4B2D8E70A4800F0F6FE21000200A6
:10675000280001F0B3FE0028F2D02100E8E7FFF79F
:1067600001FCD6E71405002012020000FFFF000024
:1067700000F8000837B5FFF7BBFF234C2C212000A1
:1067800001F0D2FE002828D1FFF7D6F9FFF788F9EB
:106790000421200001F0C8FE0124643002B21B492C
:1067A0001B481C4B0094FFF78CFB23001A491B4825
:1067B0001B4A0094FFF785FBFA23AF2219491A48B8
:1067C00000949B009200FFF77CFB4B22174918486E
:1067D000104B0094FFF775FB37BD2C21200001F012
:1067E000A3FE0128D4D12A21200001F09DFE114DE5
:1067F0002864FFF733F92B21200001F095FEE863B0
:10680000FFF76CF9C4E7C04614050020D807002044
:10681000C0040020B80B0000DC0700209804002012
:1068200014050000DA070020AC040020E007002077
:10683000840400200004004070B5434B434C9B7C13
:106840001F212000002B60D001F06EFE01220243C8
:1068500092B21F21200001F031FE3D4B1F219B7C95
:106860002000002B57D001F05FFE0222024392B2BB
:106870001F21200001F022FE364B1F219B7C2000AF
:10688000002B4ED001F050FE0422024392B21F2191
:10689000200001F013FE304D132120000C23EE5E8A
:1068A00001F042FE2021864208DC122120000C2348
:1068B000EE5E01F039FE2021864238DD200001F035
:1068C00033FE0822024392B22021200001F0F6FD9F
:1068D00068882B88E98800041843AB886A89090412
:1068E00019432B8912041A43AB89FFF76DF9202154
:1068F00005002000012D21D101F016FE0543AAB2AA
:106900002021200001F0DAFD70BD01F00DFE012311
:10691000984382B29DE701F007FE0223984382B2BA
:10692000A6E701F001FE0423984382B2AFE72000FE
:1069300001F0FAFD0823984382B2C5E701F0F4FDA7
:10694000FE220240DCE7C046980400201405002027
:1069500084040020C0040020D807002010B5174987
:106960000223CA5E05235343154A5B12134004D524
:106970001022013B5242134301331A1CDBB20A2B93
:1069800000D90A220F48D3B29B001A5801321A507C
:106990000823CA5E3323002053435A12834203DB89
:1069A0006430824200DC10B20A21FEF753F8064A36
:1069B00000B2800083580133835010BDD8070020F7
:1069C0000F000080880700203807002070B50024E1
:1069D0002600A8B0282268461A4900F030FD1A4A5D
:1069E0001A486946A300C958156881421DD16946F5
:1069F000CD50013440C2142CF3D10026144A69460C
:106A0000A300C9581568814215D16946CD5001349B
:106A100040C2282CF3D11E2000F03AFD2200684627
:106A2000084900F017FD28B070BD6946C9584919DA
:106A30006D46E950DDE76946C95849196D46E95088
:106A4000E5E7C04600F0000888070020FFFF0000CF
:106A50003807002010B5A8B0684628227A4900F00F
:106A6000EEFC7A4C009A5B212000120C01F026FD0E
:106A7000009A5C21200092B201F020FD019A5D2174
:106A80002000120C01F01AFD019A5E21200092B242
:106A900001F014FD029A5F212000120C01F00EFD9E
:106AA000029A6021200092B201F008FD039A612150
:106AB0002000120C01F002FD039A6221200092B224
:106AC00001F0FCFC049A63212000120C01F0F6FC9A
:106AD000049A6421200092B201F0F0FC059A65212D
:106AE0002000120C01F0EAFC059A6621200092B207
:106AF00001F0E4FC069A67212000120C01F0DEFC94
:106B0000069A6821200092B201F0D8FC079A692108
:106B10002000120C01F0D2FC079A6A21200092B2E8
:106B200001F0CCFC089A6B212000120C01F0C6FC8D
:106B3000089A6C21200092B201F0C0FC099A6D21E4
:106B40002000120C01F0BAFC099A6E21200092B2CA
:106B500001F0B4FC149A6F212000120C01F0AEFC7D
:106B6000149A7021200092B201F0A8FC159A7121AC
:106B70002000120C01F0A2FC159A7221200092B2A2
:106B800001F09CFC169A73212000120C01F096FC77
:106B9000169A7421200092B201F090FC179A752188
:106BA0002000120C01F08AFC179A7621200092B284
:106BB00001F084FC189A77212000120C01F07EFC71
:106BC000189A7821200092B201F078FC199A792164
:106BD0002000120C01F072FC199A7A21200092B266
:106BE00001F06CFC1A9A7B212000120C01F066FC6B
:106BF0001A9A7C21200092B201F060FC1B9A7D2140
:106C00002000120C01F05AFC1B9A7E21200092B247
:106C100001F054FC1C9A7F212000120C01F04EFC64
:106C20001C9A8021200092B201F048FC1D9A81211B
:106C30002000120C01F042FC1D9A8221200092B229
:106C400001F03CFC28B010BD00F000081405002045
:106C500070B5474C0C21200001F066FC002821D0C3
:106C6000012800D07BE000223121200001F026FC29
:106C70000021200001F058FCE123DB00984205D3FD
:106C800030221100200001F019FC14E00021200046
:106C900001F04AFCC8231022DB00984200D9602290
:106CA0003021EFE70D21200001F03EFC012803D147
:106CB0003048FEF7A3FF70BD0D21200001F034FC29
:106CC000051EF8D10A21200001F02EFC0228F2D185
:106CD0002A003121200001F0F1FB29002000E126EB
:106CE00001F022FCF600B04211D330222000110046
:106CF00001F0E4FB1F4B00229B5EB342DBDB202153
:106D0000200001F011FCDF2220210240BAE7290017
:106D10002000C82601F008FCF600B04212D8290075
:106D2000200001F001FC9623DB0098420AD91022D2
:106D30003021200001F0C2FB0E4B00229B5EB342CB
:106D4000B9DCDCE760223021200001F0B7FB202114
:106D5000200001F0E9FB2021084382B292E7502293
:106D60003021200001F0AAFB002231218AE7C04631
:106D700014050020D8070020F0B5B64BB64CB74A32
:106D800085B01A600A21200001F0CEFB1E2102000E
:106D9000200001F093FBB24E3000FFF7F7F9152108
:106DA0003288200001F08AFB16217288200001F051
:106DB00085FB1921F288200001F080FB1B21B2889D
:106DC000200001F07BFB1A213289200001F076FBC4
:106DD0001821B289200001F093FBFFF72DFDFFF78A
:106DE00037FF2C21200001F09FFB00280CD19D4D86
:106DF0002A212A6C200092B201F060FBEA6B2B2161
:106E0000200092B201F05AFB142120000623F55E07
:106E100001F08AFB854204DD14212000F28801F094
:106E20004DFB914B0093914B0193009B9D7C019BEB
:106E30009B7C1D438E4B9B7C1D438E4B9B7C1D433B
:106E40002DD0FEF7A1FE032802D00420FEF7A2FEFB
:106E5000FEF7A6FE88480378022B5AD10A21FFF7D5
:106E60001BF80C21200001F05FFB012800D093E00B
:106E70000E21200001F058FB012816D10F2120001F
:106E80000223F75E01F050FB00210290200001F088
:106E90004BFB029B5F43FF11C21B92B20AE0FEF75D
:106EA00073FE0328D4D02800D0E70021200001F091
:106EB0003BFB02000121200001F000FB6F48057838
:106EC000022D11D16E49FEF7E7FF00212000F7885F
:106ED00001F02AFB29000290200001F025FB029915
:106EE00002003800FFF760FA2C21200001F01CFBA3
:106EF00000280ED170883388F18800041843B388C5
:106F0000728909041943338912041A43B389FEF7BD
:106F100003FD5C4B5C4D1F780293022F00D0B5E05F
:106F20000C21200001F000FB0390002800D0ADE010
:106F30000298FEF7ADFF90202021C00503F0E8F98C
:106F40000122002808D090202021C00503F0E0F99C
:106F5000012800D09AE0039A1C21200001F0AEFA2B
:106F60002F7028004649FEF797FF0C21200001F002
:106F7000DBFA002802D13000FEF79AFE0C21200037
:106F800001F0D2FA002802D13000FEF71BFDFFF716
:106F9000E5FCFFF75FFD7DE00C21200001F0C4FA65
:106FA000071E8BD10E21200001F0BEFA012822D14C
:106FB0000A21200001F0B8FA02281CD10222B35E97
:106FC0000F212000029301F0AFFA39000390200056
:106FD00001F0AAFA029B039F5F43FB11C21A92B20F
:106FE0000121200001F06AFA0121200001F09CFA41
:106FF0007289821851E70E21200001F095FA0128CC
:1070000015D10A21200001F08FFA02280FD00F219C
:1070100020000223F75E01F087FA0421029020008D
:1070200001F082FA029B5F43FF11C21BD7E70E21DA
:10703000200001F079FA002806D10A21200001F091
:1070400073FA0421022800D10021200001F06CFA1B
:107050000200C5E70030004014050020AAAA000085
:10706000D80700200004004098040020AC04002051
:1070700084040020C0040020DC040020E40400207C
:1070800060EA0000FC040020EC0400202B78022BB6
:1070900000D166E738480578022D35D1C821FEF7C2
:1070A000FBFE009B9B7C002B39D04022302120002E
:1070B00001F004FA00223121200001F0FFF92F4AEB
:1070C000138801339DB20A2D00D9002531212000FB
:1070D000158001F029FA2A4E4000854204DA3378FF
:1070E000002B3DD0002333703121200001F01CFA29
:1070F000002837D1012333703021200001F014FA29
:107100000021C0B2FEF76AFE1E480378022B04D1AC
:107110001D49FEF7C1FEFFF759FC05B0F0BD1B4B42
:107120009B7C002B06D040223021200001F0C6F9C4
:107130000122C0E7164B9B7C002B06D04022302159
:10714000200001F0BBF92A00B5E7019B9B7C002BD6
:10715000B5D040223021200001F0B0F90322AAE787
:107160000123C0E73378002BC6D13021200001F085
:10717000DBF90221C0B2C5E7F404002006050020B7
:1071800004050020D4040020002E9302C004002037
:107190008404002010B54B4B4B4C1A8820004B49FF
:1071A00001F08CF900222000494901F087F9494B90
:1071B00020001A88484901F081F92000474A4849CF
:1071C00001F07CF9474B20001A88474901F076F915
:1071D000464B20001A88464901F070F9454B2000C3
:1071E0001A88454901F06AF9444B20001A8844493D
:1071F00001F064F9434B20001A88434901F05EF91D
:10720000424B20001A88424901F058F90022200020
:10721000404901F053F9002220003F4901F04EF9A6
:10722000002220003D4901F049F9002220003C499C
:1072300001F044F9002220003A4901F03FF9002210
:107240002000394901F03AF900222000374901F0C5
:1072500035F900222000364901F030F92000354A86
:10726000354901F02BF92000344A354901F026F95F
:1072700000222000334901F021F900222000324988
:1072800001F01CF900222000304901F017F900221A
:1072900020002F4901F012F9002220002D4901F0B1
:1072A0000DF9002220002C4901F008F900222000ED
:1072B0002A4901F003F900222000294901F0FEF8D3
:1072C00010BDC046C2FF000814050020F4260000CF
:1072D000F5260000C0FF0008F6260000D7070000D2
:1072E000F7260000ACF7FF1FF8260000AEF7FF1FDF
:1072F000F9260000B0F7FF1FFA260000B2F7FF1FC3
:10730000FB260000B4F7FF1FFC260000B6F7FF1FA6
:10731000FD260000EA260000E9260000E82600001D
:10732000E7260000F1260000F2260000EF2600000C
:10733000F026000044420000052700004332000010
:107340000627000007270000082700000927000083
:107350000A2700000B2700000C2700000D27000063
:107360000E27000010B5FFF7BFF8FFF7B9F9FFF7D8
:1073700001FAFFF70FFFFFF7C7F8FFF7D3F8FFF7A2
:1073800013F9044800F072F900F0B6FD00F0A8FD12
:1073900010BDC046DC09002010B51248FEF79DFD67
:1073A0001148FEF79AFD1148FEF797FD1048FEF7C9
:1073B00094FD1048FEF777FD0F48FEF774FD0F4867
:1073C000FEF771FD0E48FEF76EFD0E48FEF76BFDF1
:1073D0000D48FEF768FD0D4801F0E6F900F068F988
:1073E00010BDC046C0040020AC040020980400205A
:1073F00084040020EC040020E4040020FC040020AD
:10740000DC040020F4040020D40400201405002033
:1074100010B5202803D164210148FEF73DFD10BDC1
:10742000FC0400200B0010B55C1AA24200D810BD6D
:107430001C7804705C78023344700230F4E710B5B5
:1074400092005218401A914200D110BD431810C941
:107450001C60F8E7F8B50B6807000D001600012066
:10746000013307D102F03EFC0024B44203D102F004
:107470004DFC0020F8BDA1007B181A686918002394
:10748000022002F099FC642002F06CFC0134ECE76D
:1074900013B5040002F026FC002811D18022E4027A
:1074A0001205A4180122074B0190186001A91800C9
:1074B0005C609A6002F024FE002801D102F026FCF4
:1074C00016BDC046E80700200B68F7B506000F00A0
:1074D0001400012001330DD102F004FC03231C42EF
:1074E00001D09C4304343500AB1B9C4203D802F00E
:1074F0000DFC0020FEBD002301932B78019A64202F
:10750000134301936B78019A1B0213430193AB78E9
:10751000019A1B0413430193EB78019A1B06134352
:10752000019302F01FFCB91B491900230220019AA4
:1075300002F042FC0435D7E74900085A70470000C2
:10754000F0B593B016006A465C00E31DDB08DB0073
:10755000D31A00AF9D462200684679601149FFF7B3
:1075600061FF08236D46F81840220F49FFF75AFFC4
:107570001F20FFF78DFF7B68310A5B005A1CA9545E
:10758000F2B2EA54684622000649FFF79DFF08233D
:1075900040220549F818FFF797FF0020BD4613B0B9
:1075A000F0BDC04600F8000800FF0008F7B5540021
:1075B0006A46E31DDB08DB00D31A00AF9D460E00D0
:1075C0000B4D2200290078606846FFF72BFF1F2033
:1075D000FFF75EFF290022006846FFF775FF3200C3
:1075E00078680449FFF770FFBD460020FEBDC04625
:1075F00000F8000800FF0008F0B593B055006A4697
:10760000EB1DDB08DB00D31A00AF9D462A0068465D
:1076100079601449FFF706FF082340221249F81841
:107620006E46FFF7FFFE0024AC4211D11F20FFF78A
:107630002FFF220030000B49FFF746FF08234022AE
:107640000949F818FFF740FF0020BD4613B0F0BD10
:107650007B68621C1B5B190ADBB2B15433550234E0
:10766000E2E7C04600F8000800FF000870B50E4CC5
:1076700005000100200000F002F900230322200091
:107680000A4900F0ADF90021200000F0DDF90123E6
:107690006434227828001343237002F028F828006D
:1076A000032102F034F970BDF4070020F4D1000882
:1076B00010B5024800F01AF910BDC046F4070020CA
:1076C000022310B5044A054811780B4300211370BA
:1076D00000F06EF910BDC04658080020F4070020E5
:1076E000012310B5034A044811780B43137000F0CE
:1076F000D6F810BD58080020F4070020094B0A49AD
:107700009A89131C12B28A4200DA0B1C1AB20323A4
:1077100053435B112833037100234371C38083609B
:107720007047C046D807002070FEFFFF064B0222BC
:107730009A5E33235343C8221B12D2009B188380C6
:107740000023C38083607047D8070020002110B554
:10775000084C01710223E25E0523183253435B1487
:1077600043710023E25E0D2353439B11C38081606C
:1077700010BDC046D8070020F7B5009308AB150030
:107780001A7809AB1F78831CDB8F04000120032BC0
:1077900039D807263540AC461801035D2518B34398
:1077A0000193009B6B80D30000936346019A1A43B8
:1077B0001300009A3340134303550B9B6F70EB602B
:1077C00002290CD003291FD0012913D1002304352D
:1077D0000A9AD25CEA540133082BF9D10AE004304A
:1077E0000822FF21201805F089FC0B9B002B01D0FB
:1077F000280098470234E38F01339BB2032B00D952
:1078000000230020E387FEBD002304350A9AD25CE2
:10781000EA540133082BF9D1ECE710B5811C041DA3
:10782000E38FC98F02000020994207D0591C89B20A
:10783000032900D901001B01E187D01810BD1FB535
:10784000069C009303940024130002940A00019400
:107850000221DC30FFF790FF1FBD30B585B00A9DD7
:1078600008AC24780395099D0093029513000194B8
:107870000A0098300121FFF77FFF05B030BD0200FC
:10788000002368320160043A9380138093700422CD
:1078900002659218436582655C300370704770B56D
:1078A0000500012664352B78040033421DD0DC30FE
:1078B000FFF7B3FF021E18D02B780432B3432B70AE
:1078C0000378DB08A365037841885B070902DB08BE
:1078D0000B4321006531097820680B43E3642100E4
:1078E00023004831603301F02EFF70BDF7B507006B
:1078F00005000400002668373B88743501333B805F
:10790000AB79022B16D12988002913D03888FDF7CE
:107910009DF889B200290DD10C237343E31870330D
:107920009979A868CB06AA88DB0E00904909200047
:10793000FFF785FF01360C35032EE1D12000FFF75C
:10794000AEFFF7BDF0B50600020004006A36330052
:107950002C320021006885B001F052FF2300002581
:10796000206B7833020A070C92B2FFB29978012992
:1079700012D11988914216D10C277D436519E36B0A
:10798000ED6F810EC0B20090DBB22000029501962F
:10799000FFF763FF05B0F0BD032904D11988090A78
:1079A00079400F29E8D901350C33032DDED1F1E7F9
:1079B00070B50500022664352B780400334204D0EC
:1079C000FFF7C0FF2B78B3432B7020009830FFF7F0
:1079D00024FF002803D0C368002B00D0984770BD57
:1079E000F0B585B003920C220190944600201F2729
:1079F0000291039A904201D305B0F0BD61466546FD
:107A00004143029A5118C2186A43019D8C68AA1812
:107A1000D467140016008D88783425808D797036EF
:107A2000A5708D78B4793D40BC432C43B4718D78FA
:107A3000E4B26D096D013C402C43B4710988743285
:107A400001301180C0B2D4E70023012210B5836158
:107A500043608360C3600361C36143610E330262AC
:107A600042628362011D006801F0CEFD10BD00007E
:107A700070B52B4C00212000C82500F055FDED000D
:107A8000A84220D802212000FA2500F04DFD6D000B
:107A9000A84205D8234A1D21200000F00FFD70BD2B
:107AA0000221200000F040FDA84209D90221200057
:107AB00000F03AFDFA239B00984201D81A4AEAE7FF
:107AC0009622D200E7E70021200000F02DFDA84219
:107AD00023D90021200000F027FD144B98421CD828
:107AE00002212000FA2500F01FFD6D00A84201D8F8
:107AF0000F4AD0E70221200000F016FDA84209D964
:107B00000221200000F010FDFA239B00984201D8CA
:107B1000084AC0E796221201BDE70022BBE7C04633
:107B200014050020B5040000BA040000B80B0000E2
:107B3000650900006A09000070B5244C002120008E
:107B400000F0F2FC9623DB00984236D29622002108
:107B50002000D20000F0B2FCFDF7A2FF00222C2191
:107B6000200000F0ABFC0021200000F0DDFC022131
:107B70000500200000F0D8FC6843154B984207DD53
:107B8000FA2202215200200000F098FCFDF7D4FFF9
:107B90000421200000F0C8FC0E4B643018822C2118
:107BA000200000F075FC0C4B01000022E35A0B484A
:107BB000FFF7C6FCFFF75CFF70BD0021200000F05E
:107BC000B3FC074B9842C1D8C6E7C0461405002055
:107BD000A0BB0D00C00400201202000000F8000845
:107BE000DC05000070B51E4C0221200000F09CFC5A
:107BF00096229200904203D90221200000F05EFC00
:107C0000FDF79AFF00222C21200000F057FC0021F4
:107C1000200000F089FC02210500200000F084FC17
:107C20006843104B984207DD96220021D2002000C5
:107C300000F044FCFDF734FF0221200000F074FC4A
:107C4000094B2C211882200000F022FC074B010078
:107C50000022E35A0648FFF773FCFFF709FF70BDE7
:107C600014050020A0BB0D00AC040020120200008F
:107C700000F8000810B50D4C2A21200000F054FC3B
:107C80000B4B1864FDF7EAFE01222C21200000F0C6
:107C900015FC2C21200000F0FBFB064B010001220B
:107CA000E35A0548FFF74CFC10BDC0461405002000
:107CB000000400401202000000F8000810B50D4C4E
:107CC0002B21200000F030FC0B4BD863FDF706FFA2
:107CD00001222C21200000F0F1FB2C21200000F0DB
:107CE000D7FB064B01000122E35A0548FFF728FCA9
:107CF00010BDC04614050020000400401202000020
:107D000000F8000810B501F053FF10BD70B51C4C11
:107D10000421200000F008FC9623DB00984227D2C3
:107D2000962204212000D20000F0C8FB042120008C
:107D300000F0FAFB02210500200000F0F5FB68438B
:107D4000104B984207DDFA2202215200200000F079
:107D5000B5FBFDF7F1FE0421200000F0E5FB0A4B26
:107D60006430188200222C21200000F0A7FB70BD97
:107D70000421200000F0D8FB044B9842D0D8D5E76E
:107D800014050020A0BB0D00C0040020DC0500008D
:107D900010B50C4C2F21200000F0C6FB021E08D1AC
:107DA00090200421C00502F0B9FA0320FDF7F2FE8D
:107DB00006E02F21200000F0B7FB02000128EFD0E1
:107DC00010BDC0461405002010B5FEF739F901F0CA
:107DD000EFFE10BD10B50648FEF75AF830210548F1
:107DE00000F0A2FB0021C0B2FDF7F8FF10BDC046B5
:107DF000F40400201405002010B5C8210148FEF746
:107E00004BF810BDF404002070B50C4D3221280051
:107E100000F08AFB01000A4C0A4823785A0001331B
:107E2000DBB281522370202B06D1074B4021EA5A46
:107E3000FFF7BCFB0023237070BDC0461405002073
:107E400054090020140900201202000070B500241B
:107E50000C4D0D4BEA5AA24207D80A3BE9580B4891
:107E6000FFF7CAFB01F0A4FE70BD2100280000F05E
:107E70008BFC210002000134280000F01FFBA4B29B
:107E8000E6E7C046140500201202000000F80008D2
:107E900010B5124C2E21200000F046FB012808D11D
:107EA00090204021C00502F033FA002201280ED0B4
:107EB00010BD2E21200000F037FB0028F8D19020C3
:107EC0004021C00502F024FA0028F1D101229020BF
:107ED0004021C00502F022FAEAE7C046140500205E
:107EE00010B53521024800F01FFB024B187010BD81
:107EF000140500205A08002010B53421024800F073
:107F000013FB024B187010BD140500205908002007
:107F100010B53921024800F007FB024B588110BD13
:107F2000140500205C04002010B53C21024800F03C
:107F3000FBFA024B588110BD1405002048040020B4
:107F400010B54521024800F0EFFA024B588110BDF0
:107F500014050020F803002010B53F21024800F06E
:107F6000E3FA024B588110BD1405002034040020B0
:107F700010B54221024800F0D7FA024B588110BDDB
:107F8000140500202004002010B54821024800F00C
:107F9000CBFA024B588110BD140500200C040020C0
:107FA00010B53821024800F0BFFA024B188110BD0D
:107FB000140500205C04002010B53B21024800F0AD
:107FC000B3FA024B188110BD1405002048040020AC
:107FD00010B54421024800F0A7FA024B188110BDE9
:107FE00014050020F803002010B53E21024800F0DF
:107FF0009BFA024B188110BD1405002034040020A8
:1080000010B54121024800F08FFA024B188110BDD3
:10801000140500202004002010B54721024800F07C
:1080200083FA024B188110BD140500200C040020B7
:1080300010B53A21024800F077FA024B988110BD42
:10804000140500205C04002010B53D21024800F01A
:108050006BFA024B988110BD1405002048040020E3
:1080600010B54621024800F05FFA024B988110BD1E
:1080700014050020F803002010B54021024800F04C
:1080800053FA024B988110BD1405002034040020DF
:1080900010B54321024800F047FA024B988110BD09
:1080A000140500202004002010B54921024800F0EA
:1080B0003BFA024B988110BD140500200C040020EF
:1080C00010B5094C0949200000F02EFA084B052292
:1080D000984200D1043A85239B0020000349E254D2
:1080E00000F0ECF910BDC04614050020D5260000B4
:1080F000D204000010B50D4C0D49200000F014FA18
:108100000C4B0222984208D04D330132984204D0E1
:10811000094BC218531E9A41043285239B0020004C
:108120000349E25400F0CAF910BDC046140500200E
:10813000D62600008307000048F4FFFFF0B5254C69
:1081400085B02549200000F0EFF924490500200002
:1081500000F0EAF922490190200000F0E5F92149F8
:108160000600200000F0E0F91F490700200000F0A1
:10817000DBF91C490290200000F0D6F91B4903905E
:10818000200000F0D1F9F61975402DB285421CD1BE
:108190002000174900F0C8F9039A029B9446019AFF
:1081A00063445A4013B283420FD1852301229B00BE
:1081B0000E49E2542000002200F080F90022200045
:1081C0000B4900F07BF905B0F0BD852305229B002B
:1081D000E254F8E714050020F1260000F226000022
:1081E000022700000427000003270000EF260000FC
:1081F000F0260000704770477047704770470000D6
:1082000010B51D4C1D49200000F08EF91C4A0123B9
:10821000904219D020001B4900F086F91A4A022327
:10822000904211D02000194900F07EF9FA22032370
:10823000D200904208D02000154900F075F9154B86
:10824000C3185A1E9341043385229200A354200080
:1082500000220A4900F032F900222000094900F00A
:108260002DF900222000094900F028F90022200001
:10827000074900F023F910BD14050020EA2600008C
:10828000D2040000E926000083070000E826000071
:10829000E726000048F4FFFF10B50A000100CD23D7
:1082A0000148FFF74DF910BD00F80008F0B5104B7C
:1082B00085B002930F4B01220193CD230E4C009306
:1082C00011002300050000F019F8CD231B01E71869
:1082D00026882800310000F057FA103402003100DF
:1082E000280000F0EBF8BC42F2D105B0F0BDC0466A
:1082F000102700009982000818D20008F0B585B058
:1083000002930AAB1F880CAB04001888012A5FD1C6
:10831000802300255B0062706380029A0533FF337F
:108320002170E25005220C33E554404B7E00E752A9
:108330000233E2540B9A0433E2500433E550043321
:10834000E052300004F01EFE82239B0032003849C8
:10835000E05004F0D3FE2E00ABB29F423AD8013673
:10836000B6B2F3001800039304F00CFE83239B00C5
:10837000E0500023020005001900019001339BB278
:108380005180118008329E42F8D800213F208BB2E4
:108390009F422AD8019B039E9C4666446B88002B13
:1083A00034D02F887F00380004F0ECFD3A002049DB
:1083B000686004F0A3FE0835B542EFD100233F21E9
:1083C0001A4AA25A9A4223D80022019B5B681A805B
:1083D00005B0F0BD029A2B01D35A9B091A1CB34277
:1083E00000D2321C96B20135B6E7029A0B01D25A7E
:1083F000019E9309DB00F3185E88024001365E801F
:108400001E88964200D21A800131C0E76B60D2E725
:1084100002981A01105A019D8209D200AA185568C3
:1084200008404000435301339BB2C9E712020000E9
:10843000FFFF0000F0B500244F7825002200230044
:108440002600012F08D1CA880B8952BA5BBA0C7971
:108450004D794E8992B29BB24570C68004704280BD
:108460008380F0BD030030B54118074C07488B42AC
:1084700000D130BD1A78050A4240D2B25200105BDA
:1084800001336840F3E7C046E8DE0008FFFF000064
:1084900083239B00C3588A09D2009B185A68002A7C
:1084A00007D03F201B8801408B4202D34900885AE5
:1084B00070470148FCE7C046FFFF000070B514009C
:1084C0000500FFF7E5FF0D4A03000120934213D09A
:1084D00081229200AA58190152180420115E01202D
:1084E0008C4209DC0621525E944205DB82228340E5
:1084F00000209200AA589C5270BDC046FFFF0000A9
:1085000070B514000500FFF7C3FF064A0300012001
:10851000934205D08222834000209200AA589C52A8
:1085200070BDC046FFFF000010B50400FFF7B0FFAC
:10853000044B984204D082239B00E3584000C05A69
:1085400010BDC046FFFF00008423F0B59B00C25C55
:10855000040087B0002A5CD00022C2547B4B01008B
:10856000C25204A8FFF766FF04AB5D785B882678EB
:10857000019304AB9B88039304AB1B780293B34233
:1085800016D0112D45D127000223FF37FB71601D46
:10859000FD33BD717B7205217E713E72FF30FFF7A6
:1085A00061FF030ABB72F8720A3D280007B0F0BDF4
:1085B0006188201D0239FFF755FF04ABDB88834239
:1085C00027D120000199FFF763FF87239B00E0522A
:1085D000062D48D0102D1CD02700661DFF37FF3612
:1085E000032D00D0A4E0039A019B9B188022520225
:1085F000934210DB029B29007B718323BB71813B7B
:10860000FB713000FFF72EFF030A3B7278720525DD
:10861000CBE70025C9E7029BBD717B71039B5B0023
:10862000FB710027039B7D00ADB29F420DD1EF1C73
:10863000BFB239003000FFF715FFE719FF370535E6
:10864000030AADB2BB717871AFE7019B2000F91846
:1086500089B2FFF769FF6519FF35030A01372B72ED
:108660006872BFB2DEE720000199FFF711FF250015
:10867000374B671DFF37FF3598420ED00301029339
:1086800081239B00029AE3589B18039385239B0048
:10869000E25C039B1B7A9A420CD98623AB71853B23
:1086A000EB71032138006E71FFF7DCFE030A2B72B9
:1086B0006872ACE72289200052BA019992B2FFF7A2
:1086C000FDFE00280CD0237803216B71862338002F
:1086D000AB71E971FFF7C6FE030A6B72287296E769
:1086E000039B5B7A002B09D0862301999B00200015
:1086F000E658FFF719FF01000198B04706212378DB
:10870000A9716B712500E388FE352B812389380020
:108710006B81FFF7A7FE8123A8819B00E358029A93
:108720009B18DB68002B01D108253EE79847FBE743
:10873000029B803D7B7101230321FB713000BD71E1
:10874000FFF790FE030A7B72387260E71E0200009A
:10875000FFFF0000F8B58427BF0004001E00C35DC2
:108760000020150083420ED11800FF2A0BD8201DCF
:1087700004F00AFD012365802000E355FFF7E4FEC5
:108780003080601DFF30F8BD10B50400FFF780FE9B
:10879000044B984205D081239B00E35800011B182D
:1087A000588810BDFFFF000088239B00C15A002994
:1087B0000CD0074A835A01339BB28352994205D8A1
:1087C000852305219B00C154002383527047C04676
:1087D0001E02000030B585B00C22002101A804F073
:1087E0008DFC08222E4C2F4B626180225202A26126
:1087F000C222002523600123FF32E2612000621DB6
:108800006560A560E56023612562D377A56200F00D
:108810005FFCA84201D000F03BFA80235B01029389
:108820000623200001A90195039300F08BFD002889
:1088300001D000F02DFA0123200001A9019300F0DE
:1088400081FD002801D000F023FA0323200001A9B4
:10885000019300F077FD002801D000F019FA0423FD
:10886000200001A9019300F06DFD002801D000F067
:108870000FFA0723200001A9019300F063FD0028EF
:1088800001D000F005FA1023200001A9019300F0A7
:1088900059FD002801D000F0FBF905B030BDC046FD
:1088A0009C0900200024014030B5050089B0142245
:1088B000002103A804F022FC1E4B2A689A4236D1FC
:1088C00080211D4B89009A6990200A439A619A6918
:1088D000C0050A4080210192019A5A6989020A431F
:1088E0005A615B690B400293029B9B2303A903938C
:1088F000983B049301F04EFC104C114B2000236078
:1089000000236360A3608033E360803323618023AE
:10891000DB0063612023A36180239B01E36101F0FD
:1089200055F9002801D000F0B3F92C63656209B055
:1089300030BDC0460024014000100240580900200C
:10894000080002400D480E4BC02210B503600C23F6
:10895000120302618022436080235203DB054261DF
:108960008022836000235204C3608261838300F00D
:10897000C5FD002801D000F08BF910BDDC090020F6
:108980000064004010B5040088B01422002103A840
:1089900004F0B4FB164B22689A4227D18021154B74
:1089A0008904DA6914480A43DA61DA690A408021E5
:1089B0000192019A5A69C9020A435A615B690B40E4
:1089C0000293029BC0239B00039302230493013371
:1089D000069303A90133079301F0DCFB00221E205C
:1089E000110001F0AFF81E2001F0D6F808B010BD5C
:1089F0000064004000100240000400480121054BC3
:108A000082B05A690A435A615B690B400193019B2A
:108A100002B0704700100240F0B58BB01422002164
:108A200005A804F06BFB8021414B09035A6990278C
:108A30000A435A615A693F4E0A4080210192019AC5
:108A40005A69C9030A435A615A69FF050A408021DD
:108A50000292029A5A6989020A435A615A69380095
:108A60000A4080210392039A5A69C9020A435A6153
:108A70005B6900220B4004932F49049B01F04EFCDC
:108A8000002230002D4901F049FCE0230024032599
:108A90001B0205A92A4805930695079401F07AFB65
:108AA00005A9284805950695079401F073FB224B0C
:108AB00038000593012305A906930794089401F053
:108AC00069FB20230593C42338009B0305A9069363
:108AD000079401F05FFB1C4B300005A90593069538
:108AE000079401F057FB0123144A300005A90592B1
:108AF00006930794089401F04DFBE0233800DB0057
:108B000005A905930695079401F044FB082330005E
:108B100005A905930694079401F03CFB220002216D
:108B2000072001F00FF8072001F036F80BB0F0BD78
:108B300000100240000400484480000070800000E3
:108B40000008004800140048847C0000074B084AD5
:108B50001A60084A1A6000225A60074A9A6007227F
:108B6000D9681142FCD1054A1A60704700300040B4
:108B7000CCCC000055550000FF0F0000AAAA000051
:108B80000123264910B50A689A431A430A600A6805
:108B90001A42FCD0224C626B134363630223626B64
:108BA0001A42FCD0F823626B9A43783B1343636309
:108BB0008023626B5B021343636380239B02626BBF
:108BC0001A42FCD00123626A134363620223626A81
:108BD0001A42FCD0F0226368934363606368114AD1
:108BE0001340032263606368134363600932636860
:108BF00013400C2BFBD10C4803F036FA032000F095
:108C000061F8002801D072B6FEE70422636B93433B
:108C10006363236B7C329343236310BD00200240C7
:108C200000100240FFF8FFFF006CDC0210B5FDF7FA
:108C30001BFC00F0C9F9FFF7A3FFFDF739FCFFF7B4
:108C4000EBFEFFF7DBFEFFF7C5FD03F087FF00F04B
:108C5000D5F800F045F9FFF779FFFFF773FEFEF74F
:108C600081FBFEF789F8FCE7074B026810B50400AA
:108C70009A4201D100F0B8F9044B22681B689A426D
:108C800001D1FEF789FB10BD00400140500A0020D1
:108C900072B6FEE701210A4B82B09A690A439A61D3
:108CA0009A690A4080210092009ADA6949050A43CC
:108CB000DA61DB690B400193019B02B07047C0464B
:108CC000001002408021214B70B59A6949020A4385
:108CD0009A619B6986B00B4001930500694602A822
:108CE000019B02F0A9F9059B002B28D102F094F911
:108CF000174E184B18493360184BF360FBF720FEF2
:108D000000230138706030003361B360B36102F05A
:108D100097FB041E10D1300002F06CFA041E0BD138
:108D2000142000F039FF032D0DD822002900142053
:108D300000F008FF0A4B1D60200006B070BD02F075
:108D40006BF94000D4E70124F6E7C046001002406A
:108D5000040A00200040014040420F00E7030000E9
:108D6000140200207047FEE770477047704710B547
:108D7000202001F0D9FA10BD10B5024802F06EFAB9
:108D800010BDC046500A002010B5024802F066FA35
:108D900010BDC046040A002010B5024800F0D5FD01
:108DA00010BDC046DC09002010B5024801F038FBB8
:108DB00010BDC046F01100200B490C4A0300521AA6
:108DC0000B4910B50868002801D10A4808600868F6
:108DD000C318934206D904F0ABF90C2303600120B9
:108DE000404210BD0B60FCE7000400000040002082
:108DF0004C0A0020181600207047000009480A4B52
:108E000010B50360032343600023084A8360C260F7
:108E10000361836102F014FB002801D0FFF738FFE3
:108E200010BDC046500A002000200040DF2E000088
:108E3000074B026882B09A4208D10221054BDA69D9
:108E40000A43DA61DB690B400193019B02B0704772
:108E5000000400400010024007B50B4B02689A4224
:108E600011D18021094B4900DA6913200A43DA61E4
:108E7000DB6900220B400193FF39019B00F062FE89
:108E8000132000F089FE07BD0020004000100240C2
:108E900010B5040086B01422002101A804F02EF9B8
:108EA0000C4B22689A4213D180210B4BC9025A699C
:108EB0000A480A435A615B690B400093009B0323F5
:108EC0000193013B029301A9013B059301F062F973
:108ED00006B010BD0004004000100240000400482D
:108EE00030B500258BB00822002101A804F006F956
:108EF0001C22002103A804F001F91B4C1B4B20008D
:108F000023601B4B6560A560E3602561A56102F0ED
:108F1000BFFAA84201D0FFF7BBFE200001A90195CE
:108F2000029502F0F1FB002801D0FFF7B1FE6023AB
:108F3000039300230822200003A9049305930793B9
:108F400002F00EFB002801D0FFF7A2FE0C22200049
:108F500003A902F005FB002801D0FFF799FE2000CD
:108F6000FFF796FF0BB030BD980A002000040040C8
:108F7000E70300000D4885460D480E490E4A0023C0
:108F800002E0D458C4500433C4188C42F9D30B4ABD
:108F90000B4C002301E013600432A242FBD3FFF725
:108FA0002BFF04F0CBF8FFF741FEFEE70040002066
:108FB00000020020D803002040E10008D803002070
:108FC00014160020FEE700001023064A10B51168B1
:108FD00003200B431360FFF775FEFFF75BFE0020D5
:108FE00010BDC04600200240034A044B11681B78A4
:108FF0005B1813607047C046E00A00201002002092
:10900000014B18687047C046E00A002070B50400A4
:10901000FFF7F6FF0500631C02D0044B1B78E41831
:10902000FFF7EEFF401BA042FAD370BD10020020F4
:10903000002373B503210193036804009A680A4072
:10904000012A07D11968114201D0002076BDDA68E3
:109050001204FAD499681B4A114209D01023A26B5A
:109060001343A3630123E26B13430120E363EDE7A2
:10907000012299680A439A60134B14491868FBF758
:109080005FFC0190019B002B17D1FFF7B9FF012571
:10909000060023681B682B42D7D1FFF7B1FF801B66
:1090A0000228F6D923681B682B42F2D11023A26B49
:1090B0001343A363E36B2B43D7E7019B013B01936E
:1090C000E0E7C046170000800C02002040420F007D
:1090D00070B5041E00D190E0836B002B05D1020017
:1090E0003432C3631370FFF7DFFBA36BDB0600D5DD
:1090F00085E0226893685B0700D580E0A16B424B56
:1091000019400633FF330B430321A36393680B40DD
:10911000012B05D1116819420ED1D3681B040BD461
:109120001821D3688B43A1680B43D360136961682E
:109130009B009B080B431361D36834490B40D360F9
:10914000237E607E9B03C0030343A17EE06803434C
:1091500048030343601DC07F40000343A06A0138F9
:10916000451EA84100030343206902384542684177
:1091700080000343E07E012804D100292BD1802107
:1091800049020B43C220E169FF30814202D0206ACC
:1091900001430B438020D16840051943D160E16A47
:1091A000814202D0481E062807D807255069294069
:1091B000A8435061506901435161D26814490A4083
:1091C0009A4210D100200323E063A26B9A43023B32
:1091D0001343A36370BD2021A56B2943A163E16BF9
:1091E0000843E063CEE71223A26B9A43023B13438A
:1091F000A3630123E26B1343E3630120EAE7102337
:10920000A26B1343A363F8E7FDFEFFFF1902FEFF05
:10921000E7FF3F83F7B5036804009B680E00022058
:1092200001925B0730D4270034373B78012B2BD0D9
:1092300001233B70637E012B27D1A26B164B0025C7
:109240001A4080235B001343A363E5633D70206BEA
:10925000124B21688362124BC362124B03631C23BF
:109260000B604A680C3B13434B600123CA681343ED
:10927000CB603200019B403100F0DAFC042328006F
:10928000226891680B439360FEBD2000FFF7D0FE7B
:109290000028D2D0F8E7C046FEF0FFFFAD920008EC
:1092A0001F9300082B930008704700005022436A68
:1092B00010B5996B11422BD1996BB132FF320A4331
:1092C000C0219A631A680901D068084213D1997EB7
:1092D000002910D1116809070DD5916849070ED4EE
:1092E0000C20516881435160996B0B4A1140043244
:1092F000FF320A439A631800FFF7D6FF10BD202201
:10930000996B0A439A630122D96B0A43DA63F2E745
:109310001B6B1B6B9847F1E7FEFEFFFF704710B514
:10932000406AFFF7FBFF10BD70474023406A10B54D
:10933000826B134383630423C26B1343C363FFF73E
:10934000F3FF10BDF7B500220400019234342278F7
:109350000300C56A0220012A2AD0013820701A6849
:10936000966876075ED40B684F681E00BC46304F87
:109370009840103EBC453FD0976A384390628020A9
:10938000400585420FD0013D062D0CD907205569B7
:1093900089680540A94206D0556901408543556159
:1093A000556929435161022E03D9002000232370FF
:1093B000FEBD20480168102B1BD01A00113A5542FF
:1093C0006A411D4D52422A4080256D0452190A43BC
:1093D0000260102BE9D1194B19491868FBF7B0FA54
:1093E0000A2343430193019B002BDED0019B013BE9
:1093F000F8E780221204EAE7916A81439162022E23
:10940000D3D80C4A1168102B0AD0113B581E834147
:1094100009485B4203400B481B180B401360C4E72C
:10942000094BFAE72022996B0A439A63BEE7C046CC
:109430000110000008270140000040FF0C0200203E
:1094400040420F00FFFFBFFFFFFF7FFFF8B50600A0
:109450003436337804000220012B45D00123032148
:10946000337023689A680A40012A05D119681142AD
:109470003BD1DA68120438D4A16B1F4A114006327E
:10948000FF320A430321A263DD68DA688A43DA60A7
:109490008022996812060A439A60FFF7B1FD07001F
:1094A00023689A68002A0DDB0321DA680D40154312
:1094B000DD6001230020A26B8A431343A3630023D2
:1094C000337011E0FFF79CFDC01B0228E8D9236828
:1094D0009B68002BE4DA1223A26B01209A43023B23
:1094E0001343A36300233370F8BD2023A26B012034
:1094F0001343A363E3E7C046FDFEFFFFF8B5041E78
:1095000062D0451CEB7F002B01D1FFF73BFA01270E
:10951000226813683B431360FFF772FD060023685F
:109520005A683A4244D002271A68BA431A60FFF7D1
:1095300067FD060023685A683A4247D1217E80229F
:10954000012949D119680A431A60617E4022012924
:1095500046D119680A431A60A17E2022012943D10D
:1095600019680A431A60E17E1022012940D1196866
:1095700091431960217F082201293DD119680A43CE
:109580001A60617F042201293AD119680A431A60DE
:10959000E168A26800200A4321690A4361690A431D
:1095A000616801390A43DA6101236062EB770CE0FC
:1095B000FFF726FD801B0A28B1D98023626A9B022F
:1095C000134363620523EB770120F8BDFFF718FD15
:1095D000801B0A28AED9F0E7196891431960B4E7F7
:1095E000196891431960B7E7196891431960BAE7A0
:1095F00019680A431A60BDE7196891431960C0E70A
:10960000196891431960C3E770B5421CD27F0368A3
:10961000013A012A64D880240120A4001A5987261F
:1096200002431A514A69E23CFF3C1440A040B60094
:109630009C59C54384439C51CC69002C35D1103EC4
:109640009C59D2002C409C51CC684E682404B6B280
:10965000344390269A18B60094518C680E682404FE
:10966000B6B234439126B600945181228C6992009F
:10967000002C2FD19C582C409C5085220C699200C4
:10968000002C2AD19C582C409C500A6A012A04D1F3
:10969000872189005A5802435A50802101208900AD
:1096A0005A58824300205A5070BD012CDDD18326C8
:1096B000B6009C59D20004439C510C684E682404A7
:1096C000B6B2344390269A18B60094518C68CE688E
:1096D0002404C5E79C580443CEE79C580443D3E7D1
:1096E0008023426ADB02134343620120DCE7F8B5C2
:1096F000471CFB7F0400DDB2012B1ED10133FB7739
:1097000002681368AB431360FFF77AFC0600236816
:109710005B68180028402B4201D16062F8BDFFF75A
:109720006FFC801B0A28F2D98023626A9B021343D4
:1097300063620523FB770120F0E78023426A1B0365
:1097400013434362F7E7F0B5441CE67F0568013E2A
:10975000AC68012E50D8E0267605344245D0A001F1
:109760000124800F84401C6004008F68CE68183488
:10977000002F35D10B685B05334324016351C223AD
:109780000E6900012C185B00E650097D012903D108
:10979000E658FF313143E1505179137909021943F9
:1097A00093791B040B43D179090619432B18180030
:1097B0008D30FF30016050781178000208439178B5
:1097C000D27809040143120689330A43FF331A6031
:1097D000C022012300205200A1580B43A350F0BD2A
:1097E0004B683743DB003B43C7E78023426A9B0358
:1097F000134343620120F2E78023426ADB02F7E76A
:10980000F7B5441C0191E47F013C012C00D97AE0BA
:1098100003240568002909D1EE68264208D1802377
:10982000426A9B03134343620120FEBD2E69F4E7A5
:10983000D826019976000C0104212C19A7590F4054
:10984000976058D1A7597F0D17600227A6593E404F
:10985000D6600826B337FF37E159314202D10F21D4
:10986000E6590E401661E659E459360A240CF6B260
:1098700054619661019A01991201AD18B935FF350D
:109880002C681C700468A418B934FF342468240AB6
:109890005C700468A418B934FF342468240C9C70EC
:1098A0000468A418B934FF342468240EDC700468FA
:1098B000A418BD34FF3424681C710468A418BD3496
:1098C000FF342468240A5C710468A418BD34FF3492
:1098D0002468240C9C710468A218BD32FF321268FF
:1098E000120EDA7102682023002908D1D1680B43D7
:1098F000D360002099E7A759FF085760A5E71169D1
:109900000B431361F5E78023426ADB028AE7421CBE
:10991000D27F0B00013A012A05D802680020516964
:109920001943516170478023426ADB02134343624B
:109930000120F7E7704770477047704770477047DE
:1099400070477047704770477047F0B5036885B03F
:109950005E695A689F680192DA68340002921A6957
:10996000050003929A69009201221440164220D009
:10997000174205D09A60BB0700D4AAE0FDF7B0FEFD
:10998000002480235B001F4207D02A689360BB0538
:1099900000D4ABE02800FFF7CDFF80235B021F421D
:1099A00007D02A689360BA0300D4AEE02800FFF71E
:1099B000C2FF330708D51023029A1A4204D080222E
:1099C000920014432A68D360730708D50823029ACB
:1099D0001A4204D02A682800D360FFF7B0FFB3070B
:1099E00006D52B68DB689B0702D02800FDF768FED0
:1099F000730608D51023039A1A4204D08022D2009D
:109A000014432A681361B30608D50823039A1A423F
:109A100004D02A6828001361FFF793FFF30606D5E8
:109A20002B681B699B0702D02800FFF789FFB3034F
:109A300008D51023019A1A4204D02A6828005360DE
:109A4000FFF780FFF30308D50823019A1A4204D0D8
:109A50002A6828005360FFF776FF33042FD5019B57
:109A60002A685B0729D5F30504D50123009919421B
:109A700000D01C43B30504D502230099194200D03D
:109A80001C43730504D504230099194200D01C43DC
:109A9000360512D57021009B00980B4008420CD06F
:109AA000402B46D03DD8202B45D0302B45D0102B15
:109AB0003ED0702193698B43936104235360002C43
:109AC00005D06B6A280023436B62FFF73DFF05B0AA
:109AD000F0BD7B0704D43B0705D4FFF72DFF4FE70C
:109AE000802424014DE7802464014AE77B0503D5E7
:109AF00080239B011C4350E73B0502D58023DB01FB
:109B0000F8E72800FFF719FF47E77A0303D580231A
:109B10001B021C434DE73F03FBD42800FFF70EFF59
:109B200047E7502B0BD0602BC3D180235B0000E0B4
:109B300008231C43BDE71023FBE72023F9E780231C
:109B4000F7E7000010B5FF2403220B0021000240BC
:109B5000D20091409B012340C943934000280ADB77
:109B6000C0240B4A800880008018A40002590A40D3
:109B70001343035110BD0F2210400838054A8008D6
:109B800080008018C26911401943C161F2E7C046E4
:109B900000E100E000ED00E0002805DB1F23184095
:109BA0001E3B8340014A13607047C04600E100E05D
:109BB000BFF34F8F034B044ADA60BFF34F8FC046A9
:109BC000FDE7C04600ED00E00400FA0570B50400B2
:109BD0000120002C24D00223A51CEB772068114B18
:109BE0000268A1681A4063680B43E1680B4321696E
:109BF0000B4361690B43A1690B43E1690B431343B9
:109C00000360094B1421C018FAF79AFE074B800035
:109C10002064E36300200123A063E418EB77E0777E
:109C200070BDC0460FC0FFFFF8FFFDBF000002403F
:109C3000F7B5441C0193E57F012D33D00125871C26
:109C4000E577FD7F0026AC466346EDB2012B28D1B7
:109C50000224FC77046886632668076CAE43BD4027
:109C60002660019BC66B756063604368102B0ED144
:109C7000A260E160C36A2268002B0BD00E2313435D
:109C8000236001230020226813432360FEBDA160EE
:109C9000E260EFE70A23134304222360236893431F
:109CA000EEE7E6770220F1E70C4A1021D06830B5E4
:109CB00003000B40084205D002230948C46923432E
:109CC000C3610B000420D168014205D00121044C7E
:109CD0000343E5692943E161D36030BD00200240C0
:109CE000E80A0020064B00201A69120606D5054A2C
:109CF0005A60054A5A6018690006C00F7047C0468E
:109D00000020024023016745AB89EFCD8023034A41
:109D1000002011690B4313617047C04600200240C8
:109D2000074B8022196910B50C00920001201440E5
:109D3000114204D12000034A9A60034A9A6010BD80
:109D40000020024023016745AB89EFCD034A044957
:109D5000136900200B4013617047C0460020024089
:109D6000FFFDFFFF70B50400FFF74AF9012605006B
:109D7000104BDA68324211D12022D968114200D04A
:109D8000DA60D968102208001040114202D1DB6865
:109D90005B0708D5FFF788FF012004E0621CE8D0CC
:109DA000002C01D1032070BDFFF72AF9401BA0420F
:109DB000DED9F7E700200240F0B585B003931E4BD3
:109DC000009102921A7E04000220012A31D0012261
:109DD0001A481A76FFF7C6FF002827D12600012C63
:109DE00003D00426022C00D126000024124B01933C
:109DF000029803992201FAF719FF00220127019B1B
:109E00000F4DDA612B69009A3B432B6163009B186D
:109E100080B218800948FFF7A5FF2B69BB432B616F
:109E2000002803D1E419E3B29E42E1D80022024B9C
:109E30001A7605B0F0BDC046E80A002050C3000005
:109E4000002002408023054A10B511699B010B4395
:109E500003481361FFF786FF10BDC0460020024093
:109E600050C300000022064BDA61064B0432196928
:109E70000A431A61402219690A431A617047C046B1
:109E8000E80A00200020024070B506001248FFF7E3
:109E900069FF00281ED12025104B114CD861236981
:109EA0000D482B4323614023226913432361FFF7AD
:109EB00059FF2369AB43236100280BD12369103D6F
:109EC0002B432361074B04481E80FFF74BFF236998
:109ED000AB43236170BDC04650C30000E80A0020B8
:109EE0000020024000F8FF1F062270B5114CAA2581
:109EF000E369134203D011355B0700D511350E48D5
:109F0000FFF730FF002814D120260C4BD8612369BD
:109F10000948334323614023226913432361FFF738
:109F200021FF2369B3432361002802D1E8B2FFF780
:109F3000ABFF70BD0020024050C30000E80A0020C3
:109F4000F7B5564E0400337E0220012B65D0013850
:109F500030762368034261D06368A568504F83421E
:109F60003BD13B6A4F480193FFF7FCFE002852D1DA
:109F7000F061FFF7B9FF00284DD1019BAB431D00F5
:109F8000D9B210233A6913433B61FF2934D12B0A1C
:109F9000DBB2FF2B08D0444942484A8913404B8129
:109FA000FFF7E0FE002830D12B0CDBB2FF2B08D0EE
:109FB0003D493C488A8913408B81FFF7D3FE002836
:109FC00023D100202D0EFF2D1FD0374B3548DA89C5
:109FD0001540DD81FFF7C6FE17E03B6A314801936B
:109FE000FFF7C0FE002816D1F061FFF77DFF0028C3
:109FF00011D1019B2B43C2E72B4A2A4813890B40FE
:10A000001381FFF7AFFE0028C1D010223B699343B4
:10A010003B61002802D000233376FEBD23689B07F6
:10A0200004D5207BFFF730FF0028F4D123685B07BD
:10A030001AD5637B1B480193FFF794FE0028EAD1F1
:10A040001027174DF0612B69019A3B432B61882340
:10A050001A431300144A13485380FFF783FE2B69F9
:10A06000BB432B610028D6D123681B07D3D52369B6
:10A070000C480193277DFFF775FE0028CBD11025F2
:10A08000074CF061236907482B432361019B1F8024
:10A09000FFF768FE2369AB432361BCE7E80A0020B1
:10A0A0000020024050C3000000F8FF1F072310B536
:10A0B00006240360084B1A6A8260D969AA222142E9
:10A0C00003D01132490700D5113202737722DB69C0
:10A0D0001B0A1340437310BD002002400022064BB0
:10A0E000DA61064B023219690A431A61402258614B
:10A0F00019690A431A617047E80A002000200240EB
:10A10000F8B5214F04003B7E0E000220012B0CD03D
:10A1100001233B7623681D48012B12D1FFF722FE55
:10A12000002803D0012000233B76F8BDFFF79AFEFC
:10A130001648FFF717FE0421154A13698B43136174
:10A14000F1E7FFF70FFE0028ECD101235B423360FB
:10A1500065680130A3686268DB029B18AB42E2D9F4
:10A160002800FFF7BBFF0948FFF7FCFD0221084A62
:10A1700013698B431361002801D03560D3E7802336
:10A180001B01ED18E6E7C046E80A002050C30000B6
:10A19000002002400023F0B587B00A681400DC40BC
:10A1A00001D107B0F0BD012514009D402C40009462
:10A1B0002A4200D19CE04A685F009446032264462C
:10A1C00022400324BC40E4430194541E012C2ED8A9
:10A1D0008668019C2640CC68BC4034438460446857
:10A1E0000126AC4325006446240934409C402C439E
:10A1F0004460C568019C25408C68BC402C43C46009
:10A20000022A16D107250F261D40AD00AE40DC08FE
:10A21000A40004190294246A03962600039CA64312
:10A2200034000E69AE402643029C266201E0032AF8
:10A23000DFD1BA400468019D25402A43C024026052
:10A240006246A402224253D001252A4A90279469EB
:10A25000FF052C43946192699C082A400592059A57
:10A26000254AA400A4180F2202351D40AD00AA40C3
:10A27000A66896430022B84210D0204F0132B8425F
:10A280000CD01F4F0132B84208D01E4F0132B842E5
:10A2900004D01D4A8218571EBA410432AA406746AC
:10A2A0003243A260194A009C9668009DE4433543FE
:10A2B000FF0201D43500254067469560D668009DB1
:10A2C0003543BF0201D4350025406746D560566846
:10A2D000009D3543BF0301D43500254067465560D6
