:020000040800F2
:1000000000400020B5030008910300089303000896
:1000100000000000000000000000000000000000E0
:100020000000000000000000000000009503000830
:10003000000000000000000097030008990300087A
:10004000050400080504000805040008050400086C
:10005000050400080504000805040008050400085C
:10006000050400080504000805040008050400084C
:10007000050400080504000805040008050400083C
:10008000050400080504000805040008050400082C
:10009000050400080504000805040008050400081C
:1000A000050400080504000805040008050400080C
:1000B000050400080504000805040008A103000861
:1000C00010B5064C2378002B07D1054B002B02D02E
:1000D000044800E000BF0123237010BD90030020FE
:1000E000000000009C3A0008044B10B5002B03D020
:1000F0000349044800E000BF10BDC04600000000F6
:10010000940300209C3A00080023C25C0133002ABB
:10011000FBD1581E7047000002B4714649084900DF
:10012000095649008E4402BC7047C04602B471466D
:1001300049084900095C49008E4402BC7047C0462A
:1001400003B47146490840004900095E49008E44E5
:1001500003BC7047002243088B4274D303098B42CF
:100160005FD3030A8B4244D3030B8B4228D3030C87
:100170008B420DD3FF22090212BA030C8B4202D329
:100180001212090265D0030B8B4219D300E0090A51
:10019000C30B8B4201D3CB03C01A5241830B8B425A
:1001A00001D38B03C01A5241430B8B4201D34B0343
:1001B000C01A5241030B8B4201D30B03C01A5241A8
:1001C000C30A8B4201D3CB02C01A5241830A8B422D
:1001D00001D38B02C01A5241430A8B4201D34B0216
:1001E000C01A5241030A8B4201D30B02C01A52417A
:1001F000CDD2C3098B4201D3CB01C01A524183092E
:100200008B4201D38B01C01A524143098B4201D367
:100210004B01C01A524103098B4201D30B01C01A92
:100220005241C3088B4201D3CB00C01A524183080C
:100230008B4201D38B00C01A524143088B4201D339
:100240004B00C01A5241411A00D201465241104699
:100250007047FFE701B5002000F006F802BDC04678
:100260000029F7D076E770477047C046D0400B00B2
:10027000D1409C46203AD3401843524263469340B3
:100280001843704701221A4910B50B689343134372
:100290000B600B681342FCD08023164C5B02626B30
:1002A0001343636380239B02626B1A42FCD0F022EB
:1002B00063689343636063680F4A1340032263607B
:1002C0006368134363600932636813400C2BFBD1EE
:1002D0000A4802F0FFF8032000F0A8F8002801D037
:1002E00072B6FEE78022236B9343236310BDC046A2
:1002F0000020024000100240FFF8FFFF006CDC020B
:1003000000B589B000F0B6F8FFF7BCFF00228020EE
:10031000104B0792596980020143596159690140A4
:100320008020019101995969C002014359615B69BB
:1003300002A903400093009B202307488362029395
:100340001F3B039304920592069201F0E3FB02F037
:100350005BFAFEE7001002400004004872B6FEE7B8
:1003600001210A4B82B09A690A439A619A690A404C
:1003700080210092009ADA6949050A43DA61DB6953
:100380000B400193019B02B07047C0460010024031
:10039000FEE7FEE77047704710B500F07BF810BD30
:1003A00010B5024800F058FD10BDC046A41600204C
:1003B000704700000D4885460D480E490E4A00233F
:1003C00002E0D458C4500433C4188C42F9D30B4A09
:1003D0000B4C002301E013600432A242FBD3FFF771
:1003E000E7FF03F037FBFFF78BFFFEE7004000203D
:1003F000000200208C030020003B00089003002036
:1004000080190020FEE77047012210B50024064B3A
:1004100052421A611C61DA60DC609A629C62FFF7EA
:10042000F2FF200010BDC0460010024070B505006C
:10043000FA200D4B80001978FFF78CFE0B4C010061
:100440002068FFF787FE00F09DF804000120002CD3
:1004500009D1032D07D802382200290000F03EF808
:100460002000034B1D6070BD04020020000200202C
:10047000080200201023064A10B5116803200B4320
:100480001360FFF7D3FFFFF76BFF002010BDC046DE
:1004900000200240034A044B11681B785B1813606C
:1004A0007047C046AC03002004020020014B1868CE
:1004B0007047C046AC03002070B50400FFF7F6FF9C
:1004C0000500631C02D0044B1B78E418FFF7EEFF15
:1004D000401BA042FAD370BD0402002010B5FF24D7
:1004E00003220B0021000240D20091409B012340D7
:1004F000C943934000280ADBC0240B4A80088000CF
:100500008018A40002590A401343035110BD0F2262
:1005100010400838054A800880008018C2691140E0
:100520001943C161F2E7C04600E100E000ED00E0E0
:10053000002805DB1F2318401E3B8340014A13603F
:100540007047C04600E100E0002809DB1F23184087
:100550001E3B8340034AD367BFF34F8FBFF36F8FB8
:100560007047C04604E100E0BFF34F8F034B044ADD
:10057000DA60BFF34F8FC046FDE7C04600ED00E0F4
:100580000400FA058022431E5204012093420DD23A
:10059000C021074A07485360036A09061B021B0A69
:1005A0000B43036200200723906013607047C0462E
:1005B00010E000E000ED00E00C4A1021D06830B5FA
:1005C00003000B40084205D002230948C4692343B5
:1005D000C3610B000420D168014205D00121044C05
:1005E0000343E5692943E161D36030BD0020024047
:1005F000B0030020064B00201A69120606D5054AF2
:100600005A60054A5A6018690006C00F7047C04614
:100610000020024023016745AB89EFCD8023034AC8
:10062000002011690B4313617047C046002002404F
:10063000074B8022196910B50C009200012014406C
:10064000114204D12000034A9A60034A9A6010BD07
:100650000020024023016745AB89EFCD034A0449DE
:10066000136900200B4013617047C0460020024010
:10067000FFFDFFFF70B50400FFF718FF012605001E
:10068000104BDA68324211D12022D968114200D0D1
:10069000DA60D968102208001040114202D1DB68EC
:1006A0005B0708D5FFF788FF012004E0621CE8D053
:1006B000002C01D1032070BDFFF7F8FE401BA042C3
:1006C000DED9F7E700200240F0B585B003931E4B5A
:1006D000009102921A7E04000220012A31D00122E8
:1006E0001A481A76FFF7C6FF002827D12600012CEA
:1006F00003D00426022C00D126000024124B0193C3
:10070000029803992201FFF7B1FD00220127019B06
:100710000F4DDA612B69009A3B432B6163009B18F4
:1007200080B218800948FFF7A5FF2B69BB432B61F6
:10073000002803D1E419E3B29E42E1D80022024B23
:100740001A7605B0F0BDC046B003002050C30000CB
:10075000002002408023054A10B511699B010B431C
:1007600003481361FFF786FF10BDC046002002401A
:1007700050C300000022064BDA61064B04321969AF
:100780000A431A61402219690A431A617047C04638
:10079000B00300200020024070B506001248FFF7A9
:1007A00069FF00281ED12025104B114CD861236908
:1007B0000D482B4323614023226913432361FFF734
:1007C00059FF2369AB43236100280BD12369103DF6
:1007D0002B432361074B04481E80FFF74BFF23691F
:1007E000AB43236170BDC04650C30000B00300207E
:1007F0000020024000F8FF1F062270B5114CAA2508
:10080000E369134203D011355B0700D511350E485B
:10081000FFF730FF002814D120260C4BD861236944
:100820000948334323614023226913432361FFF7BF
:1008300021FF2369B3432361002802D1E8B2FFF707
:10084000ABFF70BD0020024050C30000B003002089
:10085000F7B5564E0400337E0220012B65D00138D7
:1008600030762368034261D06368A568504F8342A5
:100870003BD13B6A4F480193FFF7FCFE002852D161
:10088000F061FFF7B9FF00284DD1019BAB431D007C
:10089000D9B210233A6913433B61FF2934D12B0AA3
:1008A000DBB2FF2B08D0444942484A8913404B81B0
:1008B000FFF7E0FE002830D12B0CDBB2FF2B08D075
:1008C0003D493C488A8913408B81FFF7D3FE0028BD
:1008D00023D100202D0EFF2D1FD0374B3548DA894C
:1008E0001540DD81FFF7C6FE17E03B6A31480193F2
:1008F000FFF7C0FE002816D1F061FFF77DFF00284A
:1009000011D1019B2B43C2E72B4A2A4813890B4084
:100910001381FFF7AFFE0028C1D010223B6993433B
:100920003B61002802D000233376FEBD23689B077D
:1009300004D5207BFFF730FF0028F4D123685B0744
:100940001AD5637B1B480193FFF794FE0028EAD178
:100950001027174DF0612B69019A3B432B618823C7
:100960001A431300144A13485380FFF783FE2B6980
:10097000BB432B610028D6D123681B07D3D523693D
:100980000C480193277DFFF775FE0028CBD1102579
:10099000074CF061236907482B432361019B1F80AB
:1009A000FFF768FE2369AB432361BCE7B003002077
:1009B0000020024050C3000000F8FF1F072310B5BD
:1009C00006240360084B1A6A8260D969AA22214270
:1009D00003D01132490700D5113202737722DB6947
:1009E0001B0A1340437310BD002002400022064B37
:1009F000DA61064B023219690A431A6140225861D2
:100A000019690A431A617047B003002000200240B0
:100A1000F8B5214F04003B7E0E000220012B0CD0C4
:100A200001233B7623681D48012B12D1FFF722FEDC
:100A3000002803D0012000233B76F8BDFFF79AFE83
:100A40001648FFF717FE0421154A13698B431361FB
:100A5000F1E7FFF70FFE0028ECD101235B42336082
:100A600065680130A3686268DB029B18AB42E2D97B
:100A70002800FFF7BBFF0948FFF7FCFD0221084AE9
:100A800013698B431361002801D03560D3E78023BD
:100A90001B01ED18E6E7C046B003002050C300007C
:100AA000002002400023F0B587B00A681400DC4043
:100AB00001D107B0F0BD012514009D402C400094E9
:100AC0002A4200D19CE04A685F00944603226446B3
:100AD00022400324BC40E4430194541E012C2ED830
:100AE0008668019C2640CC68BC40344384604468DE
:100AF0000126AC4325006446240934409C402C4325
:100B00004460C568019C25408C68BC402C43C4608F
:100B1000022A16D107250F261D40AD00AE40DC0885
:100B2000A40004190294246A03962600039CA64399
:100B300034000E69AE402643029C266201E0032A7F
:100B4000DFD1BA400468019D25402A43C0240260D9
:100B50006246A402224253D001252A4A9027946972
:100B6000FF052C43946192699C082A400592059ADE
:100B7000254AA400A4180F2202351D40AD00AA404A
:100B8000A66896430022B84210D0204F0132B842E6
:100B90000CD01F4F0132B84208D01E4F0132B8426C
:100BA00004D01D4A8218571EBA410432AA40674633
:100BB0003243A260194A009C9668009DE443354385
:100BC000FF0201D43500254067469560D668009D38
:100BD0003543BF0201D4350025406746D5605668CD
:100BE000009D3543BF0301D435002540674655605D
:100BF0001568009E2E43FF0301D425402E00166089
:100C0000013352E700100240000001400004004898
:100C100000080048000C004800F0FFB70004014045
:100C2000F0B500220F0085B03B00D34001D105B0E4
:100C3000F0BD012393401C0001933C401F4255D05E
:100C40002B4B032591088900C9180F231540AD00CF
:100C5000AB408E6802931E40039690260023F60553
:100C6000B04213D0234B9C46012360450ED0224B4B
:100C70009C460223604509D0204B9C4603236045D7
:100C800004D01F4BC3185E1EB3410433AB40039D19
:100C9000AB4210D11B4B1D68A5431D605D68A54389
:100CA0005D60DD68A543DD609D68A5439D608B6840
:100CB000029CA3438B60032451008C4007210F2624
:100CC000114089008E4003680199A3430360D30853
:100CD0009B00C3181D6AB5431D62C368A343C3606C
:100CE00043688B4343608368A343836001329BE77F
:100CF000000001400004004800080048000C0048C3
:100D000000F0FFB700040140002A01D08161704764
:100D10008162FCE7426913000B401B0491430B43C3
:100D20008361704770B504000120002C2BD0224D48
:100D3000635DDAB2002B05D1A4239B002000E254AE
:100D400002F034FD03236355206800F03FFF0023C9
:100D500022001900012620791032984214D1002176
:100D6000220008005132FF328B4217D16168A2681D
:100D7000206800F035FF0023237301336355A37A05
:100D8000012B15D0002070BD137001335670D17047
:100D9000116151619161DBB22832DEE711700131DE
:100DA0005070D070106150619061C9B22832DBE799
:100DB000200000F038FEE5E79102000070B5041E47
:100DC00002D10125280070BD0323064E835500681B
:100DD00001F0FAF8051EF4D1200002F003FDA5553C
:100DE000F0E7C0469102000070B5A425AD00435D58
:100DF00004000220012B09D001236355206800F074
:100E0000DBFE206801F0F0F80020605570BD70B581
:100E1000A425AD00435D04000220012B09D001236D
:100E20006355206800F0D2FE206801F0E5F800204C
:100E3000605570BD70B5A425AD00435D040002206F
:100E4000012B07D0012363552068217301F0C5F8F9
:100E50000020605570BD0000F0B5040085B000684A
:100E600001F0D1F8802305001B021D40184201D17A
:100E700000F027FC2068821DD38F1BB2002B01DB02
:100E800005B0F0BD0F21D38F194000910F219AB208
:100E90000B4200D0C0E01023110019401A4227D1A4
:100EA0000388CA4A134080221202134303800300BE
:100EB00050331A88237CDB00C3189B18C44A2000D7
:100EC0009B181B88626A9B059B0DE362D3186362C3
:100ED00002F0B1FC237B002BCCD0A16A236800294F
:100EE000C8D18020227B4C3302431A802173C1E792
:100EF000028880211600090193B20E400A4222D0D6
:100F0000030050331A88A8235B00E35CA621DB00B2
:100F1000C3189B18AF4A89009B1822001B885132C6
:100F20009B059B0DFF32D3616118D28801F0B6FAA0
:100F30002168A94B0A8820001A40802313430B80A4
:100F400002F064FC96E71BB2002B00DB92E70288FC
:100F5000A14B25001A408023134303800300503324
:100F60001A88A8235B00E35C5135DB00C3189B188B
:100F7000984AFF359B181B889B059B0DEB610DD094
:100F8000696900290AD0EA8801F088FA6B69EA6980
:100F900031009B1820006B6102F041FC21680A8837
:100FA00093B2120500D565E7C02292011340934227
:100FB00000D15FE70B00874A50331B888A18D2188C
:100FC00013889B059B0D13802B69002B0ED180206D
:100FD00013880002034313800A88804B1A40C02301
:100FE0009B0153407E4A13430B8043E73E2B08D8B6
:100FF000012558082B40C0181388800203439BB278
:10100000E9E71F2558092B405D426B41C01A138840
:1010100080021843734BF1E7009B9F00C2191388AD
:1010200099B21BB20191002B00DB92E013886A4950
:101030000B4080210B4313802823009A5343E3186D
:101040001A001D005D32FF3212785135FF35002A3B
:1010500014D10200503211882A78D20052185D490A
:101060001218521812889205950D002A56D01A00AF
:101070005732FF32FC33190012884BE0190054310B
:10108000FF3109782A78022900D0E3E08026F601B2
:10109000B4466546019EFC332E400396060050364A
:1010A00002966646019DD96E354200D1A0E0029DB0
:1010B0002E88D5007619464D361876193588AD0537
:1010C000AD0D8D420DD90021D966910041180E88D1
:1010D000424B1E4080239B017340414E33430B80A3
:1010E00002E0491BD966F0D0019B5B0607D5920050
:1010F000821813883C490B403C490B431380002D58
:101100000CD02823009A5343E1180A005932FF32C9
:101110001288FC312B00896E01F0C0F92823009958
:1011200059436218FC32106F40191067906E4019D5
:101130009066D06E002803D0526E954200D3B3E083
:10114000009A20005343E3185133FF33197802F01B
:1011500066FB8022019B2068134200D18AE6C219F7
:1011600013881A49009E0B401E490B439BB2138003
:1011700028225643A319D97C012900D0C7E0009941
:1011800001314A43002111511A7F8A4200D19EE069
:101190004022019D019E1540164200D1A0E05A7CDC
:1011A0008A4200D087E00200503211881A7C084B36
:1011B000D200C0184118521813880A499B059B0D8C
:1011C000138013880B439BB2138080E00F8FFFFFC7
:1011D00002040000060400008F0F00008FBFFFFF15
:1011E000808000000080FFFF8F8FFFFFC080000025
:1011F000029D2E88D5007619C74D36187619358888
:10120000AD05AD0D8D420DD90399D96691004118F8
:101210000E88C24B1E4080239B017340C04E334357
:101220000B8002E0491BD966F0D0019B5B0607D416
:10123000920082181388BB490B40BB490B431380B3
:10124000002D00D16AE72823009A5343E1180A00D1
:101250005B325CE7920082181688B2493140B24E88
:10126000314311802A78910041180D8801005031D6
:101270000988D200521812186D040AD5AB495218C9
:1012800012889205950D002A00D147E71A005932BD
:10129000EFE6A149521812889205950D002A00D157
:1012A0003CE71A005B32E4E65131FF3120686118F7
:1012B00000F0C2FE4DE7012A09D102009B4D5032D9
:1012C00012881B7C4019DB0080181B18198028230A
:1012D000009A5343E318197C200002F0ACFAC9E5E8
:1012E0005A7C002A06D10200503211881A7C8A4B9F
:1012F000D2005EE7012AEAD1020087495032128803
:101300001B7C4018DB0080181B181D80DFE780273E
:1013100001997F0039401A7C8C46019902929D6A9E
:10132000D20039421CD1070050373F88BF187F4A8E
:101330003F18BF183A889205920DAA4203D362461D
:1013400002999A62C8E7596AAD1A89185962D96A2E
:1013500010368A189D62DA62A11900F06DFE89E5E7
:1013600040218C46019F06000F4003976746019974
:101370005036394200D1DFE06C49378846180021E9
:10138000F719BF5A8C46BF05BF0DAF4201D2E91B0A
:101390008C466146802599620199ED0129400D0036
:1013A0006146002947D1282300994B43E3185B7C11
:1013B000002B30D1070050373B885D49F3189B184C
:1013C0001E88B605B60D1E801E880E43B6B21E805E
:1013D000514E3B888019C018801803889B059B0DCF
:1013E000038003880B439BB203802000029902F024
:1013F00022FA002D00D1DCE02823009A494953430A
:10140000E3181B7C22689B00D21813880B404949C3
:101410000B431380CDE0012BE7D107006146503725
:101420003B88F3189B1819803B493B884018C0182B
:1014300080186346D8E7002D0CD002998900411826
:101440000D880191AC466146364D0D4039490D433A
:1014500001990D80282500994D4334218C4665194A
:10146000AC4461460978012900D0A2E0696AC91933
:1014700069620191D96AC919D9622B6B296A8B42B9
:1014800017D35B1A2B632823009D6B43E3185D7C05
:101490008BB2002D37D1050050352D887519AA184B
:1014A0001588AD05AD0D158000290ED11188204D90
:1014B00013E0002B03D161460B703900E3E70021F4
:1014C0006746397029631900DDE73E2911D80126E6
:1014D0004D080E40AD191188AD02294389B2118023
:1014E000282200994A43A218128B019900F08FFD1F
:1014F0005FE01F264D0931404E4271416D1A11883F
:10150000AD022943D3E7012DEAD10100503109880A
:101510007618B6183380E3E7060400008FBFFFFF9C
:10152000808000008F8FFFFFC08000000204000059
:101530000080FFFF80C00000AC4936888C468444A0
:101540006644B65A039FB605B60DAE4200D8AF1B2F
:1015500080250199ED0129400D009F62002F49D19E
:10156000282300994B43E3185B7C002B33D1030005
:101570009F4950331E8840188019801806889D495D
:10158000B605B60D068006880E43B6B206801B88E7
:1015900063449B181A889205920D1A801A880A4390
:1015A00092B21A802000029902F045F9002D00D174
:1015B00022E72823009A5343E3181B7C22689B00F0
:1015C000D21811888C4B194030234B408B490B4368
:1015D0001380FFF74FFC012BE4D103008449503303
:1015E0001E8840188019801807801B8863449B1848
:1015F0001F80D7E7002908D10299814D8900411841
:101600000F883D407F4F3D430D80282700994F4371
:10161000E71939003431019109780129C9D1796A72
:1016200089197962DD6AAD19DD623B6B3D6AAB42B7
:1016300017D35B1B3B632823009E7343E3185E7C38
:10164000ABB2002E34D10600503636886644B2184C
:101650001688B605B60D1680002D0ED11588654E7C
:1016600013E0002B03D1019D2B703500E3E700252B
:10167000019E3D6335701D00DDE73E2D0ED801272C
:101680006E082F40F6191588B6023543ADB21580A5
:101690002822009D6A43A218528B27E71F276E0954
:1016A0003D406F427D41761B1588B6023543D6E733
:1016B000012EEDD1050050352D886544AA18138000
:1016C000E6E743050ED523684F490633DA8F20003D
:1016D0000A40DA8702F0C1F829002000FFF7AAFBD0
:1016E000FFF7CEFB430407D5236848490633DA8F5A
:1016F0000A40DA87FFF7C4FB802301009B011940F1
:10170000184204D0236842490633DA8FF0E7C30455
:101710001AD5042023680233DA8F8243DA87DA8FFE
:1017200000188243DA87B2239B00E25C012A03D1CE
:101730002000E15400F08BF9200002F0B1F823689A
:1017400034490633DA8FD3E7030513D5082123681C
:101750009A1CD08F06330143D187D98F2E48014080
:10176000D9870423D18F0B43D387200002F086F85A
:10177000FFF786FB8025284221D0B2202368800015
:10178000991DCA8FAA43CA87225C002AEDD1042181
:101790009A1CD58F54332943D1870821D58F2943EB
:1017A000D18701213C2221541B8820009B08134033
:1017B000B3229200A35000F04AF9FFF761FB8305C2
:1017C0000AD5236815490633DA8F20000A40DA87E4
:1017D00002F03CF8FFF754FBC00501D4FFF750FBC3
:1017E00023680F490633DA8F82E7C04606040000FB
:1017F000020400000080FFFFBF8FFFFF8080000019
:101800008F8FFFFF80C00000FFFBFFFFFFBFFFFFC8
:10181000FFDFFFFFFFEFFFFFFFF7FFFFFFFDFFFF12
:10182000FFFEFFFF70B5040007200D0008402821CF
:1018300041436DB26618002D18DA01251031611888
:10184000757408700A61CB70022B01D100230B71F3
:10185000A425AD00635D0220012B06D00123635552
:10186000206800F0CBF90020605570BD0025513193
:101870005236FF31FF3661183570E2E707220B0060
:101880000A40282151435BB270B504004018002B78
:1018900012DA0123103161184374A4250A70AD00D7
:1018A000635D0220012B06D001236355206800F000
:1018B000B5FA0020605570BD002351315230FF3120
:1018C000FF3061180370E8E7F8B5072421402134A0
:1018D0004C4306193700FC37FB66330000255233B2
:1018E00051365134FF33FF36FF343D67BA661D7001
:1018F00031700119006800F09FFB2800F8BD072334
:101900000B40282159434018FC30006F704770B5D8
:101910000724214021344C4306193500726201220C
:101920003435B3622A7000251034F56231743363A4
:1019300072740119006800F07FFB280070BD072257
:1019400070B5037904000A400120934219D348B2CC
:101950002823002816DA5343190001201031E31818
:10196000611858740123A4258B700A70AD00625D64
:1019700002209A4205D06355206800F0C9FA002081
:10198000605570BD4B4319000020E31851315233AC
:10199000FF31FF3361181870E4E70B000F2270B5B8
:1019A000017904001A40012091421BD3072228210B
:1019B0001A4051435BB26018002B14DA0123103136
:1019C000611843740025A4268D700A70B600A35DCB
:1019D0000220012B06D00123A355206800F0BAFA9B
:1019E0002800A55570BD002351315230FF31FF3022
:1019F00061180370E6E730B528240D060BD50725DE
:101A000029404C431034001999B2002A07D10273BF
:101A1000C180002030BD4C435134FF34F3E7012234
:101A200083600273F5E703680200B420012110B55A
:101A30008000B22411500020A400105554331A889D
:101A400011430222198019880A431A8010BD704779
:101A5000F8B5FEF72BFD812305000226254C2268F0
:101A600013432360236833422CD00C266368224A38
:101A700013406360636833422CD1204B204A1A60C4
:101A8000204B1868FEF7D2FC051E30D123681E4A91
:101A900080271340236023681C4ABF04134023603F
:101AA000FEF704FD0600226813003B403A4218D1BD
:101AB0006360E3622363A3608023626A5B04134371
:101AC000636205E0FEF7F2FC401B0228CAD9032539
:101AD0002800F8BDFEF7EAFC0D4B401B9842C9D91F
:101AE000F5E7FEF7E3FC801B0228DCD9EFE70125D0
:101AF000EEE7C046001002400CF8FFF000020020A4
:101B000000127A0008020020FFFFF6FEFFFFFBFF35
:101B100088130000F7B5030000220C680092200033
:101B2000009AD04000D1FEBD0120009A90402200D2
:101B30000240044231D04868032501901000504310
:101B40004543019EED43771E012F0BD88F689E6899
:101B500047432E4037439F605F68CE68A743744376
:101B600027435F600C69DF6844432F403C43DC60DF
:101B7000019C022C0BD14F69FF2A11D804000F26BB
:101B8000444366437C431A6AB24322431A62019C6F
:101B90001A6860432A4002431A60009A0132BCE787
:101BA0000F26120A52435243564357435C6AB443CA
:101BB0003C435C62EBE70000821D03000020D087FD
:101BC000014A0233DA87704780BFFFFF0230C38FBC
:101BD000024A1340C38700207047C0467F40000080
:101BE000821C03000121002082B0D187D0879A1D7A
:101BF0005033D087188002B070470000F7B50E78D8
:101C00007A4AB300C3181C88CF781440012205001B
:101C10000092032F08D83800FEF788FA02423F3CB2
:101C20008022920014430097714A1443A4B21C808E
:101C30001888704C20403043104380B21880F00068
:101C40008446087BAC4450350195002800D06BE0F9
:101C5000CD8848786D086D00002823D08020019938
:101C6000C0000988614409180D801988490604D507
:101C700019882140604C21431980604D012F00D10B
:101C8000AEE020211C882C4061400A4392B20098AB
:101C90001A80FEBDC022D200144300220092C3E786
:101CA0008022F8E7019809690788554867443F187A
:101CB00001983D800588534865442D182F88BF053D
:101CC000BF0D2F80002915D1802729883F02394375
:101CD00029801988490404D5198821404A4C214398
:101CE00019804A491C880C40C021002E00D0802158
:101CF0008901C9E73E2908D801204F0801407F1813
:101D00002988BF02394389B2E2E71F204F09014009
:101D10000800414241417F1A2988BF0239433C4FA4
:101D20000F43BFB22F80D4E71D88022F3AD1394E1E
:101D30002540354301981D80058880200E89654423
:101D4000C00076082D18760001982E8005884E89EF
:101D50002B48654476082D1876002E804978274E4A
:101D60008C4680216046294DC90100281FD11F885B
:101D70000F4204D01988244F214039431980198813
:101D8000490604D5198821401B4C21431980C021E4
:101D90001C8889012C406140114389B2198019883F
:101DA000314072E71C4E35401543ADB2C2E718888A
:101DB000084204D019881448214001431980198829
:101DC000490604D5198821400B4C21431980012F65
:101DD00009D020211C8834406140114389B2198008
:101DE0001988294051E719883140F6E78F89FFFFAC
:101DF0008080FFFF8F8FFFFFC0800000BF8FFFFF3D
:101E0000040400000604000080C000008FBFFFFF34
:101E10000080FFFF808100008F8EFFFFF0B50B7800
:101E20004A78097B9B00C018314B00291AD1002A3F
:101E30000CD00288520605D502882E490A402E4948
:101E40000A43028002882D490A402FE0028852048A
:101E500005D5028827490A4029490A430280028899
:101E60002849F1E78027234E244D2649FF01002A07
:101E700021D102883A4204D00288214C32402243C8
:101E800002800288204C520604D502883240224348
:101E900092B20280028832401443A4B204800288C5
:101EA0000A401A4392B2028002882A4013439BB22E
:101EB00003800020F0BD0288144C3A4204D002880E
:101EC0003240224392B202800288520604D5028830
:101ED000094F32403A430280028832401443A4B290
:101EE000048002882A401A4392B202800288ABE73B
:101EF0008080FFFF8F8FFFFFC0800000BF8FFFFF3C
:101F000080C000008FBFFFFFC080FFFF80C0FFFFC9
:101F10000B7849789B000C4AC018002909D0018829
:101F20000A4B194010234B4013439BB203800020FF
:101F300070470188064B194080235B014B401A43D0
:101F400092B20280F3E7C0468080FFFFBF8FFFFFA1
:101F50008FBFFFFF0B7B002B19D10B784A789B00BA
:101F6000C0180388002A14D05B0605D50388104AE0
:101F70001340104A13430380CB78012B07D00E4B3C
:101F800002881A40202353400C4A13430380002048
:101F900070475B0405D50388054A1340084A13437C
:101FA0000380084B02881A40C0239B01EBE7C04620
:101FB0008F8FFFFFC0800000BF8FFFFF8080000079
:101FC00080C000008FBFFFFF0123821CD387831DC9
:101FD0000020D8870323D3877047002902D18023AC
:101FE0004C30038000207047802258300388120252
:101FF0001343038000207047583003885B045B0C58
:102000000380002070470630C08F80B2704730B523
:1020100080240133E40012195B0880185B00CB18A0
:10202000401A0C188B4200D130BD4A780D7812024C
:102030002A4322800231F4E7F0B50C00497805000C
:10204000227B87B0012900D01BE12369A769029395
:102050009F4200D91F002B00503361690193002A71
:102060001DD1BFB23B00E2882800FFF7D0FF019BE3
:10207000BE4A19882378AA18DB0052189B181F80C3
:102080002378BB4A9B00EB181988114030224A4044
:10209000B8490A4392B21A80002007B0F0BD2278F6
:1020A000266A9300D2000392E078EB18022800D051
:1020B000D1E0029AB24200D3BBE01A88AE48F61BC8
:1020C0001040AE4A104318801B8840209C46624650
:1020D000024005926246CB1904932662BBB20242CB
:1020E00055D0019A12889446A54AA818039A6044CC
:1020F0008218138062892800FFF789FF049B029AE7
:1021000063610023B24201D2F31B3E006278236276
:10211000B3B2002A2ED1019A944910882278691806
:102120000918D200521811888905890D1180002ED6
:102130000AD180201188000201431180228904996C
:102140002800FFF764FF9BE73E2E08D801217008A6
:102150003140401811888002014389B2EDE71F2009
:102160003040710946427041091A108889020843BB
:102170008449F1E7012AE1D12A007C4950321088D4
:1021800022786918D200091852181380D6E7019AEC
:1021900012889446754AA818039A604482181380DE
:1021A00022892800FFF733FF049B029A6361059B95
:1021B000B24201D2F31B3E0062782362B3B2002A1E
:1021C0002AD1019A6E491088227869180918D2001C
:1021D000521811888905890D1180002E06D18020A2
:1021E00011880002014311806289A8E73E2E08D8B9
:1021F000012170083140401811888002014389B2E2
:10220000F1E71F2071090640704246411088891B82
:10221000890208435B49F1E7012AE5D12A005849C0
:102220005032108822786918D20009185218138089
:10223000DAE71888544F4F4A3840104380B218806C
:10224000019B039A1888494BEB181B189A18B3B2D4
:102250001380228974E71888F61B019A2662168873
:10226000BBB2400607D5464AA818039A80198218BF
:102270001380628964E73D4AA818039A801982187E
:10228000E6E7002A1CD1A36921698B4201D95A1AB9
:102290000B00A2612A003A4950321088227869184E
:1022A000D2000918521811888905890D1180002B58
:1022B00000D0D6E08021138809020B4313803DE053
:1022C000E378022B00D08CE0002924D10600274AB5
:1022D000503633882078AA18D218C00012181388F4
:1022E0009B059B0D13802369002B34D18027118817
:1022F0003F0239431180224A3188AA185218121815
:1023000011888905890D1180002B54D180211388F3
:1023100009020B431380E369002B0FD023781B497C
:102320009B00EB181A880A408A4201D0002A05D186
:102330001A8811490A4016490A431A8023789B00DB
:10234000ED182A88134B1A40C0239B015340124AB0
:1023500013432B80A0E63E2B20D801215F081940B3
:102360007F181188BF02394389B2C3E70204000015
:10237000BF8FFFFF8080FFFF8F8FFFFF80810000F6
:10238000060400000080FFFF8F8EFFFF404000002A
:10239000C08000008FBFFFFF808000001F271F400C
:1023A00039004F424F415909C91B178801918902D1
:1023B0000F433749D7E73E2B08D80120590803407F
:1023C000C918138889020B439BB2A3E71F20590940
:1023D000034058424341C91A1388890219432C4BC0
:1023E000F1E70120834200D057E6A369226900206B
:1023F000934201D9981A1300A06100299ED12E00A2
:10240000244A503631882078AA185218C000121871
:1024100011888905890D1180002B0AD18027118828
:102420003F02394311801C4A3188AA1852181218E9
:1024300039E73E2B08D801215F0819407F18118821
:10244000BF02394389B2EDE71F271F4039004F42D1
:102450004F415909C91B1788019189020F430C4943
:10246000EFE73E2B08D8012059080340C91813880C
:1024700089020B439BB221E71F20590903405842B0
:102480004341C91A138889021943014BF1E7C04639
:102490000080FFFF0204000006040000F0B5802564
:1024A0005C08ED00521926000D008018471AEA1941
:1024B000002E06D1DB0703D56400001903880B55F5
:1024C000F0BD1288013E92B22A70120A6A7002357B
:1024D000EDE70000014B18607047C0460002002085
:1024E000F0B587B006001422002101A801F0A9FA76
:1024F0008021C0259024134B89025A696D010A433B
:102500005A615B69E4050B40200029000093002715
:10251000009BFEF785FB0123200001A90293019592
:1025200003970497FEF7BEFA3A0029002000FEF751
:10253000EBFB3000FDF7C0FF29002000FEF770FB29
:1025400007B0F0BD0010024037B56B46A722DD1D75
:10255000094B920028709B5C032B0AD037BD013CCD
:10256000002CFBD00121280001F088F80028F6D1CA
:10257000F4E780246402F5E7C007002010B5037873
:10258000452B09D143784E2B06D183784B2B03D1B1
:10259000C37800204F2B05D02020FFF7D5FFFDF793
:1025A000E3FF012010BD000073B5114B0824009318
:1025B000002301250F4E01934118884201D1009854
:1025C00076BD009A0378534000932300009A2A4076
:1025D0000192009A52080092019A002A02D0009AB1
:1025E00072400092013B9BB2002BEFD10130E4E737
:1025F0000A14C9F8010000A037B505000C00FFF768
:10260000D3FF0190019B2A5905209A4203D11D3026
:10261000FFF79AFF06203EBD70B50F4B1A78032ACC
:1026200001D1013A1A700D4A0C6813681B19F32482
:10263000A400A3420DD9C0460AE01468C65C2C1958
:10264000E65401330C689C42F7D81168CB1813602C
:1026500070BD0023024DF5E718020020B8070020E6
:10266000E0030020F0B589B00C0005920090FDF762
:10267000C1FF244A1178CBB200290FD12248079319
:102680000360224B013143601523117007A9836059
:10269000FEF7BEF9FA204000FDF7ECFF0027A74245
:1026A00001D309B0F0BDFA204000FDF7E3FF059B20
:1026B000174A009D9E18FA202B78400001936B78F2
:1026C0000293AB780393EB780493FDF7D3FF114BA0
:1026D0009E420FD8039B0D491A04049B02201B063F
:1026E0001A43019B71181A43029B1B021A430023D1
:1026F000FDF7EAFF009B04350436EB1A9C42DAD85A
:102700001037CCE7B4070020D003002000400008B9
:1027100000C0FFF7FCAF0000002370B5064C074D6A
:1027200014198B4200D370BDE618AE4202D89E1831
:102730003668C6540433F4E700C0FFF7FCAF00006E
:1027400010B50320FFF700FF0C4C2068C0B2FFF764
:10275000FBFE2068000AC0B2FFF7F6FE2068000CFE
:10276000C0B2FFF7F1FE01CC000EFFF7EDFE044B07
:102770009C42EAD11120FFF7E7FE10BDC0FF000820
:102780000000010870B50400094800F031FB642026
:10279000FFF7A6FE6568236883F30888FDF734FE1B
:1027A000FFF756F90022034B1A60A847C04670BDD8
:1027B000C007002010E000E07FB56846FEF7FEF895
:1027C0006B461B7BBB2B0DD0FDF714FFFDF730FFD5
:1027D00002236A4600936846B9331373FEF738F84C
:1027E000FDF7B8FFFDF73AFFFDF718FF07B000BD92
:1027F000A722044B9200985C0338431E9841C0B254
:102800007047C046C0070020F0B585B0FFF7D4FF81
:10281000934B1B88002B00D0C0466420FFF760FE5E
:1028200000F0D4FE002220218E48FEF76DFA00232E
:1028300003228D4F3B708D4B1A70FDF737FE8C4B8A
:102840001860FDF733FE8A4C2368C01AFA239B00F8
:10285000984212D987498848FFF790FE0028E1D1B5
:10286000012220217F48FEF74FFA2520FFF76CFE5A
:102870008248FFF787FF05B0F0BDFFF7B9FF0028DA
:10288000DFD17A4D2B78042BE4D0FDF70FFE2060CA
:10289000FDF70CFE2368C01AFA239B00984208D863
:1028A0000620FFF751FE6420FDF706FE2B78022B71
:1028B000EED16E4B00931B78022BC2D13B78042BD8
:1028C0000FD92420FFF740FE0423009A1370B8E7C5
:1028D000FDF7ECFD664B1B68C01AFA239B0098427B
:1028E00005D8F322664B92001B689342F0D3132065
:1028F000FFF72AFE634B644E01931B683568DBB219
:102900009C46624B624C18680293624BEDB21968A8
:10291000C0B2CBB20393604B61461A786A401A701A
:102920005A784A405A709A78039942409A70DA78F5
:102930004A40DA700433A342EED1514D564C296817
:102940002000FFF759FE062803D11C30FFF7FCFDDD
:102950004EE02278032A33D1A37862781B02134316
:102960000C2B0ED02120424C012A00D12220FFF74F
:10297000EBFD3B780133DBB23B7000232B6023601F
:1029800097E7FDF737FEA379019A3360E379136087
:10299000237A029A1360627A3E4B1A6007223F4BF9
:1029A0001A70FFF7CDFE00232B600022344B1A6013
:1029B000FDF77CFD2E4B18601120FFF7C5FD78E771
:1029C000002A0FD10423009926480B702021FEF71E
:1029D0009BF9FDF723FEFFF7B3FEFA208000FDF719
:1029E0006BFD66E7012AE0D12C4B1B78072B06D044
:1029F0003B780133DBB23B7000232B6059E7A378AF
:102A000062781B021343043B22799BB20093E37864
:102A100012021A436379224E1B041343A279300039
:102A200012061A430099FFF71DFE2279E37812027D
:102A30001A43637930001B041343A27900991206EC
:102A40001A43FFF769FE20002968FFF7D5FD052826
:102A500001D022207AE720210248FEF75BF9A4E7A3
:102A6000FE3F000800040048AC07002018020020C8
:102A7000B0070020F8F70008FCEF0008004000084D
:102A8000B807002010020020140200200C020020D1
:102A9000AC070020DC030020E0030020B507002085
:102AA000E7030020AF239B00C35870B5002B0ED066
:102AB000AE22802592008458AD00605DFF2806D0CC
:102AC000044A9B682100A25C9847FF2363550020BD
:102AD00070BDC046010200004323038000487047D8
:102AE000600200204323038000487047A4020020B6
:102AF00043230380004870471C0200200A23038000
:102B0000004870472003002070B5AE26B6000400D0
:102B1000855900F089FF83239B00E850A3590220C8
:102B2000002B0AD0832381229B00E918B033E3589D
:102B30009200DB68A8589847002070BDF8B5AE2316
:102B40009B00C75804000E000220002F16D0142549
:102B50004D436519E8690833E35800280FD028224F
:102B60004A439B18196AFDF77BFB0A1E07D10B002D
:102B7000E9612000310000F045FF0020F8BD852309
:102B800000229B00FA50F8E7AE23F7B59B00C65829
:102B90006B466A460D00591D002304000B70D3805C
:102BA0002B78901D1F0060221740134226D0202F43
:102BB0003FD1EA886878002A19D05BB2002B0BDA83
:102BC000AF239B00E35831009B6898473100EA88A7
:102BD000200000F0B4FC08E080239B00F054184B68
:102BE00031002000F25400F0C0FC0020FEBDAF23F5
:102BF0009B00E35829009B689847F6E76B780A2BFF
:102C00000BD00B2B10D0002B13D1A7239B00E35C20
:102C1000032B0ED102220100DAE7A7239B00E35C1D
:102C2000032B06D10122D3E7A7239B00E35C032BF0
:102C3000DBD02000290000F05BFC0220D6E7C04674
:102C40000102000070B504000025812100F0A3FE00
:102C500001212000E56200F09EFE2300AE26FC3339
:102C60001D6782212000B60000F095FEA35925645F
:102C7000AB4208D0AF239B00E3585B689847A0594C
:102C800000F0DEFEA551002070BD70B5037C04008D
:102C9000002B3AD1802381219B00022200F06FFE9D
:102CA00001218023E1629B000222200000F067FEE8
:102CB00023000126FC33032282211E672000082303
:102CC00000F05DFE87202664800000F0B5FEAE2394
:102CD0009B000500E0503000002D15D00433E35870
:102CE0001B689847852200239200AB500432AB50FA
:102CF000237C143A002B11D180239B00310020004B
:102D0000AA5800F088FE002070BD402381210222D5
:102D100000F035FE01214023E162C5E74023EDE7E5
:102D200003000220002903D0AF2200209200995016
:102D30007047AE239B00C358822080001950842125
:102D4000890000205A507047AE239B00C258B43B04
:102D50000020D1507047AE239B00C25810B502230B
:102D6000002A12D0852189005458013B002C0CD137
:102D7000535084239B00D3580C395258883903632D
:102D8000FF399BB200F03EFE2300180010BDAE23B9
:102D90009B00C25810B50223002A0BD081239B0050
:102DA000D258037C002B07D180239B00012100F027
:102DB00032FE0023180010BD4023F7E7022310B5B0
:102DC000002813D0AD239B00C458002C01D0002450
:102DD000C450002902D0AC239B00C150A72301217D
:102DE0009B00C154027000F06FFD0023180010BD5D
:102DF000A723012210B504009B00C2541833416878
:102E0000C358C9B25B689847200000F0AFFD2000AE
:102E100000F09AFD002010BD03000220002903D01D
:102E2000AD22002092009950704710B500F095FD3A
:102E3000002010BDAD239B00C25810B50223002A0C
:102E400004D013689847431E98414300180010BDF2
:102E5000AD2310B59B00C3585B689847002010BD98
:102E6000AA239B0070B5C5180400280000F02CFBB5
:102E7000A52301229B00E250114BE25A163BE2507F
:102E80001033E15C1F230B40012B09D0022B0CD027
:102E9000002B0FD12900200000F01AF9002070BD8E
:102EA0002900200000F054FAF8E72900200000F083
:102EB00077FAF3E77F232000994300F075FDEDE7F3
:102EC000AE02000070B50400150000292ED1A52324
:102ED0009B00C258032A23D102005532FF32D36827
:102EE000106983420BD91B1AD36082B2984200D971
:102EF0009AB22900200000F048FB002070BDAD23ED
:102F00009B00E3581B69002B06D0A7229200A25C0D
:102F1000032A01D120009847200000F03EFBECE797
:102F2000052AEAD1C15000F03FFDE6E7AD239B0042
:102F3000C35802209B69002BE0D0A7229200A25C1C
:102F4000032ADBD120009847D7E7F8B50D0004002D
:102F50001100002D4DD1A5239B00C358022B3ED15B
:102F6000036A466AB34211D99B1B03629AB200F00E
:102F7000F4FA2B002A002900200000F04CFDA823C1
:102F80009B00E25C012A31D00020F8BDC769310006
:102F90003800FDF765F90D1E0CD1BE420AD8A626F1
:102FA000B600A3599F4205D20A00200000F0D5FACE
:102FB000A551DEE7AD239B00E358DB68002B06D06C
:102FC000A7229200A25C032A01D120009847802109
:102FD000200000F0E9FC200000F0EBFACFE704222B
:102FE0009343CCD1802100F0DFFCC8E70022E254FB
:102FF000CAE7AD239B00C35802205B69002BC4D0F5
:10300000A7229200A25C032ABFD129002000984782
:10301000BAE7002270B504001100402300F0AFFCB5
:10302000230001254026FC338021DD659E660022B9
:103030003300200000F0A3FCA72300219B00A56122
:103040006662E554083BE15010336160E15014338F
:10305000E3588B4205D0AD239B00E35820005B680A
:103060009847002070BD017400207047A7239B0083
:10307000C15C034A81540422C25400207047C046F8
:103080009D020000A7239B00C25C042A02D1024AD1
:10309000825CC254002070479D020000A72310B537
:1030A0009B00C35C032B06D1AD239B00C358DB6997
:1030B000002B00D09847002010BD10B504008021DF
:1030C00000F072FC0021200000F06EFC10BD00003A
:1030D00060220B7873B513400D0019009218203947
:1030E0000400114205D0002B0BD02000FFF7E5FFB4
:1030F00005E0AD239B00C35829009B68984700203A
:1031000076BD68780928F0D8FDF71AF8EF000E01AF
:10311000EFFF0601EFFF7D000A00EFFFD6009F00E2
:1031200000236A46D3806B88180A01380628DCD849
:10313000FCF7F2FF041726DBDB404C00AC239B00BE
:10314000E358207C1B686A46911D98476B46D988D6
:10315000EA88002952D0002A45D1200000F01DFA4B
:10316000CDE7AD23227C9B00E358002A06D19B6A61
:103170006A46901D984702234370E7E7DB6AF7E74A
:10318000D8B20528B1D8AC239B00E358FCF7CEFF9A
:1031900003080A0C0E105B68002BA6D0207CD2E737
:1031A0009B68F9E7DB68F7E71B69F5E75B69F3E71D
:1031B0009B69F1E7237C002B00D096E7AD236A469C
:1031C0009B00E358901D5B6B9847BFE7237C002B67
:1031D00000D08AE7AD236A469B00E358901D1B6B25
:1031E00098470723C8E70B1C914200D9131C694676
:1031F0009AB2CB800100200000F0A1F9EB88002BEF
:1032000000D07CE7A9E7AB88002B00D06DE7EB8806
:10321000002B00D069E76D887F2D00D965E7A726D0
:10322000B600A35D032B00D15FE7474BEDB2E55439
:103230002900200000F0DDFB200000F0AEF90223A1
:10324000002D00D10123A35559E7A9783F4D2970DE
:10325000012900D949E7A7239B00E25C022A09D093
:10326000032A15D02000FFF728FF20002978FFF758
:10327000EFFD44E7002900D16FE7012103226160DF
:10328000E2542000FFF7D6FD022800D065E72CE7C6
:10329000002906D102222000E2546160FFF7D8FD28
:1032A0005BE76168012900D157E7C9B22000FFF749
:1032B000CFFD29786160E4E7EA88012A00D014E7AD
:1032C000A7239B00E35C022B07D8002B00D10CE75F
:1032D00000232100A360083103E0211D032B00D04F
:1032E00003E7200000F02BF909E7A7239B00E35C2C
:1032F000013B022B00D9F8E6EB88022B00D0F4E664
:10330000A9239B00E2580123002A00D002332100A8
:103310000222E3600C31E4E76B88012B00D0EEE67B
:10332000A9229200A35018E7A7239B00E35C013B6E
:10333000022B00D9D9E66B88012B00D0DFE6A92348
:1033400000229B00E25008E79E020000BC0700201C
:1033500060230A7870B5134004000D00520601D5B1
:10336000402B19D1A7239B00E35C013B022B13D810
:103370002B79012B10D8AD239B00E35829009B68C3
:1033800020009847EB88002B04D1002802D12000B0
:1033900000F003F9002070BD2000FFF78EFEF9E772
:1033A00070B5040060200B008A88097801400D0088
:1033B0000018203D054205D000290CD02000FFF761
:1033C0007CFE06E0AD229200A2581900200092680F
:1033D0009047002070BD5878D1B2012838D003281A
:1033E00020D00028EAD1A7239B00E35C022B49D020
:1033F000032BE3D10F2314250B406B43E318120674
:1034000050D59B69002BD9D07F230B4001335D43FE
:103410006519802951D0200000F0D8FA002851D039
:1034200001234BE0A7229200A25C022A20D0032AAB
:10343000C4D15A88002A07D14A0605D0DB88002B60
:1034400002D1200000F0B0FA200000F0A6F8C0E79A
:10345000A7229200A25C022A0AD0032AAED15B887E
:10346000002BB6D14B06EFD0200000F0A6FAEBE718
:103470004B06A3D0200000F097FA8021200000F036
:1034800093FAA6E7490699D121005531FF3112067A
:1034900001D54139FF39002302220B60200000F0E2
:1034A0004EF896E7FC33DB6D002B00D186E74D43E9
:1034B0005535FF3565190029ADD100232B60022257
:1034C0002900EBE72860FAE70B7803704B7843702C
:1034D000CB788A781B02134343804B790A791B020D
:1034E00013438380CB798A791B021343C3807047CF
:1034F00010B50400802100F057FA0021200000F0F0
:1035000053FA10BD70B504000D00160000280DD050
:10351000FCF7FAFDC3B201335B0033802B70032349
:1035200000206B70013B2178002900D170BD5A1C2E
:10353000E954D2B202330134DBB2A854F3E71300EA
:10354000A52210B50224920084500A00C361002114
:10355000036200F057FA002010BD10B513000A00F6
:10356000002100F04FFA002010BD1300A52210B575
:103570000324920084500200FC32136653660A0052
:10358000002100F048FA002010BD10B513000A0019
:10359000002100F040FA002010BDA52304229B006A
:1035A00010B5C25000231A00190000F02BFA0020B9
:1035B00010BDA52305229B0010B5C25000231A00A0
:1035C000190000F028FA002010BD000010B5114CC1
:1035D000002220001049FFF7F1FB002801D0FCF782
:1035E000BDFE20000D49FFF717FC002801D0FCF7B5
:1035F000B5FE20000A49FFF793FB002801D0FCF735
:10360000ADFE2000FFF711FC002801D0FCF7A6FE5C
:1036100010BDC046C007002070030020E802002053
:103620002C030020002070470020704770B5050073
:103630000E00074C01002000FFF786FB3100280038
:10364000FEF7EAFF2000FFF7A2FB002070BDC04696
:10365000C007002010B5064C002220000549FFF7E6
:1036600068FB20000449FFF76FFB002010BDC04637
:10367000C0070020840A0020840E00200A00AE212A
:1036800010B5084C890003006058A4394158012046
:10369000002906D119002000FFF74BFB2000FFF79F
:1036A0005AFB10BDC0070020122301480B80704751
:1036B0005C030020042301480B807047580300205E
:1036C00070B5002652008A18050FECB2230037337C
:1036D000092D00D8073B0B704E70023100018A4261
:1036E000F2D170BD1A2310B50B800A4B18680A4B33
:1036F0001B68C01800280AD0084B08221C6808491B
:10370000FFF7DEFF042220000649FFF7D9FF064835
:1037100010BDC046ACF7FF1FB4F7FF1FB0F7FF1F87
:103720003E0300204E0300203C03002010B5044C53
:103730000A0021000348FFF7E5FE200010BDC04647
:1037400084120020B43A000810B5044C0A0021008D
:103750000348FFF7D7FE200010BDC04684120020AA
:10376000C93A000810B5044C0A0021000348FFF7CD
:10377000C9FE200010BDC04684120020DF3A0008B8
:1037800010B5044C0A0021000348FFF7BBFE2000DF
:1037900010BDC04684120020EA3A0008002803D079
:1037A0000238431E984101307047000007B50B4BAB
:1037B00002689A4211D18021094B0904DA691F205D
:1037C0000A43DA610022DB690B4001931100019B7F
:1037D000FCF784FE1F20FCF7ABFE07BD005C004039
:1037E00000100240064B026810B59A4207D1054A04
:1037F0000549D3691F200B40D361FCF7A5FE10BD1E
:10380000005C004000100240FFFF7FFFA62310B5C0
:103810009B00C1184033C058FFF722FB10BD28237E
:103820004B43C318FC339A6EB62310B59B00C058A7
:10383000FFF748FB10BD28234B43C3185A6AB62331
:1038400010B59B00C058FFF780FB10BDB62310B524
:103850009B00C058FFF722FC10BD70B543790400EF
:10386000022B01D0FCF77AFDB625AD00012160598D
:10387000FFF7F9FB6059FFF7CCFB70BDB62310B51D
:1038800004009B00C058FFF7F1FB637A002B04D0C3
:103890000623024A11690B43136110BD00ED00E0DD
:1038A00010B5437A0400002B06D00621054A13699F
:1038B0008B431361FCF7E6FCB6239B00E058FFF74F
:1038C000E1FB10BD00ED00E0B62370B504001C481C
:1038D0009B00C4501B4BB025036082239B00838058
:1038E0000223C3710023AD00605143724381FDF791
:1038F00019FA002801D0FCF731FD002260591100AF
:103900001823FEF778F86059582300228021FEF72B
:1039100072F86059C02300228121FEF76CF88823D9
:103920006059002201215B00FEF765F88023605991
:10393000002282215B00FEF75EF8002070BDC046C9
:10394000A4160020005C0040B02310B59B00C058B6
:10395000FDF734FAFFF722FF10BDB02310B59B002E
:10396000C058FDF741FAFFF719FF10BDB02310B59D
:103970009B00C058FDF74BFAFFF710FF10BD10B5C4
:1039800014001A002300B024A4000059FDF74AFFD8
:10399000FFF704FF10BDB02310B59B00C058FDF722
:1039A0006DFFFFF7FBFE10BDB02310B59B00C058A4
:1039B000FDF7C5FFFFF7F2FE10BDB02310B59B0069
:1039C000C058FDF7EAFFFFF7E9FE10BDB0239B00EA
:1039D000C35848B22822002805DA7F2001404A4314
:1039E0009B18987C70474A439B185333FF331878D1
:1039F000F8E7B02310B59B00C058FDF71BFAFFF79E
:103A0000CDFE10BD10B5B024A4000059FDF77FFF16
:103A1000FFF7C4FE10BD10B5B024A4000059FDF797
:103A200053FFFFF7BBFE10BDB02310B59B00C0587D
:103A3000FDF765FF10BD00000048704784140020AA
:103A4000704703008218934200D170471970013308
:103A5000F9E7000070B500260C4C0D4D641BA41056
:103A6000A64209D1002600F019F80A4C0A4D641B41
:103A7000A410A64205D170BDB300EB58984701369B
:103A8000EEE7B300EB5898470136F2E7F83A000842
:103A9000F83A0008FC3A0008F83A0008F8B5C046C1
:103AA000F8BC08BC9E467047F8B5C046F8BC08BCD8
:043AB0009E46704777
:103AB400454E4B4F20436F6E74726F6C2053797375
:103AC40074656D730053544D3332205669727475A6
:103AD400616C20436F6D506F727400434443204304
:103AE4006F6E6669670043444320496E746572666D
:043AF40061636500A5
:043AF800E9000008D9
:043AFC00C1000008FD
:103B000000127A0001000000040000000100000023
:103B1000E20000004000000003000000090743002D
:103B2000020104C032090400000102020100052460
:103B300000100105240100010424020205240600EE
:103B4000010705820308001009040100020A0000B1
:103B50000007050102400000070581024000000047
:103B600009024300020100C0320904000001020200
:103B700001000524001001052401000104240202B3
:103B8000052406000107058203080010090401004E
:103B9000020A00000007050102400000070581023B
:103BA0004000000009024300020100C03209040085
:103BB000000102020100052400100105240100019A
:103BC00004240202052406000107058203080010F0
:103BD00009040100020A00000007050102000200BA
:103BE00007058102000200008B2C0008452C00080C
:103BF000892B000800000000A52A00083D2B0008C2
:103C0000092B000800000000000000000000000078
:103C1000E52A0008D92A0008F12A0008FD2A000830
:103C20000A060002000000400100000055360008AE
:103C300025360008293600082D3600081A03000032
:103C40000000000000000000000000000000000074
:103C5000000000000000000004030904120100023B
:103C600002020040830440570002010203010000E9
:103C7000A9360008B53600082D3700084937000876
:0C3C8000E53600086537000881370008B1
:023FFE00BA0BFC
:04000005080003B537
:00000001FF
