:020000040800F2
:1040000000400020E1780008C9760008CB7600085F
:1040100000000000000000000000000000000000A0
:10402000000000000000000000000000CD76000845
:104030000000000000000000CF760008D1760008E4
:1040400031790008317900083179000831790008A8
:10405000317900083179000831790008D3760008F9
:104060003179000831790008317900083179000888
:104070003179000831790008317900083179000878
:10408000317900083179000831790008DD760008BF
:10409000ED7600083179000831790008317900089F
:1040A0003179000831790008317900083179000848
:1040B0003179000831790008FD7600080D77000895
:1040C00010B5064C2378002B07D1054B002B02D0EE
:1040D000044800E000BF0123237010BDD00300207E
:1040E00000000000E8BA0008044B10B5002B03D014
:1040F0000349044800E000BF10BDC04600000000B6
:10410000D4030020E8BA00080023C25C0133002A6F
:10411000FBD1581E7047000002B47146490849009F
:10412000095649008E4402BC7047C04602B471462D
:1041300049084900095C49008E4402BC7047C046EA
:1041400003B47146490840004900095E49008E44A5
:1041500003BC7047002243088B4274D303098B428F
:104160005FD3030A8B4244D3030B8B4228D3030C47
:104170008B420DD3FF22090212BA030C8B4202D3E9
:104180001212090265D0030B8B4219D300E0090A11
:10419000C30B8B4201D3CB03C01A5241830B8B421A
:1041A00001D38B03C01A5241430B8B4201D34B0303
:1041B000C01A5241030B8B4201D30B03C01A524168
:1041C000C30A8B4201D3CB02C01A5241830A8B42ED
:1041D00001D38B02C01A5241430A8B4201D34B02D6
:1041E000C01A5241030A8B4201D30B02C01A52413A
:1041F000CDD2C3098B4201D3CB01C01A52418309EE
:104200008B4201D38B01C01A524143098B4201D327
:104210004B01C01A524103098B4201D30B01C01A52
:104220005241C3088B4201D3CB00C01A52418308CC
:104230008B4201D38B00C01A524143088B4201D3F9
:104240004B00C01A5241411A00D201465241104659
:104250007047FFE701B5002000F0F0F802BDC0464E
:104260000029F7D076E7704703460B437FD400223E
:1042700043088B4274D303098B425FD3030A8B42FA
:1042800044D3030B8B4228D3030C8B420DD3FF2264
:10429000090212BA030C8B4202D31212090265D032
:1042A000030B8B4219D300E0090AC30B8B4201D3E5
:1042B000CB03C01A5241830B8B4201D38B03C01A2C
:1042C0005241430B8B4201D34B03C01A5241030BA3
:1042D0008B4201D30B03C01A5241C30A8B4201D354
:1042E000CB02C01A5241830A8B4201D38B02C01AFF
:1042F0005241430A8B4201D34B02C01A5241030A76
:104300008B4201D30B02C01A5241CDD2C3098B425A
:1043100001D3CB01C01A524183098B4201D38B01D7
:10432000C01A524143098B4201D34B01C01A52417A
:1043300003098B4201D30B01C01A5241C3088B42BF
:1043400001D3CB00C01A524183088B4201D38B00AA
:10435000C01A524143088B4201D34B00C01A52414C
:10436000411A00D201465241104670475DE0CA0F23
:1043700000D04942031000D34042534000229C46E3
:1043800003098B422DD3030A8B4212D3FC228901ED
:1043900012BA030A8B420CD3890192118B4208D3C3
:1043A000890192118B4204D389013AD0921100E025
:1043B0008909C3098B4201D3CB01C01A5241830939
:1043C0008B4201D38B01C01A524143098B4201D366
:1043D0004B01C01A524103098B4201D30B01C01A91
:1043E0005241C3088B4201D3CB00C01A524183080B
:1043F0008B4201D38B00C01A5241D9D243088B4261
:1044000001D34B00C01A5241411A00D20146634603
:1044100052415B10104601D34042002B00D5494267
:10442000704763465B1000D3404201B5002000F0A6
:1044300005F802BD0029F8D016E770477047C0465E
:10444000D0400B00D1409C46203AD3401843524202
:104450006346934018437047F0B5DE4645465746DD
:104460004E46E0B587B0009201930B031B0B9B46B1
:10447000CA0F4B00040080465B0D029200D198E009
:104480007C4A934237D05946420FC9000A438021E3
:1044900009041143C2009046774A894692469A44DD
:1044A000002300240393009E019F3B031B0B9B46AC
:1044B0007B0030005B0DFD0F002B59D06D4A9342FD
:1044C00048D05946720FC9000A438021090411439C
:1044D0008B466949F2008C4651466344CB1A9A4692
:1044E0000021029E6E40F6B20F2C00D9CEE0634B45
:1044F000A4001B599F465A460243914600D090E0C3
:104500009A460223904608240393CCE7CB464246C2
:10451000029D0399022900D1DEE1032900D18DE03B
:10452000012900D079E12E000022002300249046CA
:104530001B052343F60733434046190007B0F0BC80
:10454000BB46B246A946A046F0BD002200249046D4
:10455000484BEDE75A46009B1A43494B9C46E244C0
:10456000002A59D102231C43002302219B46B8E7AD
:104570005A46009B1A4349D05B46002B00D19CE170
:10458000584600F0D1FD020003000B3A1D27009EA3
:10459000BA1A19005846D6400839884032000243FA
:1045A0009346009A8A40374953448A4600219A44E8
:1045B00097E75B460343994621D05B46002B00D129
:1045C00069E1584600F0B0FD0B235B429C460200B7
:1045D000844466461D239B1B260011005846DE407E
:1045E0000839884033000343994623008B4098469E
:1045F000254B00249B1A9A460023039353E700237C
:1046000098469A460133042403934CE701231C4344
:10461000002301219B4664E70323320003211C434E
:104620005FE79A460323D9460C2403933BE7002314
:104630008024984600260F4B240379E780245B46AC
:1046400024031C4324032E0090460A4B240B6FE7DF
:1046500080244B462403234202D05B462342F0D001
:1046600080244B4624031C432403029E014B240B4D
:104670005EE7C046FF07000001FCFFFF00BB00082B
:1046800001F8FFFFF30300000DFCFFFFCB4500D254
:10469000F8E000D1F3E001235B429C4644464846E3
:1046A0000025E2445B46170E1B021F43190C3B0416
:1046B000120200971F0C914602910397FFF7D0FD5D
:1046C00002007A430B04210C804619438A4209D91F
:1046D000009F0123BC465B4261449C46E0448F42FC
:1046E00000D85CE1881A0299FFF7BAFD039A240406
:1046F00042430904240C03000C43A24206D900994A
:10470000013B8C466444A14200D842E1A01A4246D3
:1047100012041A4393464B4659461B0C1F00049340
:104720000B0449460904090C0C001B0C5C43120CD9
:104730007B43884651437A43270CBC465B1863444D
:10474000994203D9802149028C466244190C240401
:104750001B04240C8A181C19904202D316D1A542BE
:1047600014D25B46009F013B4D4405934D459B4150
:10477000BC465B426344C018874200D302E18242D8
:1047800000D929E100D124E1059B9B462C1BA542C1
:10479000AD41009B801A6D42401B834200D10FE166
:1047A0000299FFF75DFD039A0B044243210C0500BB
:1047B00019438A4200D9CBE0881A0299FFF750FDCD
:1047C000039A240442430904240C03000C43A2422C
:1047D00000D9CAE04146A41A2A041A43049F1304CC
:1047E0001B0C594340467B439C46150C68430B0CFD
:1047F000844463447D43984203D980204002844628
:104800006544180C09041B04090C40195B18844208
:1048100027D323D0012335001A43944B5344002B54
:1048200060DD510700D086E02E00D1085A46D20143
:1048300006D55A468E4B1A4080239346DB005344DC
:104840008C4A934200DD80E65A4652070A4390465E
:104850005A465B055402240B5B0D69E63500002BBC
:10486000DBD0009D511EAC466444AC4200D29EE0B9
:10487000844200D2E1E000D1EEE00A00CAE74245FE
:1048800000D908E74B46DC07580843465B081C4341
:104890004346DD0706E700F047FC15239C468444A9
:1048A0000200634620321C2B00DC92E6230008380D
:1048B00083409946002398469AE600F035FC0200B2
:1048C0000300153220331C2A00DC5FE6009908380B
:1048D000814000228B4666E600222E00002490468E
:1048E000654B25E62E000121C91A382900DD1BE69B
:1048F0001F297EDC6148140050445B46824083409F
:10490000CC40501E824123431A435B46CB405107A3
:1049100009D00F211140042905D0111D9142924167
:1049200052429B180A00190200D49BE00022012386
:1049300000249046FCE50F211140042900D173E7C3
:10494000111D9142924152422E00C90893446DE7D5
:10495000009B013D9C4661448B4200D92CE78A4272
:1049600000D829E7851E614426E70099013B8C4663
:104970006444A14200D92DE7A24200D82AE7831E51
:10498000644427E7874200D0FEE6A94500D9FBE64C
:10499000F5E6A24200D8B9E6831E6444B6E68A4230
:1049A00000D89FE6BC46831E984661449AE60A00FA
:1049B000844200D02EE74B4500D02BE735002CE792
:1049C0002A4B2F4A5344924543DB01220021934452
:1049D0002CE7AC4200D8D7E602235B429C46009904
:1049E0004D444D459B41E3448C465B426344C018B3
:1049F000CCE61F204042C31A5846D840202904D094
:104A00005946204B534499400A43531E9A41072369
:104A10001900024300241140134209D00833134007
:104A2000042B1DD0131D934289411A0049424907A6
:104A3000D2080A43904600237AE54946009F4D007C
:104A40004D458941BC4649426144A946023A641831
:104A5000AEE70122524246E79945EED30A00AAE7A3
:104A60000021E5E759075B021C0BE1E7FF030000AB
:104A7000FFFFFFFEFE070000FF0700001E0400000E
:104A800002FCFFFF3E040000F0B557464E46DE46EE
:104A90004546E0B51F000B031B0B16009A46CA0FD4
:104AA0004B000400914685B05B0D00D1CFE1CD4AAB
:104AB000934255D05146420FC9000A438021090450
:104AC0001143C2009046C84A8A4693469B4400233D
:104AD000002502933C037B00FA0F0196240B5B0D2B
:104AE000009200D188E1BF4A934200D192E0BE4AD1
:104AF000944663449B440A2D42DCE400730F234335
:104B00008024494624041C43F3000193009B0020A9
:104B10005940CBB20393022D00DC94E00123AB405B
:104B20001D00A6232A00DB001A401D4200D029E206
:104B300090239B001D4200D14DE200238024994622
:104B40002403A84B10004A461B052343D2071343F6
:104B5000190005B0F0BCBB46B246A946A046F0BD60
:104B600052460243904600D0ACE19B460223924657
:104B700008250293AEE7009BA2469946019B984602
:104B8000029B022B00D1CAE1032B00D192E1012B41
:104B900010D1002300240022D4E701227B083A40F0
:104BA00013435246D2071343984653465B089A462E
:104BB000039B99465B46581C8023DB005B44002B1B
:104BC00000DCB1E1424652070BD00F2241460A40B9
:104BD000042A06D04246111D414592418846524260
:104BE00092445246D20106D55246804B1A40802349
:104BF0009246DB00C3187E4A934200DD8FE14246B5
:104C0000D108524652070A4351465B054C02240B19
:104C10005B0D97E7734B26439C46E344002E00D17F
:104C20006FE1032349461D43009B5940CBB20393D8
:104C30000A2D00DD33E10123AB401D000323029365
:104C400088222A4297D1424643461204120C16008B
:104C500001981D0C030C0004000C4643B4461E00D2
:104C60006E430096160007005E436146B0466F43F0
:104C70000E0CB8444644B74205D980214902884603
:104C8000009F4744009761460904090C370C36041D
:104C90008C463100614401911100260C2404240C3F
:104CA00061438C462100694389466146090C884668
:104CB00072434A4442447543914503D980214902D5
:104CC00088464544110C884661460904090C8C4607
:104CD00012046244B91802915146090C8C4651469F
:104CE0000F043F0C39004143454488466146414327
:104CF0008A4641466046090C894658437B435344E3
:104D00004B449A4503D98021490289464844190CED
:104D1000894641460904090C8846390061431B0451
:104D20004344884661464C4371438C464146774331
:104D30000E0C3F19F6194844B44203D980214902A8
:104D40008946CC440299009F894631044F448946E4
:104D50004146974292410C04240C4C44FF185242A5
:104D60006419A1189F429B41884682465B4299463E
:104D700090459241AC42A441C244D1445242644263
:104D8000144399459B41824592415B4252421343F1
:104D90004A46360CA419E31863445B02D20D1A4349
:104DA000019992467A020A43501E8241FF0D174331
:104DB0004A4652021743B846DB0100D5EDE60D4BDB
:104DC000039A5B449146002B00DCACE03A005207AA
:104DD00000D110E70F2258463A40042A00D0F9E6E5
:104DE00009E7C046FF07000001FCFFFFFFFFFFFED1
:104DF000FE070000FF030000220032436FD0002CAA
:104E000000D1C2E0200000F08FF9020003000B3A4D
:104E10001D20821A30001900D04008398C40020051
:104E2000224334008C405946CB1A86498B469B441A
:104E30000A2D00DDA4E64946009B01945940CBB2FF
:104E4000140000200393022D00DD67E6FBE65346C5
:104E5000034398463CD05346002B00D1A3E0504674
:104E600000F062F90B235B429C460200844411006F
:104E70005046083988401D23804660461B1A200092
:104E8000D8400300404603439A4623008B4098468F
:104E90006C4B00259B1A9B46002302931AE60F2DAC
:104EA00000D0C9E0802352461B031A4202D01C42A4
:104EB00000D192E08024534624031C43240342463D
:104EC000240B3EE69B46032380460C25029301E615
:104ED00000239A469B46013304250293FAE50121FB
:104EE0000D430A2D00DD4BE6494600984140C9B20A
:104EF0000391022D00DC96E00023002401200193A1
:104F00000CE649460223009A2B435140CAB2039251
:104F10000A2B00DD34E6002D57D1039B994600246F
:104F20000022494B0EE658460121C91A382900DDF6
:104F30002FE61F2956DD1F2254465242D31ADC4069
:104F4000202907D0414B42469C465346604483404B
:104F50001A43904642460721531E9A410B002243B2
:104F600013400024114209D00F231340042B5DD0BD
:104F7000111D91429B410A005B425B07D2081A4314
:104F80000023DFE5039B9946FAE5019800F0CCF891
:104F900002000300153220331C2A00DC38E7019A96
:104FA000083882403FE700F0BFF815239C46844450
:104FB0000200634620321C2B00DC58E70023984691
:104FC0002300083883409A4662E71D00002300242E
:104FD00002200193A2E5029032E61C43009B019A55
:104FE0009946AEE51A4B5246C31840469A40C8400F
:104FF0000243404698400300581E834154461A43DA
:10500000CC40530709D00F231340042B05D0131DA8
:10501000934292415242A4181A00230208D5012358
:10502000002400228EE5894600248BE50023A5E7B5
:1050300063076402240BA1E7009BA2469946019BEB
:10504000984637E70DFCFFFFFF0700003E04000015
:105050001E0400000B00020070B5164D0C0382B058
:105060004900002000920193240B490DDE0FA94254
:1050700004DD1148814203DD104BF01802B070BD11
:105080008020400320430E4C641A1F2C08DD0D4B7A
:105090005B1AD84003005842002EEFD11800EDE70C
:1050A000094B009A9C46030061448B40E240134345
:1050B000F1E7C046FE0300001D040000FFFFFF7F74
:1050C0003304000013040000EDFBFFFF70B500285F
:1050D00016D0C317C5185D40C40F280000F024F88F
:1050E000104B1B1A5B055B0D0A2814DC02002E0016
:1050F000153296400B22121AD5402D032D0B03E0DA
:1051000000240023002500261B052B43E40723432E
:105110003000190070BD0B3885402D0300262D0B83
:10512000F2E7C0461E0400001C2101231B04984224
:1051300001D3000C10391B0A984201D3000A083928
:105140001B09984201D30009043902A2105C4018DF
:105150007047C04604030202010101010000000083
:105160000000000030B501240F4A2821535E0F498A
:105170000D7C0421254209D01A24105F012802D198
:105180001943118530BD8B431385FBE78B43138592
:1051900054830C23C15E3323FA394B43928B5B1249
:1051A00053435B424381EDE72C08002004040020B8
:1051B000014B18787047C04600020020014B187060
:1051C0007047C0460002002010B5084B1B78012B29
:1051D00005D0042B03D00122002B01D010BD0022EA
:1051E00090200421C00503F049FDF7E700020020EC
:1051F00084B0039303B201910120002B0ED06B46C3
:105200009B89074A9033FF339BB2934206D86B4683
:105210000620185E963843425841C0B204B0704729
:105220006A07000010B5134A0023C15E2820135EF0
:10523000E120C00081420EDBDF210B40AF210E4890
:1052400009011385002310801181938201F0F6FA81
:1052500001F078FB10BDC820C000814204DCDF21D2
:1052600006480B400649ECE7202196200B43C0007E
:10527000F8E7C0462C080020C80A000064050000BA
:10528000AA05000070B5324B24215A5E012A1FD1B5
:1052900000223049DA810A602F490A602F490A60EA
:1052A0002C490A6801320A602B490A6801320A60F7
:1052B00020221A861E3A5A860222815E0622985EB3
:1052C000F32242431212914201DC0122DA8170BDC5
:1052D0000E215A5E022A20D003DC002AE0D0012AE7
:1052E00004D050221A864E3A5A86F0E71949022015
:1052F0000A68588601320A6018490A6801320A6051
:10530000202119861449096849088A42DFD30A24F2
:10531000195F8A42DBD3D881D9E70E480E4D0F4C76
:1053200002682968266801328919026049008A42A8
:10533000CDD30C26995F8A42C9D310215A5E012A27
:10534000C5D10022DA8102602A602260BFE7C04630
:105350002C08002068040020700400206C04002049
:1053600070B501220D00040040211E4803F086FCA8
:10537000012210211B4803F081FC01222021194841
:1053800003F07CFC022D08D0402C1DD006D8202C28
:1053900025D0302C15D0102C0BD070BD602C19D01E
:1053A000702C09D0502CF8D1002240210D4803F078
:1053B00065FC0022102109E000224021094803F089
:1053C0005DFC0022102107E000222100054803F0C7
:1053D00055FCE2E700224021024803F04FFC002286
:1053E0002021F3E700040048002343600370704766
:1053F0000223002901DD4160013B037070474368CF
:105400000278002B04D1012A01D1023303707047C6
:10541000012AFCD1013B4360F9E710B50381002369
:1054200002AC2478C160C474028283744360037048
:1054300010BD10B5C37C0400002B0BD1C368002243
:105440009A5E1021435E9A420DDB0023A3746360D1
:1054500023701AE0012BF8D1C36800229A5E102154
:10546000435E9A42F1DD2378002B03D1200021898D
:10547000FFF7BEFF2378012B02D12000FFF7BFFF0B
:105480002378022B01D1013BA37410BD036810B532
:105490001B880824025F9B1A0A24025F53430C24D2
:1054A000025F1F24134142689B0162439B185A11FB
:1054B000DB121BB24260C3810B8010BD164B10B5CE
:1054C00000229B5E154A164C0020105E154A23816F
:1054D0002260C01AFFF7FAFD02000B0000201249FB
:1054E000FEF7BAFF0022114BFFF7CEFAFFF7B2FD2D
:1054F0000A230F4AA3810F4B60811A600E4B0F4A9B
:105500001A600F4B0F4A1A600F4B104A1A60104B6B
:10551000104A1A6010BDC046B8F7FF1FC2F7FF1F40
:105520002C0400206A050020000054400000904038
:105530006605002054040020400400206805002077
:1055400018040020600500200404002062050020EB
:10555000F003002064050020F7B51B4C01912823BF
:10556000E75EBE231500194E9B0098420AD2002325
:105570003370FD333B4023850123E280A38501F096
:105580007BFA18E00A21FEF7E5FD82B21100022342
:105590004C393B43092911D8317800290ED10C48E8
:1055A000238550430B4B0199C018FEF75DFE83B273
:1055B000AB4201D8E080F7BDE580FCE701222385FE
:1055C00032700023DAE7C0462C080020EC030020EC
:1055D000846DFFFF045C3600401A4243174B921261
:1055E00070B594B29C4226D80020844217D03F2345
:1055F000134D191A012913DC800029189B0002247D
:105600000C5F295AE8180226865FEB5A90B2081AF6
:10561000A61B7043C91AFEF727FE201A00B270BD00
:1056200019184910CEB28900695AA14201D330003D
:10563000DFE73300DDE70348F1E7C046F40F000081
:1056400040BB000870FEFFFF70B504001F4821003A
:10565000FFF71CFFA11C1E48FFF718FF211D1D4866
:10566000FFF714FF1C4B1D491B6818881C4B48434F
:105670001D88FEF76FFD431B50205843194B1988B6
:10568000491BFEF7F1FD184D1E302B68208118884C
:105690006A890823E95E80B2FFF79EFF2100E0805F
:1056A000124CE8810C312000FFF7F0FE2268012344
:1056B0001188272904D912880D4B93429B415B42E4
:1056C0000121227C8A431343237470BD54040020BB
:1056D00040040020F00300202C040020E40C000013
:1056E000B8F7FF1FC2F7FF1F1804002004040020B2
:1056F000FA0F00000321034A13688B43034313602E
:105700007047C04600000140044BDA68002902D00F
:105710000243DA6070478243FBE7C0460010024054
:1057200010B50C4B0C490D4A1868C850043393420D
:10573000FAD101210800FFF7E7FF0320FFF7DAFFA6
:10574000074B1B78012B04D1064B1B78012B00D192
:10575000C04610BD0040000800C0FF17C040000850
:10576000FCEF000808CA00087FB5684603F04EF950
:105770006B461B7BBB2B0DD002F064FF02F080FF59
:1057800002236A4600936846B933137303F088F81E
:1057900003F008F802F08AFF02F068FF07B000BDCE
:1057A00010B5054C200002F003FB0622200003493F
:1057B00002F0E6F910BDC046400A00206005002056
:1057C00010B5054C0821200004F034FC0C21200009
:1057D00004F030FC10BDC0463C0B002070B5022523
:1057E000174804F0ABF9174804F0A8F91648FFF77A
:1057F000FBFD164C2000FFF7F7FDC8212000FFF746
:10580000F7FD134C2000FFF7EFFD2570114C200031
:10581000FFF7EAFD20001049FFF7EAFD25700F4C65
:105820002000FFF7E1FD0A212000FFF7E1FD0C4C0D
:105830002000FFF7D9FD20000A49FFF7D9FD70BD10
:10584000F40A00203C0B0020540500204C050020E9
:10585000440500203C05002060EA000034050020DB
:105860002C050020002E93020021402070B50A4C28
:105870000A4D0B4E61862086FFF772FDC8202E6010
:1058800002F07AF82E6000F099FF0223E381013BD9
:10589000A38501F0F1F870BD2C0800200030004015
:1058A000AAAA000010B5024801F0F4F910BDC046E4
:1058B0006C050020F8B581260024B600104D114B70
:1058C000EB5AA34202D8FFF7F9FDF8BD1422624358
:1058D000AB599B181A68002A01D0D98811805A7BCD
:1058E000012A09D1210008489F8800F07DFC390079
:1058F00002B2280001F0BCFA0134A4B2DEE7C046CF
:105900006C0500200E02000000F800087FB501259C
:10591000FFF7D0FF1B4B1C4C1A891C496432230033
:1059200000951B4812B2FFF778FD2B00009519492E
:1059300019481A4AFFF771FDFA23AF22009518495A
:1059400018489B009200FA26FFF767FD2300002409
:10595000F60100954B2214491448FFF75EFD2A001A
:1059600023000296052112480194009400F0D8FE0D
:105970000296230005220A210E480194009400F0AB
:10598000CFFE7FBD2C080020B80B0000620800206D
:105990001805002066080020F0040020140500000F
:1059A00064080020040500206A080020DC040020B0
:1059B000A80400207404002070B5274C0121262281
:1059C000A35E264A907C1A008A43002801D00A0070
:1059D0001A43234B0221987C13008B43002801D0EB
:1059E0000B0013431F4A0421907C1A008A430028AD
:1059F00001D00A001A431A23E15EE2842823E25E02
:105A0000194B002922D00C21585E2021655E082107
:105A1000854217DA0A43588822851A88D9880004F3
:105A200010439A88090411435A891D8912049B89DD
:105A30002A43FFF7DDFB238D01280AD103431BB264
:105A4000238570BD1E26A55F8542E3DB08218A43BE
:105A5000E1E7FE221340F3E72C080020F0040020C9
:105A6000DC040020180500206208002010B517494A
:105A70000223CA5E05235343154A5B12134004D523
:105A80001022013B5242134301331A1CDBB20A2B92
:105A900000D90A220F48D3B29B001A5801321A507B
:105AA0000823CA5E3323002053435A12834203DB88
:105AB0006430824200DC10B20A21FEF7D5FB064AB0
:105AC00000B2800083580133835010BD620800206B
:105AD0000F000080DC0700208C07002010B5A8B064
:105AE000684628227A4900F020FB7A4C009A5B2114
:105AF0002000121401F0BCF9009A5C21200012B2BF
:105B000001F0B6F9019A5D212000121401F0B0F9FC
:105B1000019A5E21200012B201F0AAF9029A5F21D7
:105B20002000121401F0A4F9029A6021200012B2A0
:105B300001F09EF9039A61212000121401F098F9F6
:105B4000039A6221200012B201F092F9049A6321B3
:105B50002000121401F08CF9049A6421200012B282
:105B600001F086F9059A65212000121401F080F9F0
:105B7000059A6621200012B201F07AF9069A67218F
:105B80002000121401F074F9069A6821200012B264
:105B900001F06EF9079A69212000121401F068F9EA
:105BA000079A6A21200012B201F062F9089A6B216B
:105BB0002000121401F05CF9089A6C21200012B246
:105BC00001F056F9099A6D212000121401F050F9E4
:105BD000099A6E21200012B201F04AF9149A6F213D
:105BE0002000121401F044F9149A7021200012B21E
:105BF00001F03EF9159A71212000121401F038F9D4
:105C0000159A7221200012B201F032F9169A73210E
:105C10002000121401F02CF9169A7421200012B2FF
:105C200001F026F9179A75212000121401F020F9CD
:105C3000179A7621200012B201F01AF9189A7721EA
:105C40002000121401F014F9189A7821200012B2E1
:105C500001F00EF9199A79212000121401F008F9C7
:105C6000199A7A21200012B201F002F91A9A7B21C6
:105C70002000121401F0FCF81A9A7C21200012B2C4
:105C800001F0F6F81B9A7D212000121401F0F0F8C3
:105C90001B9A7E21200012B201F0EAF81C9A7F21A3
:105CA0002000121401F0E4F81C9A8021200012B2A6
:105CB00001F0DEF81D9A81212000121401F0D8F8BD
:105CC0001D9A8221200012B201F0D2F828B010BD36
:105CD00000F000086C05002010B52B4B1222995ED5
:105CE000002914D00022012949D15A8600215A5E88
:105CF000E121C9008A4202DB30221A8610BDC82188
:105D0000C9008A4201DC1022F7E76022F5E714217E
:105D10005A5E012A03D11D48FFF784FAEEE7002AF4
:105D2000ECD10E20195E0229E8D15A8600215A5E74
:105D3000E121C9008A420BDB30221A86134A002077
:105D4000125E8A42DADBDF211A8D0A401A85D5E716
:105D50000F495218C82192B249008A4209D2102232
:105D6000C8211A86094AC9000020125E8A42C5DC91
:105D7000E9E76022198D1A86403A0A43E6E7502186
:105D80005A861986BAE7C0462C080020620800200F
:105D90004FFBFFFF10B5FFF703FDFFF783FDFFF794
:105DA000B5FDFFF70DFDFFF719FDFFF75DFD02489B
:105DB00000F0B4FA10BDC046800A0020F0B59D4B3B
:105DC0009D4A9E4C85B020001A60FFF73DFCFFF70E
:105DD000F3FDFFF781FF9A4B00939A4B0193009BD1
:105DE0009D7C019B9B7C1D43974B02939B7C1D4399
:105DF000964B9B7C1D4324D0FFF7DAF9032802D091
:105E00000420FFF7DBF9FFF7DFF991480378022B55
:105E10004DD10A21FFF7ECFA8E4D1222AB5E012B19
:105E200000D08BE00023EA5E16216B5E012B0ED1C1
:105E30000223E15E18202B5E4B43DB11D31A6B80EB
:105E400006E0FFF7B5F90328DDD02800D9E76A801E
:105E500081480378022B07D18049FFF7C9FAAA8845
:105E60002988E088FFF778FB7D4E0223E25E062357
:105E7000E95E300000F06FFC2A22AB5E002B02D1FD
:105E8000F26A784BDA6330363378724DDB0706D529
:105E90000023E25E0223E95E734800F05CFC2A22E4
:105EA000AB5E002B03D1704BDA6A6E4B1A646F48FD
:105EB0000578022D65D1674E1222B35E0393002B45
:105EC0005FD1FFF791FA90202021C00502F0D0FEAB
:105ED0000123674F002807D090202021C00502F041
:105EE000C7FE01284DD1039BB3843D7060485B49D8
:105EF000FFF77EFA574D1222AB5E002B09D120002E
:105F0000FFF7C0F91222AB5E002B02D12000FFF791
:105F100029F90822A35E22216A5E9A4209DA6B847B
:105F20008523544814219B00C55800F08BFF21891C
:105F3000A847FFF79BFDFFF7D1FD26E0002B87D197
:105F40001622AB5E012B12D10222A35E18216A5EDB
:105F50005A430E216B5ED21192B2022B05D12B88CF
:105F60009B1A9BB262899B1869E72B89F8E7002B83
:105F700005D10E22AB5E022B01D02B89F2E72B88D4
:105F8000F0E73B4B1B78022BB0D03B480478022C47
:105F900037D1C821FFF72CFA009B9A7C2D4B002AA1
:105FA00004D040221A8600225A860EE0274A927CAC
:105FB000002A03D040221A863F3AF5E7029A927CE3
:105FC000002A20D040225C861A862C490A88013299
:105FD00092B20A2A00D900220A803221585E28494A
:105FE0004400A2421CDA0A78002A14D000220A7067
:105FF00090421AD101220A700021188EC0B2FFF718
:10600000AFF905B0F0BD019A927C002ADDD04022A4
:106010001A863D3AC8E701220A700028EAD0EBE769
:106020000028E7D00A78002AE6D1188E0221C0B2F3
:10603000E5E7C04600300040AAAA00006208002040
:10604000F004002004050020DC04002018050020D6
:10605000340500202C0800203C05002060EA0000E8
:106060007404002000040040A8040020540500200F
:10607000440500206C0500204C0500205E05002032
:106080005C05002010B51248FFF7D3F91148FFF75F
:10609000D0F91148FFF7CDF91048FFF7CAF91048B9
:1060A000FFF7ADF90F48FFF7AAF90F48FFF7A7F977
:1060B0000E48FFF7A4F90E48FFF7A1F90D48FFF7C6
:1060C0009EF90D4801F022F800F04AF910BDC046D3
:1060D0001805002004050020F0040020DC04002046
:1060E000440500203C050020540500203405002014
:1060F0004C0500202C0500206C05002010B5202840
:1061000003D164210148FFF773F910BD5405002045
:106110000B0010B55C1AA24200D810BD1C780470A8
:106120005C78023344700230F4E710B592005218E4
:10613000401A914200D110BD431810C91C60F8E705
:1061400013B5040002F07EFA002811D18022E40287
:106150001205A4180122074B0190186001A918002C
:106160005C609A6002F07CFC002801D102F07EFAAB
:1061700016BDC046700800200B68F7B506000F007A
:106180001400012001330DD102F05CFA03231C42FC
:1061900001D09C4304343500AB1B9C4203D802F071
:1061A00065FA0020FEBD002301932B78019A64203C
:1061B000134301936B78019A1B0213430193AB784D
:1061C000019A1B0413430193EB78019A1B061343B6
:1061D000019302F077FAB91B491900230220019AB2
:1061E00002F09AFA0435D7E74900085A70470000D0
:1061F000F0B593B016006A465C00E31DDB08DB00D7
:10620000D31A00AF9D462200684679601149FFF716
:106210007FFF08236D46F81840220F49FFF778FFEB
:106220001F20FFF78DFF7B68310A5B005A1CA954C1
:10623000F2B2EA54684622000649FFF79DFF0823A0
:1062400040220549F818FFF797FF0020BD4613B01C
:10625000F0BDC04600F8000800FF0008F7B5540084
:106260006A46E31DDB08DB00D31A00AF9D460E0033
:106270000B4D2200290078606846FFF749FF1F2078
:10628000FFF75EFF290022006846FFF775FF320026
:1062900078680449FFF770FFBD460020FEBDC04688
:1062A00000F8000800FF0008F0B593B055006A46FA
:1062B000EB1DDB08DB00D31A00AF9D462A006846C1
:1062C00079601449FFF724FF082340221249F81887
:1062D0006E46FFF71DFF0024AC4211D11F20FFF7CF
:1062E0002FFF220030000B49FFF746FF0823402212
:1062F0000949F818FFF740FF0020BD4613B0F0BD74
:106300007B68611C1B5F1A12D2B2DBB27254335528
:106310000234E1E700F8000800FF000870B50E4CF9
:1063200005000100200000F003F9002303222000F3
:106330000A4900F0AEF90021200000F0DEF9012347
:106340006434227828001343237001F082FE280071
:10635000032101F08EFF70BD7C08002040BC0008C6
:1063600010B5024800F01BF910BDC0467C080020A3
:10637000022310B5044A054811780B43002113701D
:1063800000F06FF910BDC046E00800207C08002036
:10639000012310B5034A044811780B43137000F031
:1063A000D7F810BDE00800207C080020094B0A49FE
:1063B0009A89131C12B28A4200DA0B1C1AB2032308
:1063C00053435B112833037100234371C3808360FF
:1063D0007047C0466208002070FEFFFF064B022295
:1063E0009A5E33235343C8221B12D2009B1883802A
:1063F0000023C3808360704762080020002110B52D
:10640000084C01710223E25E0523183253435B14EA
:1064100043710023E25E0D2353439B11C3808160CF
:1064200010BDC04662080020F7B5009308AB150008
:106430001A7809AB1F78831CDB8F04000120032B23
:1064400025D807263540AC461801035D2518B3430F
:106450000193009B6B80D30000936346019A1A431B
:106460001300009A3340134303550B9B6F70EB608E
:1064700002290DD0032920D0012915D00234E38F41
:1064800001339BB2032B00D900230020E387FEBD1C
:1064900004300822FF21201805F0D6FA0B9B002BB0
:1064A000ECD028009847E9E7002304350A9AD25C2B
:1064B000EA540133082BF9D1E0E7002304350A9AA6
:1064C000D25CEA540133082BF9D1D7E710B5811C0F
:1064D000041DE38FC98F02000020994207D0591C88
:1064E00089B2032900D901001B01E187D01810BD32
:1064F0001FB5069C009303940024130002940A0025
:1065000001940221DC30FFF78FFF1FBD30B585B04D
:106510000A9D08AC24780395099D00930295130009
:1065200001940A0098300121FFF77EFF05B030BDCD
:106530000200002368320160043A93801380937054
:10654000042202659218436582655C3003707047CF
:1065500070B50500012664352B78040033421DD048
:10656000DC30FFF7B3FF021E18D02B780432B343A0
:106570002B700378DB08A365037841885B07090269
:10658000DB080B4321006531097820680B43E36485
:10659000210023004831603301F087FD70BDF7B55D
:1065A000070005000400002668373B887435013376
:1065B0003B80AB79022B16D12988002913D038886B
:1065C000FDF74EFE89B200290DD10C237343E31869
:1065D00070339979A868CB06AA88DB0E0090490928
:1065E0002000FFF785FF01360C35032EE1D1200096
:1065F000FFF7AEFFF7BDF0B50600020004006A36F3
:1066000033002C320021006885B001F0ABFD23007F
:106610000025206B7833020A070C92B2FFB29978FA
:10662000012912D11988914216D10C277D43651991
:10663000E36BED6F810EC0B20090DBB220000295DB
:106640000196FFF763FF05B0F0BD032904D1198857
:10665000090A79400F29E8D901350C33032DDED121
:10666000F1E770B50500022664352B78040033424B
:1066700004D0FFF7C0FF2B78B3432B702000983075
:10668000FFF724FF002803D0C368002B00D09847F1
:1066900070BDF0B585B003920C22019094460020A5
:1066A0001F270291039A904201D305B0F0BD6146C5
:1066B00065464143029A5118C2186A43019D8C688D
:1066C000AA18D467140016008D88783425808D7937
:1066D0007036A5708D78B4793D40BC432C43B471BD
:1066E0008D78E4B26D096D013C402C43B47109888A
:1066F000743201301180C0B2D4E70023012210B5FA
:10670000836143608360C3600361C36143610E338F
:10671000026242628362011D006801F027FC10BD25
:1067200070B5002604ACA657837000234270012286
:10673000059D069C0170C670C5604560436183611C
:10674000C361036243628362046184603030037812
:106750009343037070BD002370B54161891A012213
:1067600084698161C461C356456A4B4303628256A2
:106770004A435219022542624557091B69438468FE
:106780008162A24215DD01254462040001263034F5
:106790002278B2432A432270426A9B1802695B182E
:1067A000934200DD1300C268934200DA1300C36213
:1067B00070BD44680025A242E7DAE4E71B4A0021E5
:1067C000535EC821C9008B4212DC0421535EFA21BA
:1067D00049008B4225DDF63BFF3B9BB28B429B4140
:1067E000EB39FF390B409621C9005B18938670473F
:1067F000AF200F49C0005B1899B200238142F5D247
:106800000421535EFA2149008B420CDDF63BFF3B2D
:106810009BB28B429B41EB39FF390B40962109011A
:10682000E3E7044BE2E7044BE0E7C0462C08002016
:10683000BFF9FFFFB504000065090000002210B594
:106840000F4B5A850022995E04201A5E4A430D4977
:106850008A4202DDFA2252009A800B4C1B890B4AB5
:1068600064332C212000138200F0ECFA084B010065
:106870000022E35A0748FFF7BBFCFFF79FFF10BD5C
:106880002C080020A0BB0D006C050020180500207E
:106890000E02000000F80008962210B5124B92007C
:1068A0000420195E914200DD9A8000225A8504215D
:1068B0005A5E0020195E0D485143814202DD962147
:1068C000C90019800A4C0B4920000A822C21DA8069
:1068D00000F0B8FA084B01000022E35A0748FFF71E
:1068E00087FCFFF76BFF10BD2C080020A0BB0D003C
:1068F0006C050020040500200E02000000F80008CE
:1069000070B50125074C084B2C2120005D8500F057
:1069100099FA064B01002A00E35A0548FFF768FC84
:1069200070BDC0466C0500202C0800200E0200003F
:1069300000F8000810B5FFF7E3FF10BD10B501F037
:10694000E7FD10BD0E4B0F491A895218962192B2DD
:1069500049008A4202D99622D2001A8108215A5E41
:106960000420195E08485143814202DDFA214900A2
:106970009980064964320A8200225A857047C046CF
:106980002C08002050FBFFFFA0BB0D0018050020C5
:1069900010B5084B2E229A5E002A08D190200421BF
:1069A000C00502F06BF90320FEF708FC01E0012AA4
:1069B000F4D010BD2C08002010B50548FEF714FDDA
:1069C000044B0021188EC0B2FEF7CAFC10BDC046B1
:1069D0004C0500202C08002010B5C8210148FEF706
:1069E00007FD10BD4C05002070B50C4D0C4C32213C
:1069F0002800267800F05CFA03000A4876008353EA
:106A000023780133DBB22370202B06D1064B4021C3
:106A1000EA5AFFF723FC0023237070BD6C050020A9
:106A2000DC0900209C0900200E02000070B50F4B0D
:106A30000F4DEC5A200004F04BFF011E0ED08123B5
:106A40009B00EA5800231425063298B2844206D8E7
:106A500022000848FFF728FC01F05AFD70BD2E0007
:106A60005E43965B58000E520133EEE70E020000C3
:106A70006C05002000F8000810B50F4B2C229B5E1F
:106A8000012B08D190204021C00502F0F1F800222E
:106A900001280AD010BD002BFCD190204021C00558
:106AA00002F0E6F80028F5D1012290204021C0052F
:106AB00002F0E4F8EEE7C0462C08002010B5094CBF
:106AC0000949200000F0F4F9084B0522984200D152
:106AD000043A84239B00E2542000034912B200F0E0
:106AE000C7F910BD6C050020D5260000D2040000B7
:106AF00010B50E4C0E49200000F0DAF90D4B80B2B3
:106B00000222984208D04D330132984204D00A4BF9
:106B1000C218531E9A41043284239B00E254200081
:106B2000034912B200F0A4F910BDC0466C05002064
:106B3000D62600008307000048F4FFFFF7B5224C7B
:106B40002249200000F0B4F921490500200000F09E
:106B5000AFF920490190200000F0AAF91E49060073
:106B6000200000F0A5F91D493618200000F0A0F91A
:106B7000754019490600200000F09AF918490700ED
:106B800020002DB200F094F9A84218D12000154938
:106B900000F08EF9019BF61973401EB2B0420ED17F
:106BA000842301229B000E49E2542000002200F0C1
:106BB0005FF9002220000B4900F05AF9F7BD842349
:106BC00005229B00E254F9E76C050020F126000045
:106BD000F22600000227000004270000032700001F
:106BE000EF260000F026000010B51D4C1D492000C6
:106BF00000F05EF91C4A0123904219D020001B4985
:106C000000F056F91A4A0223904211D02000194987
:106C100000F04EF9FA220323D200904208D020005F
:106C2000154900F045F9154BC3185A1E934104331A
:106C300084229200A354200000220A4900F018F98F
:106C400000222000094900F013F900222000094920
:106C500000F00EF900222000074900F009F910BDEC
:106C60006C050020EA260000D2040000E92600009E
:106C700083070000E8260000E726000048F4FFFF35
:106C800010B50A00010090230148FFF7B1FA10BDCA
:106C900000F800081FB5064A064B0292064A019208
:106CA000902200928F3A110000F008F805B000BD64
:106CB0001027000064BC0008816C0008F0B585B0A6
:106CC00000930AAB040018880CAB1D88012A48D138
:106CD00080235B0062706380009A0533FF3321706C
:106CE000E2508322002305219200A3543C4A009FD6
:106CF000A0520232A1540B990432A1500432A35085
:106D00000432A55214224243D21903923A00039945
:106D10008A4228D101339BB20293DB001800019311
:106D200004F0D6FD82239B00E050002306000500FE
:106D300002001900029883421ED33F20039B9F420A
:106D400020D1019BF3180193019B9D4228D1002380
:106D500014213F20224AA25A9A4232D80022736854
:106D60001A8005B0F0BD91888909081C994200D2AB
:106D7000181C83B21432CAE70133518011809BB2D0
:106D80000832D7E7BA889309DB00F3185988024024
:106D9000013159801988914200D21A801437CDE709
:106DA0006B88002B0BD02F887F00380004F090FDFB
:106DB0003A000C49686004F047FE0835C4E76B6090
:106DC000FBE70A005A43009DAA1892889509ED0036
:106DD00075196D6802405200535301339BB2B9E7F5
:106DE0000E020000FFFF0000F0B500244F782500E0
:106DF000220023002600012F08D1CA880B8952BA2D
:106E00005BBA0C794D794E8992B29BB24570C680BF
:106E1000047042808380F0BD030030B54118074CF8
:106E200007488B4200D130BD1A78050A4240D2B2E1
:106E30005200105B01336840F3E7C046B8C7000852
:106E4000FFFF000082239B00C3588A09D2009B18D1
:106E50005A68002A07D03F201B8801408B4202D38A
:106E60004900885A70470148FCE7C046FFFF000010
:106E700070B514000500FFF7E5FF0C4A0300012080
:106E8000934212D014225A4381239B00EB589B1843
:106E900008215A5EA24208DB0A215A5EA24204DCA3
:106EA0001B68002B01D000201C8070BDFFFF00007C
:106EB00010B50400FFF7C6FF084B98420CD08123A1
:106EC0009B00E258F13BFF3B43439B580120002BC2
:106ED00001D00020185E10BD0148FCE7FFFF000054
:106EE000FF7F00008323F0B59B00C25C040087B0E5
:106EF000002A4ED00022C254754B0100C25204A891
:106F0000FFF772FF04AB5E785B88009304AB9B884D
:106F100002932378019304AB1F78019B9F4217D003
:106F2000112E36D12500FF356B710223EB71019BC9
:106F3000601D2B72FF23AE716B720521FF30FFF7CE
:106F40006BFF030AAB72E8720725280007B0F0BD9B
:106F50006188201D0239FFF75FFF04ABDB888342A5
:106F600017D120000099FFF76DFF86239B00E052A8
:106F7000062E4ED0102E0CD02500FF35032E0AD041
:106F80000123803E601D03216F71AE71EB71FF30F4
:106F900072E00025D9E7029A009B6F719B1880224E
:106FA000520293420DDB83233100AB71601D813BA4
:106FB000EB71FF30FFF730FF030A2B726872052573
:106FC000C3E7AE710026029B5B00EB71029B75006C
:106FD000ADB29E420ED1EE1CB6B2601D3100FF3044
:106FE000FFF71AFFA619FF360535030AADB2B371D4
:106FF0007071AAE7009B2000F11889B2FFF758FFD3
:10700000651983B2FF351B0A01362B726872B6B25E
:10701000DCE720000099FFF715FF2500621D2D4BCE
:10702000FF320600FF35039298420DD014234343EC
:10703000029381239B00E758029BFF1884239B0047
:10704000E25C3B7B9A4208D9019B03216B7186234A
:10705000AB71853B0398EB71ACE722892000009966
:10706000D2BAFFF705FF00280CD0237803216B71FB
:1070700086230398AB71E971FFF7CEFE030A6B72AA
:1070800028729CE77B7B002B06D03B683000198878
:1070900085239B00E358984706212378A9716B71DB
:1070A0002500E388FE352B812389601D6B81FF302D
:1070B000FFF7B2FE8123A8819B00E358029A9B1838
:1070C0001B69002B01D108253FE79847FBE7C04625
:1070D0001A020000FFFF0000F8B58327BF0004007C
:1070E0001E00C35D0020150083420ED11800FF2A48
:1070F0000BD8201D04F0EEFC012365802000E35531
:10710000FFF7F0FE3080601DFF30F8BD87239B0045
:10711000C15A00290CD0074A835A01339BB28352CB
:10712000994205D8842305219B00C1540023835232
:107130007047C0461A02000030B585B00C2200210D
:1071400001A804F081FC08222E4C2F4B62618022A2
:107150005204A261C022E261802200252360012343
:10716000D20022622000621D6560A560E560236197
:10717000D377A56200F062FCA84201D000F03AFA91
:1071800080235B0102930623200001A9019503934C
:1071900000F08EFD002801D000F02CFA0123200021
:1071A00001A9019300F084FD002801D000F022FA2B
:1071B0000323200001A9019300F07AFD002801D0EB
:1071C00000F018FA0423200001A9019300F070FDDB
:1071D000002801D000F00EFA0723200001A9019336
:1071E00000F066FD002801D000F004FA1023200012
:1071F00001A9019300F05CFD002801D000F0FAF92C
:1072000005B030BD400A00200024014030B5050023
:1072100089B01422002103A804F016FC1E4B2A6832
:107220009A4236D180211D4B89009A6990200A43E9
:107230009A619A69C0050A4080210192019A5A69AF
:1072400089020A435A615B690B400293029B9B23AC
:1072500003A90393983B049301F04CFC104C114B91
:107260002000236000236360A3608033E3608033E9
:1072700023618023DB0063612023A36180239B01C2
:10728000E36101F053F9002801D000F0B3F92C6359
:10729000656209B030BDC0460024014000100240C4
:1072A000FC090020080002400D480E4BC02210B51A
:1072B00003600C2312030261802243608023520387
:1072C000DB0542618022836000235204C360826137
:1072D000838300F0C5FD002801D000F08BF910BDBC
:1072E000800A00200064004010B5040088B0142219
:1072F000002103A804F0A8FB164B22689A4227D16C
:107300008021154B8904DA6914480A43DA61DA6985
:107310000A4080210192019A5A69C9020A435A61BE
:107320005B690B400293029BC0239B0003930223E3
:1073300004930133069303A90133079301F0DAFBA9
:1073400000221E20110001F0ADF81E2001F0D4F83B
:1073500008B010BD00640040001002400004004866
:107360000121054B82B05A690A435A615B690B409F
:107370000193019B02B0704700100240F0B58BB042
:107380001422002105A804F05FFB8021414B090372
:107390005A6990270A435A615A693F4E0A40802130
:1073A0000192019A5A69C9030A435A615A69FF0551
:1073B0000A4080210292029A5A6989020A435A615C
:1073C0005A6938000A4080210392039A5A69C90217
:1073D0000A435A615B6900220B4004932F49049BC6
:1073E00001F04CFC002230002D4901F047FCE02365
:1073F000002403251B0205A92A4805930695079436
:1074000001F078FB05A9284805950695079401F039
:1074100071FB224B38000593012305A906930794BD
:10742000089401F067FB20230593C42338009B03D5
:1074300005A90693079401F05DFB1C4B300005A9DC
:1074400005930695079401F055FB0123144A30007B
:1074500005A9059206930794089401F04BFBE023DD
:107460003800DB0005A905930695079401F042FB5F
:107470000823300005A905930694079401F03AFB10
:1074800022000221072001F00DF8072001F034F856
:107490000BB0F0BD00100240000400484480000022
:1074A000708000000008004800140048847C000040
:1074B000074B084A1A60084A1A6000225A60074AB5
:1074C0009A600722D9681142FCD1054A1A607047B8
:1074D00000300040CCCC000055550000FF0F0000EC
:1074E000AAAA00000123264910B50A689A431A4344
:1074F0000A600A681A42FCD0224C626B1343636331
:107500000223626B1A42FCD0F823626B9A43783BE9
:10751000134363638023626B5B02134363638023C3
:107520009B02626B1A42FCD00123626A13436362BE
:107530000223626A1A42FCD0F022636893436360BC
:107540006368114A134003226360636813436360F6
:107550000932636813400C2BFBD10C4803F020FA6E
:10756000032000F061F8002801D072B6FEE7042283
:10757000636B93436363236B7C329343236310BD3C
:107580000020024000100240FFF8FFFF006CDC0208
:1075900010B5FEF7C5F800F0CDF9FFF7A3FFFEF731
:1075A000E3F8FFF7EBFEFFF7DBFEFFF7C5FD03F0A7
:1075B0007DFF00F0D5F800F045F9FFF779FFFFF700
:1075C00073FEFEF7E7FBFEF7F9FBFCE70368074AEB
:1075D00010B5934202D100F0BDF910BD044A126803
:1075E0009342FAD1FEF74EFDF7E7C0460040014056
:1075F000F40A002072B6FEE701210A4B82B09A69B4
:107600000A439A619A690A4080210092009ADA69D5
:1076100049050A43DA61DB690B400193019B02B023
:107620007047C04600100240802170B5204B4902CF
:107630009A6986B00A439A619B6905000B400193E1
:10764000694602A8019B02F0A7F9059B002B28D1EF
:1076500002F092F9174E184B18493360184BF3603B
:10766000FCF778FD00230138706030003361B360AF
:10767000B36102F081FB041E10D1300002F05EFA0B
:10768000041E0BD1142000F037FF032D0DD822006B
:107690002900142000F006FF0A4B1D60200006B0F0
:1076A00070BD02F069F94000D4E70124F6E7C04656
:1076B00000100240A80A00200040014040420F0094
:1076C000E70300000C0200207047FEE77047704798
:1076D000704710B5202001F0D7FA10BD10B5024850
:1076E00002F060FA10BDC046F40A002010B502484E
:1076F00002F058FA10BDC046A80A002010B5024892
:1077000000F0D5FD10BDC046800A002010B502482B
:1077100001F036FB10BDC046901200200B490C4A08
:107720000300521A0B4910B50868002801D10A4815
:1077300008600868C318934206D904F09FF90C2327
:1077400003600120404210BD0B60FCE70004000014
:1077500000400020F00A0020B8160020704700000A
:1077600009480A4B10B50360032343600023084A0D
:107770008360C2600361836102F0FEFA002801D0D9
:10778000FFF738FF10BDC046F40A0020002000407B
:10779000DF2E0000074B026882B09A4208D1022116
:1077A000054BDA690A43DA61DB690B400193019BFF
:1077B00002B07047000400400010024007B50B4BB8
:1077C00002689A4211D18021094B4900DA691320DD
:1077D0000A43DA61DB6900220B400193FF39019B08
:1077E00000F060FE132000F087FE07BD002000407F
:1077F0000010024010B5040086B01422002101A838
:1078000004F022F90C4B22689A4213D180210B4BD1
:10781000C9025A690A480A435A615B690B400093DE
:10782000009B03230193013B029301A9013B0593B4
:1078300001F060F906B010BD0004004000100240E5
:107840000004004830B58BB00822002101A804F0E4
:10785000FBF81C22002103A804F0F6F81D4C1E4B77
:107860001E4A2360002320006360A360E26023615E
:10787000A36102F0A9FA002801D0FFF7BBFE202384
:1078800001930023200001A9029302F0D7FB0028F6
:1078900001D0FFF7AFFE60230025039308225E3B73
:1078A000200003A904950593079502F0F5FAA84274
:1078B00001D0FFF79FFE0C22200003A9059502F0DE
:1078C000EBFA002801D0FFF795FE2000FFF792FFAA
:1078D0000BB030BD3C0B002000040040FF7C0000DA
:1078E0000D4885460D480E490E4A002302E0D45843
:1078F000C4500433C4188C42F9D30B4A0B4C0023F8
:1079000001E013600432A242FBD3FFF727FF04F02B
:10791000BBF8FFF73DFEFEE700400020000200201C
:10792000D003002014CA0008D0030020B4160020A1
:10793000FEE700001023064A10B5116803200B4330
:107940001360FFF771FEFFF757FE002010BDC04621
:1079500000200240034A044B11681B785B18136037
:107960007047C046840B002008020020014B1868B5
:107970007047C046840B002070B50400FFF7F6FF87
:107980000500631C02D0044B1B78E418FFF7EEFFE0
:10799000401BA042FAD370BD08020020002373B53B
:1079A00003210193036804009A680A40012A07D161
:1079B0001968114201D0002076BDDA681204FAD4A9
:1079C00099681B4A114209D01023A26B1343A36389
:1079D0000123E26B13430120E363EDE70122996881
:1079E0000A439A60134B14491868FCF7B3FB0190E3
:1079F000019B002B17D1FFF7B9FF01250600236873
:107A00001B682B42D7D1FFF7B1FF801B0228F6D9A4
:107A100023681B682B42F2D11023A26B1343A3638C
:107A2000E36B2B43D7E7019B013B0193E0E7C046A3
:107A3000170000800402002040420F0070B5041EB1
:107A400000D190E0836B002B05D102003432C36378
:107A50001370FFF7DBFBA36BDB0600D585E0226824
:107A600093685B0700D580E0A16B424B1940063359
:107A7000FF330B430321A36393680B40012B05D114
:107A8000116819420ED1D3681B040BD41821D36896
:107A90008B43A1680B43D360136961689B009B080B
:107AA0000B431361D36834490B40D360237E607E5F
:107AB0009B03C0030343A17EE068034348030343E1
:107AC000601DC07F40000343A06A0138451EA841E5
:107AD00000030343206902384542684180000343A4
:107AE000E07E012804D100292BD1802149020B43DB
:107AF000C220E169FF30814202D0206A01430B437A
:107B00008020D16840051943D160E16A814202D0EA
:107B1000481E062807D8072550692940A843506108
:107B2000506901435161D26814490A409A4210D108
:107B300000200323E063A26B9A43023B1343A36339
:107B400070BD2021A56B2943A163E16B0843E0636D
:107B5000CEE71223A26B9A43023B1343A363012394
:107B6000E26B1343E3630120EAE71023A26B1343A4
:107B7000A363F8E7FDFEFFFF1902FEFFE7FF3F8367
:107B8000F7B5036804009B680E00022001925B07B2
:107B900030D4270034373B78012B2BD001233B70A6
:107BA000637E012B27D1A26B164B00251A40802340
:107BB0005B001343A363E5633D70206B124B2168A8
:107BC0008362124BC362124B03631C230B604A682F
:107BD0000C3B13434B600123CA681343CB60320054
:107BE000019B403100F0D4FC0423280022689168F6
:107BF0000B439360FEBD2000FFF7D0FE0028D2D0DB
:107C0000F8E7C046FEF0FFFF197C00088B7C0008F7
:107C1000977C0008704700005022436A10B5996BAA
:107C200011422BD1996BB132FF320A43C0219A63C2
:107C30001A680901D068084213D1997E002910D131
:107C4000116809070DD5916849070ED40C205168B9
:107C500081435160996B0B4A11400432FF320A4351
:107C60009A631800FFF7D6FF10BD2022996B0A43D4
:107C70009A630122D96B0A43DA63F2E71B6B1B6B31
:107C80009847F1E7FEFEFFFF704710B5406AFFF727
:107C9000FBFF10BD70474023406A10B5826B134351
:107CA00083630423C26B1343C363FFF7F3FF10BD69
:107CB000F7B5002204000192343422780300C66A2A
:107CC0000220012A2CD0013820701A6895686D07AF
:107CD0005BD40B684F681D00BC462E4F9840103D8A
:107CE000BC453CD0976A38439062072E0FD8002ECF
:107CF00011D10720566989680640B1420BD05669F8
:107D000001408643566156693143516103E080204A
:107D100040058642EDD1022D03D9002000232370B7
:107D2000FEBD1D4880210268102B14D0112B14D1E8
:107D3000C9030A430260102BEFD1184B1849186889
:107D4000FCF708FA0A2343430193019B002BE4D07C
:107D5000019B013BF8E70904EBE74904E9E7916A75
:107D600081439162022DD8D80B4A1168102B0AD09A
:107D7000113B581E83410B485B4203400A481B18C5
:107D80000B401360C9E7094BFAE72022996B0A43BD
:107D90009A63C3E701100000082701400402002095
:107DA00040420F00000040FFFFFFBFFFFFFF7FFFCB
:107DB000F8B506003436337804000220012B45D094
:107DC00001230321337023689A680A40012A05D1F0
:107DD000196811423BD1DA68120438D4A16B1F4AEA
:107DE00011400632FF320A430321A263DD68DA68DC
:107DF0008A43DA608022996812060A439A60FFF784
:107E0000B5FD070023689A68002A0DDB0321DA68B4
:107E10000D401543DD6001230020A26B8A4313430C
:107E2000A3630023337011E0FFF7A0FDC01B0228FD
:107E3000E8D923689B68002BE4DA1223A26B0120A7
:107E40009A43023B1343A36300233370F8BD2023FE
:107E5000A26B01201343A363E3E7C046FDFEFFFFCF
:107E6000F8B5041E62D0451CEB7F002B01D1FFF753
:107E70003BFA0127226813683B431360FFF776FD46
:107E8000060023685A683A4244D002271A68BA4367
:107E90001A60FFF76BFD060023685A683A4247D123
:107EA000217E8022012949D119680A431A60617E26
:107EB0004022012946D119680A431A60A17E202276
:107EC000012943D119680A431A60E17E1022012971
:107ED00040D1196891431960217F082201293DD1C1
:107EE00019680A431A60617F042201293AD119688E
:107EF0000A431A60E168A26800200A4321690A4324
:107F000061690A43616801390A43DA6101236062E9
:107F1000EB770CE0FFF72AFD801B0A28B1D98023FC
:107F2000626A9B02134363620523EB770120F8BD6D
:107F3000FFF71CFD801B0A28AED9F0E719689143B2
:107F40001960B4E7196891431960B7E7196891435C
:107F50001960BAE719680A431A60BDE719689143C6
:107F60001960C0E7196891431960C3E770B5421CF6
:107F7000D27F0368013A012A64D880240120A4003A
:107F80001A59872602431A514A69E23CFF3C1440C1
:107F9000A040B6009C59C54384439C51CC69002C39
:107FA00035D1103E9C59D2002C409C51CC684E6873
:107FB0002404B6B2344390269A18B60094518C68C3
:107FC0000E682404B6B234439126B600945181223F
:107FD0008C699200002C2FD19C582C409C508522FB
:107FE0000C699200002C2AD19C582C409C500A6AA3
:107FF000012A04D1872189005A5802435A5080210E
:10800000012089005A58824300205A5070BD012C2B
:10801000DDD18326B6009C59D20004439C510C68E4
:108020004E682404B6B2344390269A18B600945190
:108030008C68CE682404C5E79C580443CEE79C585E
:108040000443D3E78023426ADB02134343620120E7
:10805000DCE7F8B5471CFB7F0400DDB2012B1ED125
:108060000133FB7702681368AB431360FFF77EFCB4
:10807000060023685B68180028402B4201D160622B
:10808000F8BDFFF773FC801B0A28F2D98023626ACF
:108090009B02134363620523FB770120F0E78023F3
:1080A000426A1B0313434362F7E7F0B5441CE67FC3
:1080B0000568013EAC68012E50D8E02676053442B2
:1080C00045D0A0010124800F84401C6004008F680B
:1080D000CE681834002F35D10B685B05334324017B
:1080E0006351C2230E6900012C185B00E650097D24
:1080F000012903D1E658FF313143E1505179137919
:108100000902194393791B040B43D17909061943DA
:108110002B1818008D30FF30016050781178000264
:1081200008439178D27809040143120689330A433F
:10813000FF331A60C022012300205200A1580B43D4
:10814000A350F0BD4B683743DB003B43C7E78023B8
:10815000426A9B03134343620120F2E78023426A91
:10816000DB02F7E7F7B5441C0191E47F013C012CE9
:1081700000D97AE003240568002909D1EE68264277
:1081800008D18023426A9B03134343620120FEBD52
:108190002E69F4E7D826019976000C0104212C19E8
:1081A000A7590F40976058D1A7597F0D1760022734
:1081B000A6593E40D6600826B337FF37E159314211
:1081C00002D10F21E6590E401661E659E459360AEC
:1081D000240CF6B254619661019A01991201AD180E
:1081E000B935FF352C681C700468A418B934FF3405
:1081F0002468240A5C700468A418B934FF34246825
:10820000240C9C700468A418B934FF342468240E2C
:10821000DC700468A418BD34FF3424681C71046841
:10822000A418BD34FF342468240A5C710468A418BF
:10823000BD34FF342468240C9C710468A218BD323C
:10824000FF321268120EDA7102682023002908D169
:10825000D1680B43D360002099E7A759FF08576006
:10826000A5E711690B431361F5E78023426ADB023E
:108270008AE7421CD27F0B00013A012A05D8026826
:10828000002051691943516170478023426ADB0223
:10829000134343620120F7E7704770477047704708
:1082A0007047704770477047704770477047F0B528
:1082B000036885B05E695A689F680192DA68340085
:1082C00002921A69050003929A69009201221440F1
:1082D000164220D0174205D09A60BB0700D4A9E00F
:1082E000FEF756F8002480235B001F4207D02A685F
:1082F0009360BB0500D4AAE02800FFF7CDFF8023E0
:108300005B021F4207D02A689360BA0300D4ADE035
:108310002800FFF7C2FF330708D51023029A1A423C
:1083200004D08022920014432A68D360730708D5D2
:108330000823029A1A4204D02A682800D360FFF763
:10834000B0FFB30706D52B68DB689B0702D0280077
:10835000FEF70EF8730608D51023039A1A4204D0CC
:108360008022D20014432A681361B30608D508237B
:10837000039A1A4204D02A6828001361FFF793FF7A
:10838000F30606D52B681B699B0702D02800FFF770
:1083900089FFB30308D51023019A1A4204D02A6832
:1083A00028005360FFF780FFF30308D50823019AE4
:1083B0001A4204D02A6828005360FFF776FF33047E
:1083C0002ED5019B2A685B0728D5F30503D5012329
:1083D00000990B401C43B30504D5022300991942B0
:1083E00000D01C43730504D504230099194200D022
:1083F0001C43360512D57021009B00980B400842A3
:108400000CD0402B46D03DD8202B45D0302B45D02A
:10841000102B3ED0702193698B43936104235360EA
:10842000002C05D06B6A280023436B62FFF73EFFE8
:1084300005B0F0BD7B0704D43B0705D4FFF72EFF42
:1084400050E7802424014EE7802464014BE77B053C
:1084500003D580239B011C4351E73B0502D58023B4
:10846000DB01F8E72800FFF71AFF48E77A0303D596
:1084700080231B021C434EE73F03FBD42800FFF779
:108480000FFF48E7502B0BD0602BC3D180235B003C
:1084900000E008231C43BDE71023FBE72023F9E796
:1084A0008023F7E710B5FF2403220B0021000240D0
:1084B000D20091409B012340C943934000280ADB2E
:1084C000C0240B4A800880008018A40002590A408A
:1084D0001343035110BD0F2210400838054A80088D
:1084E00080008018C26911401943C161F2E7C0469B
:1084F00000E100E000ED00E0002805DB1F2318404C
:108500001E3B8340014A13607047C04600E100E013
:10851000BFF34F8F034B044ADA60BFF34F8FC0465F
:10852000FDE7C04600ED00E00400FA0570B5040068
:108530000120002C24D00223A51CEB772068114BCE
:108540000268A1681A4063680B43E1680B43216924
:108550000B4361690B43A1690B43E1690B4313436F
:108560000360094B1421C018FBF7F4FD074B800092
:108570002064E36300200123A063E418EB77E07735
:1085800070BDC0460FC0FFFFF8FFFDBF00000240F6
:10859000F7B5441C0193E57F012D33D00125871CDD
:1085A000E577FD7F0026AC466346EDB2012B28D16E
:1085B0000224FC77046886632668076CAE43BD40DE
:1085C0002660019BC66B756063604368102B0ED1FB
:1085D000A260E160C36A2268002B0BD00E23134314
:1085E000236001230020226813432360FEBDA160A5
:1085F000E260EFE70A2313430422236023689343D6
:10860000EEE7E6770220F1E70C4A1021D06830B59A
:1086100003000B40084205D002230948C4692343E4
:10862000C3610B000420D168014205D00121044C34
:108630000343E5692943E161D36030BD0020024076
:10864000880B0020064B00201A69120606D5054A41
:108650005A60054A5A6018690006C00F7047C04644
:108660000020024023016745AB89EFCD8023034AF8
:10867000002011690B4313617047C046002002407F
:10868000074B8022196910B50C009200012014409C
:10869000114204D12000034A9A60034A9A6010BD37
:1086A0000020024023016745AB89EFCD034A04490E
:1086B000136900200B4013617047C0460020024040
:1086C000FFFDFFFF70B50400FFF750F9012605001C
:1086D000104BDA68324211D12022D968114200D001
:1086E000DA60D968102208001040114202D1DB681C
:1086F0005B0708D5FFF788FF012004E0621CE8D083
:10870000002C01D1032070BDFFF730F9401BA042BF
:10871000DED9F7E700200240F0B585B003931E4B89
:10872000009102921A7E04000220012A31D0012217
:108730001A481A76FFF7C6FF002827D12600012C19
:1087400003D00426022C00D126000024124B0193F2
:10875000029803992201FBF773FE00220127019B77
:108760000F4DDA612B69009A3B432B6163009B1824
:1087700080B218800948FFF7A5FF2B69BB432B6126
:10878000002803D1E419E3B29E42E1D80022024B53
:108790001A7605B0F0BDC046880B002050C300001B
:1087A000002002408023054A10B511699B010B434C
:1087B00003481361FFF786FF10BDC046002002404A
:1087C00050C300000022064BDA61064B04321969DF
:1087D0000A431A61402219690A431A617047C04668
:1087E000880B00200020024070B506001248FFF7F9
:1087F00069FF00281ED12025104B114CD861236938
:108800000D482B4323614023226913432361FFF763
:1088100059FF2369AB43236100280BD12369103D25
:108820002B432361074B04481E80FFF74BFF23694E
:10883000AB43236170BDC04650C30000880B0020CD
:108840000020024000F8FF1F062270B5114CAA2537
:10885000E369134203D011355B0700D511350E488B
:10886000FFF730FF002814D120260C4BD861236974
:108870000948334323614023226913432361FFF7EF
:1088800021FF2369B3432361002802D1E8B2FFF737
:10889000ABFF70BD0020024050C30000880B0020D9
:1088A000F7B5564E0400337E0220012B65D0013807
:1088B00030762368034261D06368A568504F8342D5
:1088C0003BD13B6A4F480193FFF7FCFE002852D191
:1088D000F061FFF7B9FF00284DD1019BAB431D00AC
:1088E000D9B210233A6913433B61FF2934D12B0AD3
:1088F000DBB2FF2B08D0444942484A8913404B81E0
:10890000FFF7E0FE002830D12B0CDBB2FF2B08D0A4
:108910003D493C488A8913408B81FFF7D3FE0028EC
:1089200023D100202D0EFF2D1FD0374B3548DA897B
:108930001540DD81FFF7C6FE17E03B6A3148019321
:10894000FFF7C0FE002816D1F061FFF77DFF002879
:1089500011D1019B2B43C2E72B4A2A4813890B40B4
:108960001381FFF7AFFE0028C1D010223B6993436B
:108970003B61002802D000233376FEBD23689B07AD
:1089800004D5207BFFF730FF0028F4D123685B0774
:108990001AD5637B1B480193FFF794FE0028EAD1A8
:1089A0001027174DF0612B69019A3B432B618823F7
:1089B0001A431300144A13485380FFF783FE2B69B0
:1089C000BB432B610028D6D123681B07D3D523696D
:1089D0000C480193277DFFF775FE0028CBD11025A9
:1089E000074CF061236907482B432361019B1F80DB
:1089F000FFF768FE2369AB432361BCE7880B0020C7
:108A00000020024050C3000000F8FF1F072310B5EC
:108A100006240360084B1A6A8260D969AA2221429F
:108A200003D01132490700D5113202737722DB6976
:108A30001B0A1340437310BD002002400022064B66
:108A4000DA61064B023219690A431A614022586101
:108A500019690A431A617047880B00200020024000
:108A6000F8B5214F04003B7E0E000220012B0CD0F4
:108A700001233B7623681D48012B12D1FFF722FE0C
:108A8000002803D0012000233B76F8BDFFF79AFEB3
:108A90001648FFF717FE0421154A13698B4313612B
:108AA000F1E7FFF70FFE0028ECD101235B423360B2
:108AB00065680130A3686268DB029B18AB42E2D9AB
:108AC0002800FFF7BBFF0948FFF7FCFD0221084A19
:108AD00013698B431361002801D03560D3E78023ED
:108AE0001B01ED18E6E7C046880B002050C30000CC
:108AF000002002400023F0B587B00A681400DC4073
:108B000001D107B0F0BD012514009D402C40009418
:108B10002A4200D19CE04A685F00944603226446E2
:108B200022400324BC40E4430194541E012C2ED85F
:108B30008668019C2640CC68BC403443846044680D
:108B40000126AC4325006446240934409C402C4354
:108B50004460C568019C25408C68BC402C43C460BF
:108B6000022A16D107250F261D40AD00AE40DC08B5
:108B7000A40004190294246A03962600039CA643C9
:108B800034000E69AE402643029C266201E0032AAF
:108B9000DFD1BA400468019D25402A43C024026009
:108BA0006246A402224253D001252A4A90279469A2
:108BB000FF052C43946192699C082A400592059A0E
:108BC000254AA400A4180F2202351D40AD00AA407A
:108BD000A66896430022B84210D0204F0132B84216
:108BE0000CD01F4F0132B84208D01E4F0132B8429C
:108BF00004D01D4A8218571EBA410432AA40674663
:108C00003243A260194A009C9668009DE4433543B4
:108C1000FF0201D43500254067469560D668009D67
:108C20003543BF0201D4350025406746D5605668FC
:108C3000009D3543BF0301D435002540674655608C
:108C40001568009E2E43FF0301D425402E001660B8
:108C5000013352E7001002400000014000040048C8
:108C600000080048000C004800F0FFB70004014075
:108C700000690840431E9841C0B27047002A01D0E5
:108C8000816170478162FCE7044B10B55A6910425C
:108C900002D05861FDF732FA10BDC0460004014011
:108CA00070B504000120002C2BD0224D635DDAB298
:108CB000002B05D1A4239B002000E25402F0E2FC2B
:108CC00003236355206801F0F7F9002322001900FF
:108CD000012620791032984214D100212200080088
:108CE0005132FF328B4217D16168A268206801F0CF
:108CF000EDF90023237301336355A37A012B15D0BB
:108D0000002070BD137001335670D1701161516134
:108D10009161DBB22832DEE7117001315070D07002
:108D2000106150619061C9B22832DBE7200000F089
:108D30000EFEE5E79102000070B5A425AD00435D8D
:108D400004000220012B09D001236355206801F0A3
:108D5000A9F9206801F0B5FB0020605570BD70B521
:108D6000A425AD00435D04000220012B07D00123A0
:108D700063552068217301F09DFB0020605570BD94
:108D8000F0B5040085B0006801F0A3FB8023050066
:108D90001B021D40184201D100F027FC2068821DF3
:108DA000D38F1BB2002B01DB05B0F0BD0F21D38F99
:108DB000194000910F219AB20B4200D0C0E010235D
:108DC000110019401A4227D10388CA4A1340802251
:108DD000120213430380030050331A88237CDB0004
:108DE000C3189B18C44A20009B181B88626A9B0505
:108DF0009B0DE362D318636202F075FC237B002BAA
:108E0000CCD0A16A23680029C8D18020227B4C33B2
:108E100002431A802173C1E70288802116000901EC
:108E200093B20E400A4222D0030050331A88A8237E
:108E30005B00E35CA621DB00C3189B18AF4A8900E6
:108E40009B1822001B8851329B059B0DFF32D3617A
:108E50006118D28801F088FD2168A94B0A8820009A
:108E60001A40802313430B8002F028FC96E71BB2C4
:108E7000002B00DB92E70288A14B25001A408023DB
:108E800013430380030050331A88A8235B00E35C7C
:108E90005135DB00C3189B18984AFF359B181B8877
:108EA0009B059B0DEB610DD0696900290AD0EA880A
:108EB00001F05AFD6B69EA6931009B1820006B6173
:108EC00002F005FC21680A8893B2120500D565E717
:108ED000C02292011340934200D15FE70B00874A02
:108EE00050331B888A18D21813889B059B0D13805A
:108EF0002B69002B0ED180201388000203431380BE
:108F00000A88804B1A40C0239B0153407E4A13437A
:108F10000B8043E73E2B08D8012558082B40C0188A
:108F20001388800203439BB2E9E71F2558092B40B1
:108F30005D426B41C01A138880021843734BF1E7FE
:108F4000009B9F00C219138899B21BB20191002B9C
:108F500000DB92E013886A490B4080210B431380A9
:108F60002823009A5343E3181A001D005D32FF3294
:108F700012785135FF35002A14D102005032118881
:108F80002A78D20052185D49121852181288920598
:108F9000950D002A56D01A005732FF32FC331900C3
:108FA00012884BE019005431FF3109782A780229E0
:108FB00000D0E3E08026F601B4466546019EFC330E
:108FC0002E4003960600503602966646019DD96EE5
:108FD000354200D1A0E0029D2E88D5007619464D7D
:108FE000361876193588AD05AD0D8D420DD90021A5
:108FF000D966910041180E88424B1E4080239B0188
:109000007340414E33430B8002E0491BD966F0D0D8
:10901000019B5B0607D59200821813883C490B40E0
:109020003C490B431380002D0CD02823009A534356
:10903000E1180A005932FF321288FC312B00896E88
:1090400001F092FC2823009959436218FC32106FFA
:1090500040191067906E40199066D06E002803D0BA
:10906000526E954200D3B3E0009A20005343E318B8
:109070005133FF33197802F02AFB8022019B2068CC
:10908000134200D18AE6C21913881A49009E0B4088
:109090001E490B439BB2138028225643A319D97C47
:1090A000012900D0C7E0009901314A430021115144
:1090B0001A7F8A4200D19EE04022019D019E154008
:1090C000164200D1A0E05A7C8A4200D087E002001C
:1090D000503211881A7C084BD200C018411852181F
:1090E00013880A499B059B0D138013880B439BB281
:1090F000138080E00F8FFFFF0204000006040000D1
:109100008F0F00008FBFFFFF808000000080FFFFF7
:109110008F8FFFFFC0800000029D2E88D50076193A
:10912000C74D361876193588AD05AD0D8D420DD970
:109130000399D966910041180E88C24B1E408023C6
:109140009B017340C04E33430B8002E0491BD9663C
:10915000F0D0019B5B0607D4920082181388BB49AC
:109160000B40BB490B431380002D00D16AE7282335
:10917000009A5343E1180A005B325CE792008218C0
:109180001688B2493140B24E314311802A7891009D
:1091900041180D88010050310988D2005218121868
:1091A0006D040AD5AB49521812889205950D002A14
:1091B00000D147E71A005932EFE6A1495218128848
:1091C0009205950D002A00D13CE71A005B32E4E6D7
:1091D0005131FF312068611801F094F94DE7012AFF
:1091E00009D102009B4D503212881B7C4019DB00D4
:1091F00080181B1819802823009A5343E318197C00
:10920000200002F070FAC9E55A7C002A06D102005B
:10921000503211881A7C8A4BD2005EE7012AEAD1CB
:1092200002008749503212881B7C4018DB008018EE
:109230001B181D80DFE7802701997F0039401A7CC9
:109240008C46019902929D6AD20039421CD10700D6
:1092500050373F88BF187F4A3F18BF183A88920599
:10926000920DAA4203D3624602999A62C8E7596AEC
:10927000AD1A89185962D96A10368A189D62DA6265
:10928000A11901F03FF989E540218C46019F0600B4
:109290000F400397674601995036394200D1DFE00D
:1092A0006C49378846180021F719BF5A8C46BF050C
:1092B000BF0DAF4201D2E91B8C4661468025996201
:1092C0000199ED0129400D006146002947D128236D
:1092D00000994B43E3185B7C002B30D107005037DB
:1092E0003B885D49F3189B181E88B605B60D1E8095
:1092F0001E880E43B6B21E80514E3B888019C0189E
:10930000801803889B059B0D038003880B439BB249
:1093100003802000029902F0E6F9002D00D1DCE084
:109320002823009A49495343E3181B7C22689B0079
:10933000D21813880B4049490B431380CDE0012B11
:10934000E7D10700614650373B88F3189B18198016
:109350003B493B884018C01880186346D8E7002D69
:109360000CD00299890041180D880191AC466146E4
:10937000364D0D4039490D4301990D80282500993E
:109380004D4334218C466519AC4461460978012966
:1093900000D0A2E0696AC91969620191D96AC91944
:1093A000D9622B6B296A8B4217D35B1A2B63282354
:1093B000009D6B43E3185D7C8BB2002D37D1050017
:1093C00050352D887519AA181588AD05AD0D158075
:1093D00000290ED11188204D13E0002B03D16146E6
:1093E0000B703900E3E700216746397029631900E3
:1093F000DDE73E2911D801264D080E40AD19118830
:10940000AD02294389B21180282200994A43A2184B
:10941000128B019901F061F85FE01F264D09314080
:109420004E4271416D1A1188AD022943D3E7012DD7
:10943000EAD10100503109887618B6183380E3E785
:10944000060400008FBFFFFF808000008F8FFFFFAA
:10945000C0800000020400000080FFFF80C0000008
:10946000AC4936888C4684446644B65A039FB60598
:10947000B60DAE4200D8AF1B80250199ED01294001
:109480000D009F62002F49D1282300994B43E31818
:109490005B7C002B33D103009F4950331E8840185A
:1094A0008019801806889D49B605B60D0680068885
:1094B0000E43B6B206801B8863449B181A88920537
:1094C000920D1A801A880A4392B21A8020000299DB
:1094D00002F009F9002D00D122E72823009A534316
:1094E000E3181B7C22689B00D21811888C4B194012
:1094F00030234B408B490B431380FFF74FFC012B6C
:10950000E4D10300844950331E8840188019801824
:1095100007801B8863449B181F80D7E7002908D168
:109520000299814D890041180F883D407F4F3D438E
:109530000D80282700994F43E719390034310191F4
:1095400009780129C9D1796A89197962DD6AAD1969
:10955000DD623B6B3D6AAB4217D35B1B3B63282349
:10956000009E7343E3185E7CABB2002E34D106003C
:10957000503636886644B2181688B605B60D168081
:10958000002D0ED11588654E13E0002B03D1019DEF
:109590002B703500E3E70025019E3D6335701D000B
:1095A000DDE73E2D0ED801276E082F40F6191588ED
:1095B000B6023543ADB215802822009D6A43A21839
:1095C000528B27E71F276E093D406F427D41761B76
:1095D0001588B6023543D6E7012EEDD1050050358A
:1095E0002D886544AA181380E6E743050ED5236845
:1095F0004F490633DA8F20000A40DA8702F085F8F7
:1096000029002000FFF7ABFBFFF7CEFB430407D593
:10961000236848490633DA8F0A40DA87FFF7C4FB2C
:10962000802301009B011940184204D0236842495D
:109630000633DA8FF0E7C3041AD504202368023317
:10964000DA8F8243DA87DA8F00188243DA87B2230F
:109650009B00E25C012A03D12000E15400F08BF969
:10966000200002F075F8236834490633DA8FD3E717
:10967000030513D5082123689A1CD08F06330143B4
:10968000D187D98F2E480140D9870423D18F0B432E
:10969000D387200002F04AF8FFF786FB8025284296
:1096A00021D0B22023688000991DCA8FAA43CA879F
:1096B000225C002AEDD104219A1CD58F5433294312
:1096C000D1870821D58F2943D18701213C222154FC
:1096D0001B8820009B081340B3229200A35000F087
:1096E0004AF9FFF761FB83050AD52368154906335C
:1096F000DA8F20000A40DA8702F000F8FFF754FB07
:10970000C00501D4FFF750FB23680F490633DA8FF9
:1097100082E7C04606040000020400000080FFFF4C
:10972000BF8FFFFF808000008F8FFFFF80C0000091
:10973000FFFBFFFFFFBFFFFFFFDFFFFFFFEFFFFFAD
:10974000FFF7FFFFFFFDFFFFFFFEFFFF70B5040007
:1097500007200D000840282141436DB26618002DF6
:1097600018DA012510316118757408700A61CB7020
:10977000022B01D100230B71A425AD00635D0220F3
:10978000012B06D001236355206800F0ADFC0020BA
:10979000605570BD002551315236FF31FF366118DA
:1097A0003570E2E707220B000A40282151435BB2E3
:1097B00070B504004018002B12DA01231031611833
:1097C0004374A4250A70AD00635D0220012B06D00E
:1097D00001236355206800F097FD0020605570BD9F
:1097E000002351315230FF31FF3061180370E8E738
:1097F000F8B50724214021344C4306193700FC37C3
:10980000FB6633000025523351365134FF33FF36A7
:10981000FF343D67BA661D7031700119006800F0B1
:1098200071FE2800F8BD07230B402821594340183A
:10983000FC30006F704770B50724214021344C4341
:1098400006193500726201223435B3622A70002590
:109850001034F5623174336372740119006800F0DA
:1098600051FE280070BD072270B5037904000A403C
:109870000120934219D348B22823002816DA534313
:10988000190001201031E318611858740123A42530
:109890008B700A70AD00625D02209A4205D063555C
:1098A000206800F0ABFD0020605570BD4B431900EF
:1098B0000020E31851315233FF31FF336118187023
:1098C000E4E70B000F2270B5017904001A40012073
:1098D00091421BD3072228211A4051435BB26018E2
:1098E000002B14DA01231031611843740025A426DB
:1098F0008D700A70B600A35D0220012B06D00123F3
:10990000A355206800F09CFD2800A55570BD0023DC
:1099100051315230FF31FF3061180370E6E730B546
:1099200028240D060BD5072529404C431034001977
:1099300099B2002A07D10273C180002030BD4C4388
:109940005134FF34F3E7012283600273F5E70368C3
:109950000200B420012110B58000B2241150002073
:10996000A400105554331A88114302221980198813
:109970000A431A8010BD7047044B054A5B680549CD
:109980005B055B0FCB5C1068D8407047001002404D
:1099900004020020B8C90008072310B5032403609F
:1099A000094B5A68224042605A68ED342240826076
:1099B000E0225B68D20013400122C360034B1B68A6
:1099C00013400B6010BDC046001002400020024052
:1099D00070B50124036A026AA243026273224468DA
:1099E000856995430A681543022293438A681343A5
:1099F0000E4A904208D00E4A904205D00D4A90423D
:109A000002D00D4A90420BD108229343CA688E6956
:109A1000134304229343094A22404C6934431443BC
:109A20004A68446085614263036270BD002C014056
:109A3000004001400044014000480140FFFCFFFF9E
:109A400070B5184A056A036A1340036273234268BB
:109A5000C4699C430B681C43134B1D408B681B025D
:109A60002B43124DA8420ED1114D1D40CB681B0255
:109A70002B43104D2B40104D8E6915404A693243DF
:109A800012012A4308E00D4DA842F4D00C4DA84223
:109A9000F1D00C4DA842EED042604A68C461C26366
:109AA000036270BDFFFEFFFFFFFDFFFF002C0140C2
:109AB000FFF7FFFFFFFBFFFFFFCFFFFF004001406D
:109AC000004401400048014030B5144A046A036A6A
:109AD000134D134003624368C2692A400D682D028A
