:020000040800F2
:2000000000400020AD030008790300087B03000800000000000000000000000000000000BE
:200020000000000000000000000000007D03000800000000000000007F0300088103000822
:20004000FD030008FD030008FD030008FD030008FD030008FD030008FD030008FD03000860
:20006000FD030008FD030008FD030008FD030008FD030008FD030008FD030008FD03000840
:20008000FD030008FD030008FD030008FD030008FD030008FD030008FD030008FD03000820
:2000A000FD030008FD030008FD030008FD03000889030008FD030008FD03000899030008D8
:2000C00010B5064C2378002B07D1054B002B02D0044800E000BF0123237010BD90030020FC
:2000E00000000000B83B0008044B10B5002B03D00349044800E000BF10BDC04600000000E9
:2001000094030020B83B000802B4714649084900095C49008E4402BC7047C04603B47146BD
:20012000490840004900095A49008E4403BC7047002243088B4274D303098B425FD3030A58
:200140008B4244D3030B8B4228D3030C8B420DD3FF22090212BA030C8B4202D31212090251
:2001600065D0030B8B4219D300E0090AC30B8B4201D3CB03C01A5241830B8B4201D38B0329
:20018000C01A5241430B8B4201D34B03C01A5241030B8B4201D30B03C01A5241C30A8B4284
:2001A00001D3CB02C01A5241830A8B4201D38B02C01A5241430A8B4201D34B02C01A524161
:2001C000030A8B4201D30B02C01A5241CDD2C3098B4201D3CB01C01A524183098B4201D385
:2001E0008B01C01A524143098B4201D34B01C01A524103098B4201D30B01C01A5241C3086F
:200200008B4201D3CB00C01A524183088B4201D38B00C01A524143088B4201D34B00C01AD0
:200220005241411A00D20146524110467047FFE701B5002000F006F802BDC0460029F7D0B8
:2002400076E770477047C046D0400B00D1409C46203AD340184352426346934018437047D5
:2002600001221C4910B50B68934313430B600B681342FCD08023184C5B02626B1343636346
:2002800080239B02626B1A42FCD0F0226368934363606368114A1340032263606368134331
:2002A00063600932636813400C2BFBD10C4802F0CFF9032000F0B6F8002801D072B6FEE74A
:2002C000236B084A134080222363236B9343236310BDC0460020024000100240FFF8FFFF5D
:2002E000006CDC02FFFFFCFF00B589B000F0BEF8FFF7B6FF1022002104A803F055FC802099
:200300000E4B800259690143596180215A69C90202400192019A5A6909480A435A615B69C3
:200320000B400093009B202302A9836202931F3B039301F090FC02F0EBFAFEE70010024061
:200340000004004872B6FEE701200A4B82B099690143996180219A69490502400092009AFC
:20036000DA690A43DA61DB690B400193019B02B07047C04600100240FEE7FEE770477047FA
:2003800010B500F083F810BD10B5024801F004FB10BDC046AC03002010B5024800F056FC6E
:2003A00010BDC04608150020704700000D4885460D480E490E4A002302E0D458C4500433D6
:2003C000C4188C42F9D30B4A0B4C002301E013600432A242FBD3FFF7E7FF03F0C1FBFFF71B
:2003E00083FFFEE700400020000200208C030020203C0008900300201C1A0020FEE770475C
:20040000012210B50024064B52421A611C61DA60DC609A629C62FFF7F2FF200010BDC046A9
:200420000010024070B50500FA200D4B80001978FFF77EFE0B4B01001868FFF779FE00F017
:200440008FF804000120002C09D1032D07D802382200290000F03EF82000034B1D6070BD18
:200460000402002000020020080200201023064A10B5116803200B431360FFF7D3FFFFF7A7
:2004800063FF002010BDC04600200240034A044B11681B785B1813607047C0463404002002
:2004A00004020020014B18687047C0463404002070B50400FFF7F6FF0500631C02D0044B7C
:2004C0001B78E418FFF7EEFF401BA042FAD370BD0402002030B5FF2503242A000440E400CB
:2004E000A24089012940D243A140C3B200280ADBC0240B4B80088000C018A40003591A403B
:200500001143015130BD0F200340083B05489B089B001B18D86902401143D961F2E7C046E5
:2005200000E100E000ED00E0002805DB1F2318401E3B8340014A13607047C04600E100E033
:20054000002809DB1F2318401E3B8340034AD367BFF34F8FBFF36F8F7047C04604E100E090
:200560008022431E5204012093420DD2C021074A07485360036A09061B021B0A0B430362A8
:2005800000200723906013607047C04610E000E000ED00E030B5851CEB7F441C022B05D002
:2005A0000423836300230120E37730BD0E2103681A688A431A600122196891431960016CE2
:2005C000C36B1000884058600020EA77E077ECE770B5841CE37F022B04D004238363033B3F
:2005E000180070BD0E210368056C1A688A431A6001221968914319601100A940C36B596010
:20060000E27700248318DC77426B1300A242E7D090472300E4E700000C4A1021D06830B5AB
:2006200003000B40084205D002230948C4692343C3610B000420D168014205D00121044C2E
:200640000343E5692943E161D36030BD0020024038040020064B00201A69120606D5054A44
:200660005A60054A5A6018690006C00F7047C0460020024023016745AB89EFCD8023034A92
:20068000002011690B4313617047C0460020024070B50400FFF706FF01260500104BDA68F2
:2006A000324211D12022D968114200D0DA60D968102208001040114202D1DB685B0708D591
:2006C000FFF7AAFF012004E0621CE8D0002C01D1032070BDFFF7E6FE401BA042DED9F7E746
:2006E00000200240F0B585B003931C4B019102921A7E04000220012A2ED0012218481A76A1
:20070000FFF7C6FF002824D12600012C02D0022C00D004260024029803992201FFF794FDB0
:20072000002201270D4B0F4DDA612B69019A3B432B6163009B1880B218800948FFF7A8FF79
:200740002B69BB432B61002803D1E419E3B29E42E1D80022014B1A7605B0F0BD3804002098
:2007600050C30000002002400022064BDA61064B043219690A431A61402219690A431A61D9
:200780007047C04638040020002002400022064BDA61064B023219690A431A614022586146
:2007A00019690A431A6170473804002000200240F8B5214F04003B7E0E000220012B0CD068
:2007C00001233B7623681D48012B12D1FFF760FF002803D0012000233B76F8BDFFF7C4FF92
:2007E0001648FFF755FF0421154A13698B431361F1E7FFF74DFF0028ECD101235B423360BC
:2008000065680130A3686268DB029B18AB42E2D92800FFF7BBFF0948FFF73AFF0221084A00
:2008200013698B431361002801D03560D3E780231B01ED18E6E7C0463804002050C30000AC
:20084000002002405A4AF0B58218541EA241002389B0043203910592039A12681400DC40FA
:2008600001D109B0F0BD01210D0014009D402C408C4602942A4200D198E00324039A5E0075
:20088000526801922240B440E143541E049164452AD887680F400399CC680199B4403C43C4
:2008A00084604468AC4325000C0961460C409C402C434460C56804990D4003998C68B44002
:2008C0002C43C460022A11D107250F211D40AD00A940DC08A4000419276A8F430399096912
:2008E000A9400F43276201E0032AE3D1B2400468049921400A430260C02201999202114204
:2009000054D001262B4A032794691D003443946192699C0832400792079A274AA400A4184B
:20092000A2683D4094460F22AD00AA40614691439022D2059446002260450DD01F4A9446C9
:200940003200604508D01E4E9218B04204D01D4E3A00B04200D0059AAA400A430299A26032
:200960000D00194ACC43966801993543C90201D4350025409560D668029D0199354389023F
:2009800001D435002540D5605668029D01993543890301D43500254055601568029E0199DD
:2009A0002E43C90301D425402E001660013353E700F0FFB700100240000001400004004829
:2009C00000080048000C004800040140F0B5364A85B082180191511E8A4100230432039280
:2009E000019ADA4001D105B0F0BD01273A009A40019C009214400099019A0A4251D02B493A
:200A00009A089200521891681D000E0003210D40AD000C31A940029131400E009021C9053F
:200A20008C46002160450DD021498C463900604508D0204F4918B84204D01F4F0131B84217
:200A400000D00399A940B14210D11C490D68A5430D604D68A5434D60CD68A543CD608D68B5
:200A6000A5438D609168029CA143916003215C00A14007240F261C40A400A6400268009C88
:200A80008A430260DA0892008218156AB5431562C2688A43C2604268A243426082688A432A
:200AA000826001339CE7C04600F0FFB7000001400004004800080048000C0048000401407B
:200AC000002A01D0816170478162FCE7426913000B401B049143194381617047F0B5040022
:200AE000012587B0002832D0304D435DDAB2002B04D1AA239B00C25402F0E2FE0323635598
:200B0000206801F003F90023012719006068834220D3002228261100904233D823006A464B
:200B2000103343CB43C203CB03C2A268E3686168206801F0F5F80023621DD3770122625582
:200B40001D00E369934202D1200000F071FE280007B0F0BD29262822B4465A43A2189444B7
:200B6000664637702826B4469444664633702B26B4469444664601333170DBB29163D1635A
:200B80001164C4E733005343E3181F006A37FF373970013F3A70F97081336C3FF967FF338E
:200BA000803701323960D2B21960B5E7A902000070B5041E02D10125280070BD0323064E5F
:200BC0008355006801F0A8FA051EF4D1200002F093FEA555F0E7C046A902000070B5AA2541
:200BE000AD00435D04000220012B09D001236355206801F081F8206801F09EFA00206055C9
:200C000070BD70B5AA25AD00435D04000220012B09D001236355206801F078F8206801F0FD
:200C200093FA0020605570BD70B5AA25AD00435D04000220012B08D001236355631DD9770E
:200C4000206801F072FA0020605570BDF0B5040085B0006801F07FFA802305001B021D40DB
:200C6000184201D100F021FC2068821DD38F1BB2002B01DB05B0F0BD0F21D38F19400191FF
:200C80000F219AB20B4200D0C4E01023110019401A422AD10388B94A134080221202134336
:200CA0000380030050331A88230028331B78DB00C3189B18B24A20009B181B88E26B9B05B0
:200CC0009B0D6364D318E36302F040FE631DDA7F002AC9D0206C0028C6D18022D97F11430F
:200CE00022684C321180D877BEE7028880211600090193B20E400A4222D003005033198824
:200D0000B4235B00E35C9F4ADB00C3185B189B182200AC211B8869329B059B0DFF3289006E
:200D2000D3616118D28801F077FC22689649138820000B4080210B43138002F0F1FD93E7FD
:200D40001BB2002B00DB8FE703888F4A25001340802213430380030050331988B4235B009A
:200D6000E35C884ADB00C3185B189B181B8869359B059B0DFF35EB61002B0DD0696900297A
:200D80000AD0EA8801F048FC6B69EA6931009B1820006B6102F0CDFD21680A8893B21205A8
:200DA00000D561E7C02292011340934200D15BE70B00744A50331B888A18D3181A889205B1
:200DC000920D1A802A693E2A0CD91F2550092A4055426A41801A1A88800210436B4A0243A6
:200DE00092B205E0002A0ED180201A88000202431A800B88664A1A40C0239B015340654A40
:200E000013430B8030E7012550082A40801880021A88E4E7019B9F00C219138899B21BB2A2
:200E20000291002B00DBF7E0138857490B4080210B4313802823019A5343E3181A001D008C
:200E40007532FF3212786935FF35002A1AD10200503211882A78D20052184A491218521827
:200E600012889205950D002A00D1B4E01A006F327D33FF331900FF322B001288096801F002
:200E8000CBFBA8E019006C31FF3109782A78022900D085E08026F601B4466546029E813305
:200EA0002E4003960600503600966646029DFF331968354230D0009D2E88D5007619304D60
:200EC000361876193588AD05AD0D8D420DD900211960910041180B882D4E1E4080239B0128
:200EE00073402C4E33430B8002E0491B1960F0D0029B5B0607D592008218138826490B40EA
:200F000026490B431380002D65D02823019A5343E3181A007132ABE7009D2E88D5007619A2
:200F2000184D361876193588AD05AD0D8D420DD903991960910041180B88154E1E4080239B
:200F40009B017340134E33430B8002E0491B1960F0D0029B5B0607D49200821813880E496A
:200F60000B400E490B431380002D34D02823019A5343E3181A0073327AE7C0460F8FFFFF84
:200F800002040000060400008F0F00000080FFFF8FBFFFFF808000008F8FFFFFC08000007D
:200FA000920082181688C8493140C84E314311802A78910041180D88010050310988D200C4
:200FC000521812186D0463D5C149521812889205950D002A9DD128230199594362181600E4
:200FE0008536FF363068083E4019B06030684019306010008130FF300068002803D0FC32B8
:20100000D26F95424CD2019A20005343E3186933FF33197802F08DFC8022029B134200D10F
:2010200022E62068AB49C2191388019D0B40AA490B439BB2138028235D4365192A002B32BC
:201040001178EA1801295AD1002329002B6434310978994237D04021029E029F0E402935BF
:201060000F4235D02978994221D10300503319881378974DDB0040194018181803889649F0
:201080009B059B0D038003880B439BB203801AE09249521812889205950D002A9BD069E7E5
:2010A0006931FF312068611801F06EF8B4E7012909D10100864E50310D8811788019C90099
:2010C000401909180B801178200002F03FFCCBE52B78002B06D103005033198813787F4D62
:2010E000DB00C8E7012BEED103007C4D5033198813784019DB0040181B181E80E3E712784F
:20110000029F0392D20000928022029952002E6C174011421ED10200503212880099821822
:2011200052186B49521812889205920DB24202D303992F64C8E7E96BB61A8918E963696CCA
:201140002E648A1801996A6401315943611801F01BF889E540220300029F029917405033BF
:20116000114200D1DFE05A491A8847180099BA18525A9205920D94460022B44501D262462B
:20118000B21A282601994E43A619326480260299F60131400E00002A4AD129218C46AC44AD
:2011A0006146097800292ED11A884B49BF18009ABF183A889205920D3A803A880A4392B25C
:2011C0003A80464A1B888018C018009BC01803889B059B0D038003880B439BB20380200020
:2011E000039902F0B3FB002E00D1DBE02B0028331A78236892009A18138833490B4038492F
:201200000B431380CEE00B000129E8D14F339C46844463461B880099FB185B181A80634677
:201220002E491B884018C018009BC0180280D6E7002908D0039B990041180A88224B1340CF
:20124000274A13430B802823019A5343E3181E004C363278012A00D0A4E0DA6B996C62440C
:201260000292DA635A6C62445A649A6B914221D3891A99642B002933197893B2002948D168
:201280000100503109887F1800997F1839888905890D39803E2A25D91F26510932405642C7
:2012A0007241891A3A88890211430B4A114389B239801EE0002902D162463170DAE7002274
:2012C00032709A640A00D5E78F8FFFFFC0800000020400000F8FFFFF0080FFFF0604000022
:2012E00080C00000002A0DD13A88BA490A4392B23A802821019A514361180A8E029900F082
:201300002EFF4FE0012651083240891889023A88CCE70129EDD1020050321288BF18009A67
:20132000BF183B80E5E7AC491A888C46009984446244525A9205920DB24200D8B71A282612
:2013400001994E43A619376480260299F60131400E00002F40D12A0029321278002A2BD1DC
:201360009E491A8840188018009A9A49801802889205920D028002880A4392B202801B885D
:20138000009A63449B181A889205920D1A801A880A4392B21A802000039902F0D7FA002E6D
:2013A00000D123E7283529782368890059180B888B4A1A40302321E5012AECD103008749F9
:2013C00050331A8840188018009A801807801B8863449B181F80DEE7002908D1039B9900A5
:2013E00041180E887F4B33407F4E33430B80282301994B43E3181F004C3739780129D1D166
:20140000D96B9E6C89180291D963596C89185964996B8E4221D3761A9E642B0029331A7878
:201420008BB2002A37D1020050321288009E624492191688B605B60D16803E2917D91F27E1
:201440004E0939404F427941761A1188B6020E4360490E43B6B2168010E0002E02D1110045
:201460003E70DAE7002231009A643A70D5E700290AD11188574E314389B211802821019AE0
:20148000514361184A8E39E701274E0839407618B6021188DDE7012AF0D1020050321288A3
:2014A0000099624452181380E8E743050ED523684E490633DA8F20000A40DA8702F058FA23
:2014C00029002000FFF7B0FBFFF7D4FB430407D5236847490633DA8F0A40DA87FFF7CAFB17
:2014E000802301009B011940184204D0236841490633DA8FF0E7C3041AD5042023680233FD
:20150000DA8F8243DA87DA8F00188243DA87B8239B00E25C012A03D12000E15400F09CF908
:20152000200002F049FA236833490633DA8FD3E7030513D5082123689A1CD08F06330143BD
:20154000D187D98F2D480140D9870423D18F0B43D387200002F01EFAFFF78CFB80252842D0
:2015600021D0B82023688000991DCA8FAA43CA87225C002AEDD1991CCD8F04322A43CA87DF
:201580000822CD8F54332A43CA8701213C2221541B8820009B081340B9229200A35000F082
:2015A0005BF9FFF767FB83050AD5236814490633DA8F20000A40DA8702F0D3F9FFF75AFBBA
:2015C000C30501D4FFF756FB23680E490633DA8F82E7C0460080FFFF0604000002040000A6
:2015E000BF8FFFFF8F8FFFFF80C00000FFFBFFFFFFBFFFFFFFDFFFFFFFEFFFFFFFF7FFFFD3
:20160000FFFDFFFFFFFEFFFF70B505000720084049B2282400291ADA2100461C714301267A
:2016200069184E7008700A61CB70022B01D100230B71AA24A4002B5D0220012B06D001236D
:201640002B55286800F080FB0020285570BD4443210000262C1969316A34FF31FF34691816
:201660002670DFE707220A4049B270B528230400002914DA1900501C4143012061184870BA
:20168000AA250A70AD00635D0220012B06D001236355206800F06CFC0020605570BD53431C
:2016A00019006931FF31C318411800206A33FF331870E5E770B50724214021344C4305191D
:2016C0002E007D36FF3632602A008132FF3213602B0000268533FF3369351E60FF351B3B00
:2016E0001E70297021006931FF314118006800F04BFD300070BD07230B40282159434018D0
:201700008530FF300068704770B528260724214034004C4304192500E26301224C35236452
:201720002A700025A364230065642933A4191A702170891871434118006800F025FD280073
:2017400070BD70B504000722636801200A409A4218D848B22823002815DA1900501C4143A3
:201760000120611848700123AA258B700A70AD00625D02209A4205D06355206800F074FCD0
:201780000020605570BD4B4319000020E31869316A33FF31FF3361181870E4E770B50400F7
:2017A0000F23626801200B4093421BD807220A4049B22823002916DA190010184143012041
:2017C000611848700025AA268D700A70B600A35D0220012B06D00123A355206800F062FCA0
:2017E0002800A55570BD534319000020E31869316A33FF31FF3361181870E3E710B50C009B
:2018000021060CD507212140282401316143401899B2002A08D10273C180002010BD282183
:2018200061436931FF31F2E7012283600273F4E703680200BA20012110B58000B824115020
:201840000020A400105554331A8811430222198019880A431A8010BD70470000F8B5FEF777
:2018600021FE812305000226254C226813432360236833422CD00C266368224A1340636029
:20188000636833422CD1204B204A1A60204B1868FEF7C8FD051E30D123681E4A8027134006
:2018A000236023681C4ABF0413402360FEF7FAFD0600226813003B403A4218D16360E362A4
:2018C0002363A3608023626A5B041343636205E0FEF7E8FD401B0228CAD903252800F8BDAA
:2018E000FEF7E0FD0D4B401B9842C9D9F5E7FEF7D9FD801B0228DCD9EFE70125EEE7C046EF
:20190000001002400CF8FFF00002002000127A0008020020FFFFF6FEFFFFFBFF8813000025
:2019200030B5EFF31084012282F310880168124D0B682B400B6084F31088EFF3108482F311
:20194000108801688B6893438B6084F31088036E93420AD1EFF3108183F310881024026883
:201960001368A343136081F310882022031DDA6700230366836630BDDFFEFFFF7047704739
:20198000406A0023020010B55A321380083A1380FFF7F5FF10BD70470268F8B5D3690400FA
:2019A000A7481168966803420BD12020034200D180E0014200D17DE0A36E2000002B6FD1DD
:2019C0006FE0012037009F4D07400D403D4300D170E025000835034205D0CE0503D51062A6
:2019E000EE6F3043E8670220034206D0002F04D01062EE6F00183043E8670420034206D0A0
:201A0000002F04D01062EE6F02383043E8670820034207D020260E403E4303D01062EE6FFD
:201A20003043E86780200001034206D04E0104D510622022E86F0243EA67EA6F002A30D0DC
:201A40002022134206D0114204D0A36E002B01D0200098472268EB6F4027966828223E40D5
:201A6000134020001E4321D0FFF75AFF23689B683B4217D0EFF31081012383F31088226831
:201A80009368BB43936081F31088606F002809D06D4B4363FEF79CFD002802D0606F436B1B
:201AA0009847F8BD2000FFF76AFFFAE7FFF767FFEE67F6E7206E012800D095E010252B4206
:201AC00000D191E0294200D18EE01562936840211E000E400B424FD0626F13685B689BB213
:201AE000002BDED02600583637889F42D9D927005A373B809369202B32D0EFF3108780F35F
:201B000010882268514D13682B40136087F31088EFF3108780F310882268936883439360D8
:201B200087F31088EFF3108C80F31088230080CBBA688A43BA608CF310882022DA670023D6
:201B40002366EFF3108180F31088226812351368FF35AB43136081F31088606FFEF71AFDB6
:201B60000223636623005A331B883188C91A89B22000FFF710FF94E722005A3213881288CA
:201B80009BB2002A00D18CE7220058321188C91A89B2002900D184E7EFF3108780F310883E
:201BA00022682B4D13682B40136087F31088EFF3108C80F31088230080CBBA688243BA60C0
:201BC0008CF310882022DA672666A666EFF3108680F310881020226813688343136086F369
:201BE000108802236366C3E780204003034206D0750204D51062200000F02CF851E78022E7
:201C0000134203D0114201D0E36ED6E64022134200D146E7114200D143E7EFF310800123D2
:201C200083F3108821680B6893430B6080F310882023E36700232000E366FFF79FFE30E78B
:201C40000F0800002001000481190008FFFEFFFFDFFEFFFF7047F7B5002302000C68009341
:201C60002000009BD84000D1FEBD0120009B984023000340044231D0486803250190180043
:201C800058434543019EED43771E012F0BD88F68966847432E40374397605768CE68A7436D
:201CA00074433C4354600C69D76844432F403C43D460019C022C0BD14F69FF2B11D8040067
:201CC0000F26444366437C43136AB34323431362019C136860432B4003431360009B0133E4
:201CE000BCE70F261B0A5B435B435E437B43546AB4431C435462EBE7821D03000020D08797
:201D0000014A0233DA87704780BFFFFF0230C38F024A1340C38700207047C0467F400000E5
:201D200084B010B50400049205930122831C0020DA87D887A31D5034D8870391208010BC33
:201D400008BC04B018470000F7B50E787C4AB300C3181C88CF781440012205000092032FFB
:201D600008D83800FEF7D0F9023D3A378022920014430097734A1443A4B21C801888724C57
:201D800020403043104380B21880F0008446087BAC4450350195002800D06EE0CD884878B0
:201DA0006D086D00002824D080200199C0000988614409180D801988490604D519880C4091
:201DC00062490C431C80624C1988012F0BD00C402021614008E0C022D2001443002200923E
:201DE000C8E78022F8E721400A4392B200981A80FEBD019809690788564867443F18019801
:201E00003D800588544865442D182F88BF05BF0D2F803E290DD91F204F0901400800414248
:201E200041417F1A2988BF020F434C49394389B205E0002914D1802729883F0239432980C6
:201E40001988490404D519880C4045490C431C80444D002E0BD1C0211C8889012C40B8E7A0
:201E600001204F0801407F18BF022988DEE719880D40802189016940B6E71D88022F3AD19B
:201E8000394E2540354301981D80058880200E896544C00076082D18760001982E8005886E
:201EA0004E892C48654476082D1876002E804978274E8C46802160462A4DC90100281FD19F
:201EC0001F880F4204D01988254F2140394319801988490604D519880C401C490C431C80A5
:201EE00019882940C025AD014D401543ADB21D801988314078E71D4E35401543ADB2C2E7B3
:201F00001888084204D0198815482140014319801988490604D519880C400C490C431C80D1
:201F20001988012F09D00E4020217140114389B2198019880D402A4357E73140F6E7C046A2
:201F40008F89FFFF8080FFFF8F8FFFFFC0800000BF8FFFFF04040000060400000080FFFF35
:201F600080C000008FBFFFFF808100008F8EFFFFF0B50B780A7B9B00C0184D78324B002A2D
:201F80001DD10288002D0FD0520605D502882F490A402F490A43028002882E490A40134357
:201FA0009BB203800020F0BD520405D5028827490A4029490A43028002882849EEE780215E
:201FC000224A244E254CC901002D1DD105880D4204D00188204D1140294301800188204DF3
:201FE000490604D501881140294389B2018001880A401543ADB20580028814401C43A4B215
:020000040800F2
:20200000048002883240CAE70788164D0F4204D001881140294389B201800188490604D5C5
:2020200001880B4F11403943018001880A401543ADB20580028832401A4392B202800288B7
:2020400014402343ACE7C0468080FFFF8F8FFFFFC0800000BF8FFFFF80C000008FBFFFFFFB
:20206000C080FFFF80C0FFFF0B780B4A9B00C0184B78002B09D003880849194010234B40DF
:2020800013439BB203800020704703880449194080235B01F3E7C0468080FFFFBF8FFFFFE9
:2020A0008FBFFFFF0B7B002B19D10B789B00C0184B78002B15D003885B0605D50388104AC5
:2020C0001340104A13430380CB78012B07D003880D4A1A40202353400C4A134303800020D3
:2020E000704703885B0405D50388054A1340084A134303800388074A1A40C0239B01EAE787
:202100008F8FFFFFC0800000BF8FFFFF8080000080C000008FBFFFFF0123821CD387831DCF
:202120000020D8870323D3877047002902D180234C300380002070478022583003881202AB
:202140001343038000207047583003885B045B0C0380002070470630C08F80B2704730B549
:2021600080240133E40012195B0880185B00CB18401A44188B4200D130BD4A780D781202A3
:202180002A4322800231F4E7F0B54A7805000C000B7B85B0012A00D010E108698E698642D3
:2021A00000D906002F00626950370192002B1DD1B6B23300E28801992800FFF7D0FFB04A8D
:2021C00039882378AA18DB0052189B181E802078AC4A80002D182B881A4030235340AA4A11
:2021E00013439BB200202B8005B0F0BD2278236AD1000291E1789200022900D0C7E0AA1835
:20220000984200D3B2E01188A0489B1B0840A04908431080108840220100114023620391D7
:20222000B3B2104252D09B4A38880299AA18121852181380280062890199FFF790FF63699E
:20224000206A2269991961610023904201D9831B30006278236283B2002A2CD1884A3F8804
:202260002678AA18F600D219B2181688B605B60D16803E280CD91F27460938404742784107
:20228000361A1088B60206438348304380B205E0002809D1802610883602304310802289DA
:2022A0002800FFF75CFF92E70127460838403618B6021088E9E7012AF1D171483E882278CA
:2022C0002818D200801912181380E8E76C4A38880299AA1812185218138028002289019960
:2022E000FFF73DFF6369206A226999196161039B904201D9831B30006278236283B2002A81
:2023000029D1644A3F882678AA18F600D219B2181688B605B60D16803E280CD91F274609B1
:20232000384047427841361A1088B60206435A48304380B205E0002806D180261088360259
:20234000304310806289ABE70127460838403618B6021088ECE7012AF4D14E483E882278B8
:202360002818D200801912181380EBE710884B4E45493040084380B21080414A3888029901
:20238000AA18121852189BB2138022890EE0AA189B1B128823623888B3B2520608D53D4AF6
:2023A0000299AA181218521813806289019977E7334A0299AA1812185218E5E7002B3CD144
:2023C0008A6909698A4201D9531A0A00A3612B00503318882F4B2178EB18C9001B18CB1834
:2023E00019888905890D19803E2A0CD91F205109024050424241891A1A8889021143264AAE
:202400000A4392B205E0002A10D180211A8809020A431A802078224A80002D182B881A4030
:20242000C0239B0153401F4A1343DBE6012051080240891889021A88E2E7CB78022B00D077
:202440007BE0002A4BD106000D4A5036318823788218DB0052189A1813889B059B0D13809D
:2024600023693E2B20D91F271F4079424F4158091188C01B800208430749014389B219E014
:2024800002040000BF8FFFFF8080FFFF8F8FFFFF80810000060400000080FFFF8F8EFFFF2C
:2024A0008FBFFFFF80800000002B2BD180201188000201431180524A30882178AA18C90021
:2024C00012188A1811888905890D11803E2B20D8002B2BD18021138809020B431380E369E6
:2024E000002B97D0237847499B00EB181A880A408A4202D0002A00D08CE743491A880A4012
:20250000424985E7012158081940401880021188B3E71F205909034058424341C91A13885C
:20252000890219433A4B0B439BB2D7E7012059080340C91889021388F5E70120834200D078
:2025400052E68B69096900208B4201D9581A0B00A061002A00D05DE72E002E4A5036308876
:202560002178AA18C90012188A1811888905890D11803E2B0CD91F2119404F42794158098A
:20258000401A1188800208432149014389B205E0002B19D180201188000201431180184A26
:2025A00030882178AA18C90012188A1811888905890D11803E2B0ED8002B19D18021138885
:2025C00009020B43138025E7012158081940401880021188D9E71F205909034058424341F3
:2025E000C91A138889021943094B0B439BB2E9E7012059080340C91889021388F5E7C04609
:2026000006040000404000008F8FFFFFC08000000080FFFF02040000F0B580255C08ED00B5
:20262000521926000D008018471A7A19002E07D1640000190919DB0701D503880B70F0BD60
:202640001288013E92B22A70120A6A700235ECE7014B18607047C04600020020F0B587B044
:2026600006001422002101A801F09EFA8020C0259024134A800251696D01014351615369D9
:20268000E40503402900200000930027009BFEF79DF90123200001A9029301950397049797
:2026A000FEF7D0F83A0029002000FEF709FA3000FDF7FEFE29002000FEF788F907B0F0BD9F
:2026C0000010024037B56B46DD1DA723094A9B002870D35C032B0AD037BD013C002CFBD062
:2026E0000121280001F054F80028F6D1F4E780246402F5E74408002073B5114B08240093F4
:20270000002301250F4E01934118884201D1009876BD009A0378534000932300009A2A405D
:202720000192009A52080092019A002A02D0009A72400092013B9BB2002BEFD10130E4E79B
:202740000A14C9F8010000A010B50378452B04D02020FFF7B7FF012010BD43784E2BF7D19F
:2027600083784B2BF4D1C3784F2BF1D1F82380201B060C680005C918FFF7BEFF8442E7D046
:202780000020E9E737B505000C00FFF7B5FF0190019B2A5905209A4203D11D30FFF792FF49
:2027A00006203EBD70B50F4B1A78032A01D1013A1A700D4A0C6813681B19F324A400A34209
:2027C0000DD9C0460AE01468C65C2C19E65401330C689C42F7D81168CB18136070BD002392
:2027E000024DF5E7180200203C08002070040020F0B585B0009101920500FDF72BFF1A4AF7
:202800001178CBB200290FD1013118481170184A03A942601622036082600393FDF7C8FF18
:20282000FA204000FDF734FFFA272C007F00009A631B9A4201D805B0F0BD6678A3783602EB
:202840001B041E43237838001E43E3781B061E43FDF71EFF019B3200591B0919002302202D
:20286000FDF740FF0434E2E7680400205804002000480008002310B58B4200D310BD9C18C3
:202880002468C4540433F7E710B50320FFF71AFF0C4C2368D8B2FFF715FF2368180AC0B2F2
:2028A000FFF710FF2368180CC0B2FFF70BFF01CC000EFFF707FF044B9C42EAD11120FFF70C
:2028C00001FF10BDC0FF00080000010870B50400084800F01BFB6420FFF7C0FE656823684C
:2028E00083F30888FDF78CFDFEF7B8FFA847C04670BDC04644080020A723044A9B00D05C36
:202900000338431E9841C0B27047C04644080020F7B56420FFF7A2FE00F0E2FE00222021AE
:202920008D48FEF7CDF8002303228C4F3B708C4B1A70FDF7B7FD8B4B1860FDF7B3FD894C6A
:202940002368C01AFA239B00984211D986498748FFF7FAFE0028E1D1012220217E48FEF711
:20296000AFF82520FFF7AEFE8148FFF7AFFFF7BDFFF7C2FF0028E0D1794D2B78042BE5D0CB
:20298000FDF790FD2060FDF78DFD2368C01A794B984208D80620FFF795FE6420FDF788FD29
:2029A0002B78022BEFD16E4B1B78022BC5D13B78042B0ED92420FFF785FE0423684A137096
:2029C000BBE7FDF76FFD674B1B68C01A694B984205D8F322684B92001B689342F1D31320D2
:2029E000FFF770FE654DF3222B689200DEB2644B1B6801936B461B799C46624B1B68019346
:202A00006B461879604B1968604BC9B29A18019264461A7872401A705A7862405A709A7815
:202A200042409A70DA784A40DA70019A04339342EED1514E554C31682000FFF7A3FE0628C0
:202A400003D11C30FFF73EFE4EE02278032A33D1A37862781B021343012B0ED02120414CEB
:202A6000012A00D12220FFF72DFE3B780133DBB23B7000233360236095E7FDF7EBFDA3792B
:202A80003F4A2B60E3791360237A3E4A1360627A3D4B1A6007223E4B1A70FFF7F5FE002395
:202AA00033600022344B1A60FDF7FCFC2D4B18601120FFF707FE76E7002A0FD10423284961
:202AC00025480B702021FDF7FBFFFDF7D7FDFFF7DBFEFA208000FDF7EBFC64E7012AE0D1AC
:202AE0002B4B1B78072B06D03B780133DBB23B700023336057E7A578627823792D02154398
:202B0000E27861791B021343A2790904043D0B43ADB212061A4329001E48FFF769FE2379FB
:202B2000E2781B0261791343E21CD27809040B431206290017481A43FFF79CFE2000316805
:202B4000FFF720FE052801D022207BE720210248FDF7BCFFA5E7C04600040048400800203F
:202B6000180200206C040020F8F70008FCF7000800480008B80B00003C0800200C020020F4
:202B8000100200201402002064040020700400206904002077040020AF239B00C35870B5DC
:202BA000002B0ED0AE22802592008458AD00605DFF2806D0044A9B682100A25C9847FF2351
:202BC0006355002070BDC046010200004323038000487047540200204323038000487047A1
:202BE000980200204323038000487047E80200200A23038000487047DC02002070B5AE2683
:202C0000B6000400855900F09DFF83239B00E850A3590220002B0AD0832381229B00E9180F
:202C2000B033E3589200DB68A8589847002070BDAE23F7B59B00C35805000F000220019378
:202C4000002B18D014264E43AE19F069002813D02822B0234A439B00EB589B18996BFDF738
:202C6000EDFA0C1E08D10B000A00F1612800390000F056FF2000FEBD85230020019A9B0084
:202C8000D050F8E7AE23F7B59B00C7586B466A460E00591D002305000B70D3803378901DCB
:202CA0001C006022144013422AD0202C46D1F4887078002C1CD05BB2002B0EDAAF239B0067
:202CC000EB58220039009B68984739002800F28800F0C0FC00242000FEBD80239B00F85464
:202CE000194B220039002800FC5400F0C9FCF1E7AF239B00EB58220031009B689847EAE75A
:202D000073780A2B0ED00B2B13D0002B16D1A7239B00EB5C032B11D102220100280000F091
:202D200099FCD8E7A7239B00EB5C032B06D10122F4E7A7239B00EB5C032BCCD031002800C1
:202D400000F060FC0224C6E70102000070B504000025812100F0ABFE01212000E56200F04F
:202D6000A6FE2300AE26FC331D6782212000B60000F09DFEA3592564AB4208D0AF239B004A
:202D8000E3585B689847A05900F0E8FEA551002070BDF8B50600037C0400FC36002B39D1A7
:202DA000802302229B00812100F075FE01258023E5629B0029000222200000F06CFE08230F
:202DC000356703228221200000F065FE012787202764800000F0BEFEAE239B0005003E00E7
:202DE000E050002814D00433E3581B689847852300229B00EA500433EA508122267C9200DC
:202E0000002E10D139002000AA58183B00F091FE3000F8BD012540230222812100F03BFE19
:202E20004023E562C6E7402339002000AA5800F080FE0026ECE703000220002903D0AF2224
:202E40000020920099507047AE239B00C3588220800019508421890000205A507047AE238E
:202E60009B00C258B43B0020D1507047AE239B00C25810B50223002A12D08521890054585F
:202E8000013B002C0CD1535084239B00D3580C39525888390363FF399BB200F041FE2300F0
:202EA000180010BDAE239B00C35810B50224002B0AD08122047C92009A58002C06D1802369
:202EC00001219B0000F035FE200010BD4023012100F02FFE0024F7E7022310B5002813D08C
:202EE000AD239B00C458002C01D00024C450002902D0AC239B00C150A72301219B00C15404
:202F0000027000F06DFD0023180010BDA72301229B0010B5C25443680400D9B2AD239B00D5
:202F2000C3585B689847200000F0ACFD200000F097FD002010BD03000220002903D0AD229A
:202F4000002092009950704710B500F092FD002010BDAD239B00C35810B5002B01D1022084
:202F600010BD1B6898470028FAD0F8E7AD2310B59B00C3585B689847002010BDAA239B000F
:202F800070B5C5180400280000F028FBA52301229B00E250114BE25A163BE2501033E15C9D
:202FA0001F230B40012B09D0022B0CD0002B0FD12900200000F01EF9002070BD2900200085
:202FC00000F04EFAF8E72900200000F071FAF3E77F232000994300F073FDEDE7AE020000DA
:202FE00070B50D0004001100002D2ED1A5239B00C258032A22D102005532FF32D368106953
:2030000083420AD91B1AD36082B2984200D99AB2200000F045FB280070BDAD239B00E35822
:203020001B69002B06D0A7229200A25C032A01D120009847200000F03BFBECE7052AEAD1B1
:203040002900C55000F03CFDE5E7AD239B00C3589B69002B08D0A7229200825C032A03D176
:20306000290098470025D6E70225D4E7F8B50D0004001100002D4DD1A5239B00C358022BBF
:2030800041D1036A466AB34213D99B1B03629AB200F0EEFA2B002A002900200000F049FD0D
:2030A000A8239B00E25C012A01D10022E2542800F8BDC76931003800FDF7C0F800290DD1EE
:2030C000BE420BD8A626B600A3599F4206D22A002900200000F0CCFAA551DBE7AD239B008A
:2030E000E358DB68002B06D0A7229200A25C032A01D1200098478021200000F0E1FC20004C
:2031000000F0E2FACCE704229343C9D1802100F0D7FCC5E7AD239B00C3585B69002B08D03D
:20312000A7229200825C032A03D1290098470025BDE70225BBE7002270B5040011004023FC
:2031400000F0A9FC230001254026FC338021DD659E6600223300200000F09DFCA72300212C
:203160009B00A5616662E554083BE15010336160E1501433E3588B4205D0AD239B00E3583A
:2031800020005B689847002070BD017400207047A7239B00C15C034A81540422C2540020D4
:2031A0007047C0469D020000A7239B00C25C042A02D1024A825CC254002070479D02000079
:2031C000A72310B59B00C35C032B06D1AD239B00C358DB69002B00D09847002010BD10B54B
:2031E0000400802100F06CFC0021200000F068FC10BD000060220B7873B513400D001900CA
:20320000921820390400114212D0002B00D096E06878092800D992E0FCF780FFF0000E0134
:20322000910006019100830012009100DA00A400AD239B00C35829009B689847002076BDDD
:2032400000236A46D3806B88180A0138062876D8FCF75AFF0417267575404B00AC239B0012
:20326000E358207C1B686A46911D98476B46D988002951D0EA88002A43D1200000F018FA89
:20328000DCE7AD23227C9B00E358002A06D19B6A6A46901D984702234370E7E7DB6AF7E71C
:2032A000D8B205284BD8AC239B00E358FCF72CFF03080A0C0E105B68002B40D0207CD2E7DF
:2032C0009B68F9E7DB68F7E71B69F5E75B69F3E79B69F1E7237C002B31D1AD236A469B0029
:2032E000E358901D5B6B9847C0E7237C002B26D1AD236A469B00E358901D1B6B9847072347
:20330000CAE70B1C914200D9131C69469AB2CB800100200000F09EF9EB88002B00D08DE72A
:20332000ABE7AB88002B0AD1EB88002B07D16E887F2E04D8A725AD00635D032B03D1200072
:20334000FFF74DFF7AE7444BF1B2E154200000F0DEFB200000F0ACF90223002E00D101237D
:2033600063556BE7A9783D4D29700129E7D8A7239B00E25C022A09D0032A15D02000FFF746
:203380002EFF20002978FFF7F1FD57E7002900D173E7012103226160E2542000FFF7D9FD9F
:2033A000022800D069E7CAE7002906D102222000E2546160FFF7DAFD5FE76168012900D100
:2033C0005BE7C9B22000FFF7D1FD29786160E4E7EA88012AB3D1A7239B00E35C022B06D84F
:2033E000002BACD000232100A360083102E0211D032BA4D1200000F02DF91FE7A7239B0042
:20340000E35C013B022B9AD8EB88022B97D1013BE360A9239B00E358002B01D00323E36004
:20342000210002220C31E5E76B88012B00D005E7A9229200A35020E7A7239B00E35C013B2C
:20344000022B00D97BE76B88012B00D0F6E6A92300229B00E25010E79E020000410800207E
:2034600060230A7870B5134004000D00402B01D0530619D4A7239B00E35C013B022B13D844
:203480002B79012B10D8AD239B00E35829009B6820009847EB88002B04D1002802D1200015
:2034A00000F006F9002070BD2000FFF798FEF9E70A780B0060210A4070B504001000491852
:2034C0002038084229D0002A37D198885A78C1B2012A45D0032A29D0002A2ED1A7239B00C6
:2034E000E35C022B56D0032B27D10F2214230A405A43A21800065DD59269002A1DD07F251D
:203500000D4001355D437F230A0065191A4019425AD12A600222290048E0AD229200A25824
:203520001900200092689047002070BDA7229200A25C022A24D0032A03D02000FFF74FFE58
:20354000F2E75A88002A07D14A0605D0DB88002B02D1200000F0B4FA200000F0A9F8E3E7EF
:20356000A7229200A25C022A0AD0032AE5D15B88002BD9D14B06EFD0200000F0AAFAEBE7BB
:203580004B06DAD0200000F09BFA8021200000F097FAC9E74B06D0D121005531FF310306C7
:2035A00001D54139FF39002302220B60200000F051F8B9E7FC32D26D002ABED07F250D40C2
:2035C0005D435535FF359EE7200000F08BFA002802D001232B609DE728609BE70B78037046
:2035E0004B784370CA788B7812029B1843804A790B7912029B188380CA798B7912029B1867
:20360000C380704710B50400802100F059FA0021200000F055FA10BD70B50025461EA8421E
:203620000FD02B000135745D002CFAD1DBB201335B0013800B7003234B70013B0578002D91
:2036400000D170BD5A1CCD54D2B202330130DBB28C54F3E71300A52210B502249200845079
:203660000A00C3610021036200F05AFA002010BD10B513000A00002100F052FA002010BD39
:203680001300A52210B50324920084500200FC32136653660A00002100F04BFA002010BD4F
:2036A00010B513000A00002100F043FA002010BDA52304229B0010B5C25000231A00190037
:2036C00000F02EFA002010BDA52305229B0010B5C25000231A00190000F02BFA002010BD2C
:2036E00010B5114C002220001049FFF7F5FB002801D0FCF727FE20000D49FFF71CFC00286A
:2037000001D0FCF71FFE20000A49FFF794FB002801D0FCF717FE2000FFF716FC002801D0AE
:20372000FCF710FE10BDC046440800203C0300201C0200202C0300200020704700207047AF
:2037400070B50D000400074E01003000FFF787FB29002000FFF726F83000FFF7A3FB0020F4
:2037600070BDC0464408002010B5064C002220000549FFF769FB20000449FFF770FB0020BB
:2037800010BDC04644080020080F0020080B00200A00AE2110B5084C890003006058A4396D
:2037A00041580120002906D119002000FFF74CFB2000FFF75BFB10BD4408002012230148B6
:2037C0000B80704758030020042301480B8070476C03002030B5002552008A18040FE3B245
:2037E000092C07D830330B704D70023100018A42F4D130BD3733F6E71A2370B50B800B4BDE
:203800000B4C18680B4B1B68C01800280BD00A4B0822A11C1D68FFF7DDFF2100042228001B
:203820001231FFF7D7FF200070BDC046ACF7FF1F70030020B4F7FF1FB0F7FF1F10B5044C2F
:203840000A0021000348FFF7E7FE200010BDC04608130020D03B000810B5044C0A00210096
:203860000348FFF7D9FE200010BDC04608130020E33B000810B5044C0A0021000348FFF75B
:20388000CBFE200010BDC04608130020F93B000810B5044C0A0021000348FFF7BDFE200099
:2038A00010BDC04608130020043C000803000220032B01D8014AD05C7047C046123C0008FC
:2038C00007B50B4B02689A4211D18020094A0004D1690143D161D3690022034001931F2093
:2038E0001100019BFCF7F6FD1F20FCF71DFE07BD005C004000100240064B026810B59A42DA
:2039000007D1054A0549D3691F200B40D361FCF717FE10BD005C004000100240FFFF7FFFF9
:20392000AC2310B59B00C1184033C058FFF726FB10BD28234B43C3187D33FF331A68BC2319
:2039400010B59B00C058FFF74BFB10BD28234B43C318DA6BBC2310B59B00C058FFF786FB1F
:2039600010BDBC2310B59B00C058FFF729FC10BD836870B50400022B01D0FCF7E3FCBC2576
:20398000AD0001216059FFF700FC6059FFF7D3FB70BD0000BC2310B504009B00C058FFF7B2
:2039A000F7FBA369002B04D00623024A11690B43136110BD00ED00E0836910B50400002BDF
:2039C00006D00621054A13698B431361FCF748FCBC239B00E058FFF7E7FB10BD00ED00E082
:2039E000BC2370B504001C489B00C4501B4BB025036008234360063B836003610023AD00E8
:203A000060518361C3610362FDF768F8002801D0FCF798FC0022605911001823FDF7EEFEAD
:203A20006059582300228021FDF7E8FE6059C02300228121FDF7E2FE8823605900220121D9
:203A40005B00FDF7DBFE80236059002282215B00FDF7D4FE002070BD08150020005C0040D6
:203A6000B02310B59B00C058FDF7A2F8FFF71EFF10BDB02310B59B00C058FDF7AFF8FFF7B1
:203A800015FF10BDB02310B59B00C058FDF7B9F8FFF70CFF10BD10B514001A002300B0249D
:203AA000A4000059FDF7B0FDFFF700FF10BDB02310B59B00C058FDF7D5FDFFF7F7FE10BDDD
:203AC000B02310B59B00C058FDF73BFEFFF7EEFE10BDB02310B59B00C058FDF75FFEFFF72D
:203AE000E5FE10BDB0234AB29B00C358002A07DA7F2211400131573A51435B189878704703
:203B0000282251435B186B33FF331878F7E7B02310B59B00C058FDF787F8FFF7C7FE10BDD0
:203B200010B5B024A4000059FDF7EEFDFFF7BEFE10BD10B5B024A4000059FDF7BBFDFFF759
:203B4000B5FE10BDB02310B59B00C058FDF7D3FD10BD000000487047FC1700207047000020
:203B600070B500260C4D0D4C641BA410A64209D1002600F021F80A4D0A4C641BA410A6425C
:203B800005D170BDB300EB5898470136EEE7B300EB5898470136F2E7183C0008183C0008A4
:203BA000183C00081C3C000803008218934200D1704719700133F9E7F8B5C046F8BC08BC87
:203BC0009E467047F8B5C046F8BC08BC9E46704753544D6963726F656C656374726F6E691E
:203BE00063730053544D3332205669727475616C20436F6D506F72740043444320436F6EA1
:203C00006669670043444320496E7465726661636500000201020000E9000008C100000834
:203C200000127A00010000000400000040000000E20000000100000003000000932D000805
:203C40004D2D0008852C000800000000992B0008312C0008FD2B00080000000000000000C8
:203C600000000000D92B0008CD2B0008E52B0008F12B000809024300020100C032090400AC
:203C80000001020201000524001001052401000104240202052406000107058203080010B4
:203CA00009040100020A00000007050102400000070581024000000009024300020100C0BB
:203CC000320904000001020201000524001001052401000104240202052406000107058250
:203CE0000308001009040100020A0000000705010200020007058102000200000A060002DB
:203D0000000000400100000009074300020104C032090400000102020100052400100105C4
:203D2000240100010424020205240600010705820308001009040100020A00000007050131
:203D400002400000070581024000000069370008393700083D37000841370008BD3700083A
:203D6000C93700083D38000859380008F9370008753800089138000812010002020200400E
:203D8000830440570002010203010000040309041A030000000000000000000000000000CB
:203DA000000000000000000000000000FFFFFFFFFFFFFFFFFFFFFFFFFFFFFFFFFFFFFFFF17
:203DC000FFFFFFFFFFFFFFFFFFFFFFFFFFFFFFFFFFFFFFFFFFFFFFFFFFFFFFFFFFFFFFFF03
:203DE000FFFFFFFFFFFFFFFFFFFFFFFFFFFFFFFFFFFFFFFFFFFFFFFFFFFFFFFFFFFFFFFFE3
:203E0000FFFFFFFFFFFFFFFFFFFFFFFFFFFFFFFFFFFFFFFFFFFFFFFFFFFFFFFFFFFFFFFFC2
:203E2000FFFFFFFFFFFFFFFFFFFFFFFFFFFFFFFFFFFFFFFFFFFFFFFFFFFFFFFFFFFFFFFFA2
:203E4000FFFFFFFFFFFFFFFFFFFFFFFFFFFFFFFFFFFFFFFFFFFFFFFFFFFFFFFFFFFFFFFF82
:203E6000FFFFFFFFFFFFFFFFFFFFFFFFFFFFFFFFFFFFFFFFFFFFFFFFFFFFFFFFFFFFFFFF62
:203E8000FFFFFFFFFFFFFFFFFFFFFFFFFFFFFFFFFFFFFFFFFFFFFFFFFFFFFFFFFFFFFFFF42
:203EA000FFFFFFFFFFFFFFFFFFFFFFFFFFFFFFFFFFFFFFFFFFFFFFFFFFFFFFFFFFFFFFFF22
:203EC000FFFFFFFFFFFFFFFFFFFFFFFFFFFFFFFFFFFFFFFFFFFFFFFFFFFFFFFFFFFFFFFF02
:203EE000FFFFFFFFFFFFFFFFFFFFFFFFFFFFFFFFFFFFFFFFFFFFFFFFFFFFFFFFFFFFFFFFE2
:203F0000FFFFFFFFFFFFFFFFFFFFFFFFFFFFFFFFFFFFFFFFFFFFFFFFFFFFFFFFFFFFFFFFC1
:203F2000FFFFFFFFFFFFFFFFFFFFFFFFFFFFFFFFFFFFFFFFFFFFFFFFFFFFFFFFFFFFFFFFA1
:203F4000FFFFFFFFFFFFFFFFFFFFFFFFFFFFFFFFFFFFFFFFFFFFFFFFFFFFFFFFFFFFFFFF81
:203F6000FFFFFFFFFFFFFFFFFFFFFFFFFFFFFFFFFFFFFFFFFFFFFFFFFFFFFFFFFFFFFFFF61
:203F8000FFFFFFFFFFFFFFFFFFFFFFFFFFFFFFFFFFFFFFFFFFFFFFFFFFFFFFFFFFFFFFFF41
:203FA000FFFFFFFFFFFFFFFFFFFFFFFFFFFFFFFFFFFFFFFFFFFFFFFFFFFFFFFFFFFFFFFF21
:203FC000FFFFFFFFFFFFFFFFFFFFFFFFFFFFFFFFFFFFFFFFFFFFFFFFFFFFFFFFFFFFFFFF01
:203FE000FFFFFFFFFFFFFFFFFFFFFFFFFFFFFFFFFFFFFFFFFFFFFFFFFFFFFFFFFFFFFFFFE1
:020000040800F2
:2040000001D0FCF7C3F920000D49FFF71CFC002801D0FCF7BBF920000A49FFF794FB0028DC
:2040200001D0FCF7B3F92000FFF716FC002801D0FCF7ACF910BDC046100C00203C030020E9
:204040001C0200202C030020002070470020704770B50D000400074E01003000FFF787FBF1
:2040600029002000FFF718F83000FFF7A3FB002070BDC046100C002010B5064C0022200045
:204080000549FFF769FB20000449FFF770FB002010BDC046100C0020D4120020D40E002073
:2040A0000A00AE2110B5084C890003006058A43941580120002906D119002000FFF74CFBBD
:2040C0002000FFF75BFB10BD100C0020122301480B80704758030020042301480B8070477E
:2040E0006C03002030B5002552008A18040FE3B2092C07D830330B704D70023100018A42DC
:20410000F4D130BD3733F6E71A2370B50B800B4B0B4C18680B4B1B68C01800280BD00A4B83
:204120000822A11C1D68FFF7DDFF2100042228001231FFF7D7FF200070BDC046ACF7FF1FAF
:2041400070030020B4F7FF1FB0F7FF1F10B5044C0A0021000348FFF7E7FE200010BDC046E5
:20416000D41600200B45000810B5044C0A0021000348FFF7D9FE200010BDC046D416002088
:204180001E45000810B5044C0A0021000348FFF7CBFE200010BDC046D416002034450008EC
:2041A00010B5044C0A0021000348FFF7BDFE200010BDC046D41600203F4500080300022015
:2041C000032B01D8014AD05C7047C0464D45000807B50B4B02689A4211D18020094A0004D9
:2041E000D1690143D161D3690022034001931F201100019BFCF7CAF91F20FCF7F1F907BD58
:20420000005C004000100240064B026810B59A4207D1054A0549D3691F200B40D361FCF7F2
:20422000EBF910BD005C004000100240FFFF7FFFAC2310B59B00C1184033C058FFF726FBB9
:2042400010BD28234B43C3187D33FF331A68BC2310B59B00C058FFF74BFB10BD28234B4340
:20426000C318DA6BBC2310B59B00C058FFF786FB10BDBC2310B59B00C058FFF729FC10BD44
:20428000836870B50400022B01D0FCF77FF8BC25AD0001216059FFF700FC6059FFF7D3FBCA
:2042A00070BD0000BC2310B504009B00C058FFF7F7FBA369002B04D00623024A11690B4346
:2042C000136110BD00ED00E0836910B50400002B06D00621054A13698B431361FBF7CAFF2B
:2042E000BC239B00E058FFF7E7FB10BD00ED00E0BC2370B504001C489B00C4501B4BB02544
:20430000036008234360063B836003610023AD0060518361C3610362FCF73CFC002801D0D2
:20432000FCF734F80022605911001823FDF7C2FA6059582300228021FDF7BCFA6059C0234A
:2043400000228121FDF7B6FA88236059002201215B00FDF7AFFA80236059002282215B00D9
:20436000FDF7A8FA002070BDD4180020005C0040B02310B59B00C058FCF776FCFFF71EFFEF
:2043800010BDB02310B59B00C058FCF783FCFFF715FF10BDB02310B59B00C058FCF78DFCF5
:2043A000FFF70CFF10BD10B514001A002300B024A4000059FDF784F9FFF700FF10BDB02342
:2043C00010B59B00C058FDF7A9F9FFF7F7FE10BDB02310B59B00C058FDF70FFAFFF7EEFEED
:2043E00010BDB02310B59B00C058FDF733FAFFF7E5FE10BDB0234AB29B00C358002A07DA4E
:204400007F2211400131573A51435B1898787047282251435B186B33FF331878F7E7B023B7
:2044200010B59B00C058FCF75BFCFFF7C7FE10BD10B5B024A4000059FDF7C2F9FFF7BEFE3B
:2044400010BD10B5B024A4000059FDF78FF9FFF7B5FE10BDB02310B59B00C058FDF7A7F928
:2044600010BD000000487047C81B00207047000070B500260C4D0D4C641BA410A64209D1C4
:20448000002600F021F80A4D0A4C641BA410A64205D170BDB300EB5898470136EEE7B3008E
:2044A000EB5898470136F2E75445000854450008544500085845000803008218934200D1FF
:2044C000704719700133F9E7F8B5C046F8BC08BC9E467047F8B5C046F8BC08BC9E467047FC
:2044E000000000000102030402030405060708090A0B0C0D0E0F10100102030405060708F7
:20450000090A0B0C0D0E0F1004080253544D6963726F656C656374726F6E69637300535446
:204520004D3332205669727475616C20436F6D506F72740043444320436F6E66696700435B
:20454000444320496E746572666163650000020102000000E9000008C100000800127A00D8
:20456000010000000400000040000000E20000000100000003000000A33600085D36000894
:204580009535000800000000A9340008413500080D3500080000000000000000000000009C
:2045A000E9340008DD340008F53400080135000809024300020100C03209040000010202F9
:2045C000010005240010010524010001042402020524060001070582030800100904010062
:2045E000020A00000007050102400000070581024000000009024300020100C03209040041
:2046000000010202010005240010010524010001042402020524060001070582030800102A
:2046200009040100020A0000000705010200020007058102000200000A060002000000406C
:204640000100000009074300020104C0320904000001020201000524001001052401000195
:204660000424020205240600010705820308001009040100020A00000007050102400000CC
:20468000070581024000000079400008494000084D40000851400008CD400008D940000895
:2046A0004D410008694100080941000885410008A141000812010002020200408304405731
:2046C0000002010203010000040309041A03000000000000000000000000000000000000A0
:2046E0000000000000000000FFFFFFFFFFFFFFFFFFFFFFFFFFFFFFFFFFFFFFFFFFFFFFFFD2
:20470000FFFFFFFFFFFFFFFFFFFFFFFFFFFFFFFFFFFFFFFFFFFFFFFFFFFFFFFFFFFFFFFFB9
:20472000FFFFFFFFFFFFFFFFFFFFFFFFFFFFFFFFFFFFFFFFFFFFFFFFFFFFFFFFFFFFFFFF99
:20474000FFFFFFFFFFFFFFFFFFFFFFFFFFFFFFFFFFFFFFFFFFFFFFFFFFFFFFFFFFFFFFFF79
:20476000FFFFFFFFFFFFFFFFFFFFFFFFFFFFFFFFFFFFFFFFFFFFFFFFFFFFFFFFFFFFFFFF59
:20478000FFFFFFFFFFFFFFFFFFFFFFFFFFFFFFFFFFFFFFFFFFFFFFFFFFFFFFFFFFFFFFFF39
:2047A000FFFFFFFFFFFFFFFFFFFFFFFFFFFFFFFFFFFFFFFFFFFFFFFFFFFFFFFFFFFFFFFF19
:2047C000FFFFFFFFFFFFFFFFFFFFFFFFFFFFFFFFFFFFFFFFFFFFFFFFFFFFFFFFFFFFFFFFF9
:2047E000FFFFFFFFFFFFFFFFFFFFFFFFFFFFFFFFFFFFFFFFFFFFFFFFFFFFFFFFFFFFFFFFD9
:2048000000400020217F0008057D0008077D0008000000000000000000000000000000007A
:20482000000000000000000000000000097D000800000000000000000B7D00080D7D0008C8
:20484000717F0008717F0008717F0008717F0008717F0008717F0008717F0008197D0008F2
:20486000717F00082D7D0008717F0008717F0008717F0008717F0008717F0008717F0008BE
:20488000717F0008717F0008717F00083D7D0008717F0008717F0008717F0008717F00088E
:2048A000717F0008717F0008717F0008717F0008717F0008717F00084D7D00085D7D000874
:2048C00010B5064C2378002B07D1054B002B02D0044800E000BF0123237010BD98030020AC
:2048E000000000001CC90008044B10B5002B03D00349044800E000BF10BDC04600000000AF
:204900009C0300201CC9000802B4714649084900095C49008E4402BC7047C04603B471467B
:20492000490840004900095A49008E4403BC7047002243088B4274D303098B425FD3030A10
:204940008B4244D3030B8B4228D3030C8B420DD3FF22090212BA030C8B4202D31212090209
:2049600065D0030B8B4219D300E0090AC30B8B4201D3CB03C01A5241830B8B4201D38B03E1
:20498000C01A5241430B8B4201D34B03C01A5241030B8B4201D30B03C01A5241C30A8B423C
:2049A00001D3CB02C01A5241830A8B4201D38B02C01A5241430A8B4201D34B02C01A524119
:2049C000030A8B4201D30B02C01A5241CDD2C3098B4201D3CB01C01A524183098B4201D33D
:2049E0008B01C01A524143098B4201D34B01C01A524103098B4201D30B01C01A5241C30827
:204A00008B4201D3CB00C01A524183088B4201D38B00C01A524143088B4201D34B00C01A88
:204A20005241411A00D20146524110467047FFE701B5002000F006F802BDC0460029F7D070
:204A400076E770477047C046D0400B00D1409C46203AD3401843524263469340184370478D
:204A60008446100062468C461900634600E0C0461FB500F057FC002801D40021C8421FBD1F
:204A800010B500F0A7FB4042013010BD10B500F049FC002801DB002010BD012010BDC04660
:204AA00010B500F03FFC002801DD002010BD012010BDC04610B500F0CFFB002801DC00207B
:204AC00010BD012010BDC04610B500F0C5FB002801DA002010BD012010BDC046002B15D1AB
:204AE000002A13D1002906DB01DC002806D00020C043410802E080210906002007B40248A0
:204B000001A14018029003BD3DFFFFFF03B4684601B5029800F052F8019B9E4602B00CBC26
:204B20007047C046F0B5CE469946030C9C46130447461B0C1D000E0061460404240C80B525
:204B40000700100C4B436543414360432C0CC01820188C46834203D980235B029846C44434
:204B6000494679435643030C2D042D0C8919634400044019C918C0BCB946B046F0BDC0462D
:204B800070B500220C4B04000D00FFF79DFF002804D12000290001F06DFA70BD064B002296
:204BA0002000290000F0E4FE01F064FA80231B069C466044F1E7C0460000E041F8B5CE4681
:204BC000474680B59146984604000D0001F0D6FA07000E0002000B0048464146FFF7A2FFBE
:204BE000241A8D41089B380031001C605D60C0BCB946B046F8BDC046F0B557464E464546D7
:204C0000DE46E0B50C031F004B0081469246050085B0240B5B0DCE0F002B00D152E1D24ACA
:204C2000934200D16EE1420FE40014438022120422439046CD4AC50093469B44002399466A
:204C400000933C037B005046240B5B0DFF0F002B00D11AE1C44A934200D15EE1420FE400AD
:204C60002243802424041443C04AC10094465A466344D31A9B46002033007B409A464B4673
:204C80000F2B27D8BA4A9B00D3589F46B246009B022B16D0032B00D187E2012B00D0D5E06D
:204CA0000023002200251B0513435246D20713432800190005B0F0BCBB46B246A946A046DD
:204CC000F0BD00220025A84BEDE7BA46A0460D000090DCE7444500D2C4E100D1BFE101233E
:204CE0005B429C462E0040460025E34423020C0E1C431B0C994623040A021F0C4946009212
:204D00000197FFF79BFE02007A430B04310C804619438A4207D901235B429C460919E044AA
:204D20008C4200D801E2881A4946FFF787FE019A360442430904360C03000E43B24204D970
:204D40003619013BB44200D8E9E1B01A4246009E12041A43330C1F00110C904602931304D0
:204D60003204160C32001B0C5A4303967B434E437943170CBC469B1963449E4203D980265F
:204D80007602B44661441E0C711816041B04360C9E19884202D312D1B54210D243465A1EBB
:204DA000009B9C4665441F009D429B415B421B19C018844200D29EE100D199E19046AE1B49
:204DC000B542AD41401A6D42401B844200D1D2E14946FFF733FE019A0B044243310C050019
:204DE00019438A4200D96CE1881A4946FFF726FE019A360442430904360C03000E43B24229
:204E000000D953E10398B61A02002D041D43029F2B041B0C5A437B439C46290C4843130C74
:204E2000844463447943984203D98020400284466144180C12041B04120C40189B188642F6
:204E400000D200E100D1FBE001231D43494B5B44002B00DCAAE06A0700D03DE1E9084246D3
:204E6000D20106D54246444B1A4080239046DB005B44424A934200DD23E742465B05550794
:204E800052020D43120B5B0D0DE75146214300D17CE0002C00D1FBE0200001F051F9020098
:204EA0000B3A1D239B1A52460100DA40534608398B408C4019001443314B58449B46834464
:204EC0000020D9E603002343984644D0002C00D1CFE0200001F034F9010002000B391D2327
:204EE0005B1A49461000D940083884400B004D46234398468540234B9B1A9B4600239946D4
:204F000000939EE60200224390461DD108229B46022300259146009393E65146214309D142
:204F200002234A461A43184B91469C4600240220E344A1E603234A461A43134B91469C4625
:204F400051460320E34497E60C229B460323A0469146009375E60423994600239B460133D5
:204F6000002500936DE6C046FF07000001FCFFFF34C90008FF030000FFFFFFFEFE07000018
:204F8000F30300000DFCFFFF01F8FFFF4A4601231A439146002401206EE6002380229A46F7
:204FA0000025884B12037EE601256D420122D21A382A00DD74E61F2A00DCBDE01F21494276
:204FC000CB1A4146D9400B00202A04D041467E4A5A4491400D4329004A1E9141194307232C
:204FE0001D0000220D400B4200D1D0E00F2200230A40042A00D1C7E00A1D8A4289414942CB
:205000005B1811001A0200D4BEE001230022002549E6802243461203134208D0144206D14A
:2050200022431203BA460D00664B120B3BE68022434612031A431203B246624B120B32E66E
:20504000002B00D102E7A6196A1EA64200D289E0864200D29FE000D1AFE01500F4E6A942AE
:2050600000D93CE64346DE0758086B081E43ED073CE601F065F801000200153120321C294F
:2050800000DC2CE74B46083883400025984632E701F056F803001A00153220301C2A00DC5C
:2050A000FFE65446083B00219C4005E73619013BB44200D9A6E6B24200D8A3E6831E36191A
:2050C000A0E60919013D8C4200D98DE68A4200D88AE6851E091987E60F222A40042A00D1F0
:2050E000BCE6291DA942AD416D42C908A844B6E6AF4200D962E6814204D800D05EE6AE4232
:2051000000D85BE602235B429C46009BE0449C4665449D429B415B421B19C0184FE6B242FB
:2051200000D812E6831E36190FE68A4200D8FAE5831E98460919F6E5244B28005B444146FE
:205140009D409940D0406B1E9D41434601432943D3404A0700D155E70F220A40042A00D0FF
:205160004AE74FE71500864200D06DE6009A9A4200D069E66AE6164B5B44002B00DC13E7E2
:2051800001250021A8446AE65D075B021A0BC90800230D4387E50099023D4A008A42BF4108
:2051A0007F423F19F6190092DDE78022434612031A431203034B120B75E500999942EAD3C9
:2051C0001500D3E7FF0700003E0400001E040000FF030000F0B54E464546DE465746904639
:2051E000E0B517001A03120B0500844619480E034C0091465A00DB0F9B46360B640DC90FB6
:20520000520D844219D0824210D0012094420ED14E450CD10120C44509D1594517D0002CE1
:2052200005D130002843431E984100E00120F0BCBB46B246A946A046F0BD330001202B43D9
:20524000F5D1A242F3D14B463B43F0D1E2E70020EDE7C046FF070000F0B54746CE460400FD
:20526000180016001B031B0B2D4D4A00994680B543000F03A446B0463F0B520DC90F5B0DC6
:20528000C00FAA4221D0AB4213D0002A22D13C43002B02D14D462E4322D0002C10D0814233
:2052A00022D00220013908400138C0BCB946B046F0BD4D462E4329D1002AF0D13C43EED1DA
:2052C0000028F2D101204042EFE73D0025431DD19342EED0002BE2D14C462643DFD1E0E7F4
:2052E0000020002CE1D0DCE79A420ADCE8DB4F45D7D80ED000204F45D7D20029E2D0080008
:20530000D3E74342584140000138CEE702204042CBE7C445C5D80020C445C6D2EDE7C046F0
:20532000FF070000F0B54746CE460400180016001B031B0B2C4D4A00994680B543000F037F
:20534000A446B0463F0B520DC90F5B0DC00FAA420DD0AB4210D0002A27D13C43002B11D171
:205360004D462E430ED10020002C15D00EE03D00254310D1934218D14D462E430BD1002ADD
:2053800002D13C43002C0BD0814214D0022001390840013800E00220C0BCB946B046F0BD10
:2053A0000028F9D101204042F6E7002BECD14C462643E9D1EAE79A4204DD434258414000F2
:2053C0000138E9E79A42EBDB4F45DFD806D000204F45E1D20029E5D00800DDE7C445D5D83A
:2053E0000020C445D8D2F5E7FF070000F0B54546DE4657464E46E0B51F000B031B0B9B46AA
:205400004D00CB0F04009146984687B06D0D00D1CDE1CE4B9D4200D1E9E15A46430FD20025
:205420001343802212041A43C3009A46C84B93469C4600230026654400933C037B004846C3
:20544000240B5B0DFF0F002B00D189E1BF4A934219D0420FE4002243802424041443BC4AB7
:2054600000219446424663445B190193019B7A400133C000D2B202930A2E1CDD3A000B2EF3
:205480005ED0474656E04946B04B2143EB18019300292AD18020022200012B00844616435F
:2054A000424663447A40D2B202930A2E00DD31E2002000240221022E26DC013E012E52D891
:2054C00002294CD0012900D018E10023002400251B052343D20713432800190007B0F0BCCD
:2054E000BB46B246A946A046F0BD8021032209012B008C461643424663447A40D2B2029309
:205500000A2E00DD28E203210125B540AC46A6266346F600354033420BD19026B600334229
:2055200018D1B93EFF3E1E421DD0A3468246009100E0170000993A00022910D05C465046B2
:205540000329BFD180231B031C43240305007F4B240BBDE7802400227C4B2403B8E700242F
:2055600000257A4BB4E753461E04360C1F0C3300010C0004000C4343984603007B4399462A
:2055800033004B439C4643460D001B0C9A467D43CC44D4440095E14504D980235B0299466C
:2055A0004D44009563461B0C1D0063461B049C4643461B041B0C9846634643440393230C8C
:2055C000984633002404240C63439C4623007B43994643465E435F434E446346B2461E0CF1
:2055E0005644B14503D980235B0299464F44330C99463B004B4405936346AC461F043F0C44
:205600003604F619B444634604935B461B0C9C465B461F043F0C3B00434399466346434381
:205620009A464B4660461B0C9B4648437943514459448A4503D980235B029A4650440B0C9C
:205640009A464B461B041B0C99463B006343090445464944994663465C436B439C464B4666
:205660001B0C98466F433F1947445044BC4203D980235B029846C444049B009D9846454499
:20568000B542B641734298464B461E04059B3C049946360CA4194C44A14683466E18C1444D
:2056A0008E428941CB445D4649426D189C42A441C1459B41834580418D4289415B42644284
:2056C0001C434042039B4942014370023F0C1843E419471EB84164186444F60D610230430C
:2056E000EC0D6E020C433043C90100D4F1E00121430801400B43E007184364081549029B6B
:205700008C466344002B00DC97E0410709D00F210140042905D0011D81428041404224189E
:205720000800E10106D58021C9008C460A4B1C40029B634409498B4200DD10E76107C5084B
:2057400064025B050D43240B5B0DC1E6FF07000001FCFFFFFF030000FFFFFFFEFE070000F2
:205760004B46234359D0002C00D1A3E0200000F0E7FC010003000B391D22521A49461800FC
:20578000D1404A4608388240844010000C43744AEB1A9446424663440193019B7A40013359
:2057A0000021D2B202930A2E00DD67E683E65B4603439A462AD05B46002B6DD0584600F08C
:2057C000BFFC010003000B391D22521A210018005D46D140083885400A0084402A43934615
:2057E000A2465F4D0026ED1A0023009325E65B4603439A4605D100239B4602330826009390
:205800001BE6032382460C26009316E600239B4601330426002500930FE642460133019577
:205820001E43019B7A400133002400200121D2B202930A2E00DD21E63DE60121C91A382959
:2058400000DD42E61F2947DD1F2625007642F31ADD402B00202905D04249029D8C4665449D
:20586000AC402043411E8841184307231D000024054003424AD00F2300240340042B42D06D
:20588000031D8342804140422418180023023AD50123002400251BE600F052FC01000300A8
:2058A000153120331C298FDD0838002284409246A34696E700F044FC01000300153120336D
:2058C0001C2900DC58E702004C46083A002094405DE7019B029311E7234B26009C460300B8
:2058E000029DCB406544AE401E430300AB40581E834130001843CC404307C7D00F230340F1
:20590000042BBDD1C2E765076402240BC00800230543DDE5002502230F2E0CD180245B4682
:20592000240323420ED021420CD10C4324033A000E4B240BCCE50B2E00D0A2E58B46AA4683
:205940000093F7E580245B4624031C43240342465546064B240BBBE54D4621000323DBE707
:205960000DFCFFFF3E0400001E040000FF070000F0B557464E464546DE46E0B50D0004008B
:20598000190010002B035B0A620F1A43E3000C03640A470F2743D04C6E00914683B04A007F
:2059A000C0009846A246760DED0F520DC90F0190A24200D1B9E0012461408B468D4200D195
:2059C0008DE0B41AA446002C00DCB7E0002A00D1CBE0C14A964200D186E180221204174330
:2059E0006246382A00DDA4E11F2A00DD1DE2614620223C00521A010090409440421E9041AF
:205A00006246A0466446D7404A46E1404446D21B91460C4304431C1BA34292414B4652428E
:205A20009B1A9A4653461B0200D42BE153465A02530A9A465346002B00D166E1504600F0A7
:205A40007FFB0300083B20222000D21A5146D040994002009C400A439E4200DD64E19B1BD5
:205A6000591C1F2900DDFEE02023100026005B1A9C409840CE40CA40631E9C41304392464B
:205A800000260443630709D00F232340042B05D0231DA342A4416442A2441C0053461B0255
:205AA00000D4F2E08C4B01369E4200D10FE153468A49E4080B4019005B07234372054C0248
:205AC000240B520D12052243ED072A431800110003B0F0BCBB46B246A946A046F0BDB41A8A
:205AE000A446002C59DD002A00D1B0E0564500D1FAE08022120417436246382A00DDD4E0DC
:205B00001F2A00DCC0E13900203AD1406246202A06D064464022121B3C009440044301942E
:205B2000019C621E94410C43C3E03C0004432BD08B468D422ED06A4CA446B4446446002CF7
:205B40005FD0941BA446002E00D020E14C461C4300D1C7E161464C1E012900D123E25E4D58
:205B6000AC4500D1D8E1A4461AE13A00024300D1E4E02200013A012C00D1C3E156498C4245
:205B800000D1B1E094462BE7012461408B468D4200D016E752498C46B4446446002C00D178
:205BA000D3E0911B8C46002E00D15EE14A498A4200D1BEE180214C4609040C43A14661468A
:205BC000382900DDBAE11F2900DD27E22024641A4946A1401E0088466146A340CE40414681
:205BE0005C1EA341314319430C0063464946D9407F18241884429B415B429A461600BA4414
:205C00005DE0384C721C224200D0DFE04A461A43002E00D05CE1002A00D1CFE13A000243F0
:205C200000D17FE11C1A4A46A3428941D21B4942521A9246120200D40AE2C41AA0428041AD
:205C40004B464042FF1A3B1A9A465D461AE73A00024373D02200013A012C00D1CBE05445DE
:205C600042D0944648E710001F3BD840202903D040235B1A9A401443631E9C4100230026BB
:205C80009A460443630700D0FEE65246E308520713435246B446D2080F498C452AD01203E9
:205CA000140B62465205520D0CE73C000443621E9441E4189C42924152424A44924653465C
:205CC0001B02DFD5044B01369E4200D0A0E0320000240023F6E6C046FF070000FFFF7FFF60
:205CE00001F8FFFFFE070000DB084A46520713434A46D2081900114300D1B5E1802424037D
:205D000014432403D54A240BDCE6200000F018FA030018331F2B00DC95E6220008388240C0
:205D200000249E4200DC9AE6F61ACD4B1A409246A8E63C000443621E94416CE64A46DB087E
:205D4000520713434A46D208A6E7C64C721C224200D0ACE04A461A43002E00D005E1002A42
:205D600000D156E13A00024300D1DBE01C189C429B414F44BA465B429A4453461B0200D48A
:205D800080E75246B64B01261A4092467AE7B34CA24200D1C0E080244D4624042543A9463F
:205DA0006446382C53DC61461F2C00DDCDE020251E002D1B4C46AB40AC40CE405D1EAB41A1
:205DC000344323434C46CC403F1B45E04A461C1AD11BA3429241524292460A005146521AE6
:205DE0009246120200D583E05346234300D021E60022002553E71C189C429B414F44BA46A7
:205E00005B429A44534601261B0200D43AE702265246934B01211A401300214062080A43F0
:205E2000DC075B089A4614432CE63900203AD1406246202A06D064464022121B3C0094401E
:205E400004430194019C621E94410C43E3E5494619430B005C1EA341C41AA0429B415B42D0
:205E6000FB1A9A465D461600DCE54946194300D1AEE0614664460139012C00D1E0E0774C5D
:205E8000A44556D08C469AE6614620223C00521A944001009040A0466446421E9041624602
:205EA000E1404446D7400C430443B94401E76B498A4200D10CE7181898429B414F445B424B
:205EC000FB18DC0740085B089A4616000443D9E6002A00D081E03B0003431DD18022002594
:205EE00012030BE7C0087B075D460343FA08D3E6C41AA04280414B464042FF1A3B1A9A46CB
:205F00005D4697E51C1A4A46A3429B41D71B5B42FB1A9A46012685E5C0087B075D46034393
:205F2000FA08E7E64A46DB08520713434A46D208B5E6C0087B070343FA08DBE6494619432D
:205F40000B00591E8B411C0053E64D46203CE540202905D04024641A4946A1400B439846EE
:205F600043465C1EA3412B4376E7002AE1D03A00DB08024300D1B8E64A46520780241343E0
:205F80004A462403D208224207D0FE08264204D15D463200C3087F073B43590FDB004907BB
:205FA000DB080B43A6E6C41AA04280414B464042FF1A3B1A9A465D46012633E53B000343DF
:205FC00000D115E7C0087B075D460343FA0866E6C0087B070343FA085EE63A00DB0802433B
:205FE00000D182E64A465207802413434A462403D208224207D0FE08264204D15D463200A1
:020000040800F2
:20600000C3087F073B43590FDB00DB0849070B4370E6C0087B070343FA0840E64C462039F4
:20602000CC406146202906D066464021891B4E468E40334398464346591E8B411C43D8E53F
:206040001C18844280414F44BA4640428244D9E65346234300D1CBE614E6C046FF07000064
:20606000FFFF7FFFFE0700000023014A1C0029E5FF0700000A0030B5134C5300090305004F
:20608000090B00205B0DD20FA34204DD0F48834202DD0F4BD01830BD8020400301430D4817
:2060A000C01A1F2808DD0C48C31AD9400B005842002AF0D11800EEE7084CC540A446634429
:2060C00099400B002B43F2E7FE0300001D040000FFFFFF7F3304000013040000EDFBFFFFC3
:2060E00070B5002816D0C317C5185D40C40F280000F026F8114B1B1A0A2816DC02002E002B
:20610000153296400B22121AD5405B052D032D0B5B0D03E000240023002500261B052B43C1
:20612000E40723433000190070BD0B3885405B052D0300262D0B5B0DF0E7C0461E0400003B
:206140001C2101231B04984201D3000C10391B0A984201D3000A08391B09984201D30009C3
:20616000043902A2105C40187047C04604030202010101010000000000000000F0B557466C
:206180004E464546DE46E0B50F001900002306009846100083B0002F07DA33003C0000270F
:2061A0005E42A74101235B429846002907DA4346DB430C009846030000215842A141340049
:2061C0003D0082468946B94269D866D04946504600F0BAF883463900300000F0B5F85B4642
:2061E0001B1A9C46203B6BD4514699409B4660460B00514681400A00BB4200D973E0BB4264
:2062000000D17AE034003D005946A41A9D41002900DA75E000210020012600900191594626
:206220008E400196614601268E4061460096002960D0D90756080E435F08614601220023E4
:206240000CE0AF4201D1A6420AD8A41BBD4124196D410139A4185D41002906D0AF42F0D9D0
:20626000013924196D410029F8D1009801995B4600196941002B4EDB2E002C00DE406346FC
:20628000DC405B46002B56DB34009C4023006446A6403200801A994103E0B04296D9002018
:2062A00000214346002B04D003000C0000215842A14103B0F0BCBB46B246A946A046F0BDAF
:2062C000624648469B462023514690409B1AD94003000091009960460B43514681400A00AC
:2062E000BB4200D88BE70021002000900191614600299ED100980199D3E7B142F3D881E7A3
:20630000614620260127761A00200021F74000900191019786E7624620239B1A2A009A4095
:20632000260013006246D6402C001E436346DC405B46002BA8DA62462023350094409B1A1D
:20634000DD4023002B43A2E710B5002903D1FFF7F7FE203002E00800FFF7F2FE10BDC04666
:2063600030B585B0019004B2051401200291039206F036F8201A0A281EDD1D4B1D4AD06BC5
:2063800019681D4B884204D9D16B0139D163002201E01A6801321A60184B1868281A0A283A
:2063A0001BDD144B164A196C1268914202D21A6C0A321A6405B030BD012006F011F8241A40
:2063C0000A3408DA0B4B0F4AD96B12689142E3D2DA6B0132DA63084BD9E70A30EADA054B92
:2063E000094A196C12689142E4D91A6C013AE0E7B803002000040040E8030020CC0300201A
:20640000000200200C020020B4030020074B0849DA6B28320A60D96B064A282903D9DB6BA2
:20642000283B136070470023FBE7C046000400400C020020B803002010B5FFF751FE084B1A
:20644000084AFEF7D3FFFEF79BFB0023B32801D90300B33B044AD363FFF7D8FF10BDC046AB
:2064600083C0D23F8D976E1200040040012010B505F0B6FF9623DB0098420ADB012005F0E7
:20648000AFFF044B984204DC012005F0A9FFFFF7D3FF10BDB80B0000074B08491A6C643270
:2064A0000A60196C064A642903D91B6C643B136070470023FBE7C046000400400002002073
:2064C000B403002010B5FFF70BFE0022094BFEF793FB0022084BFEF789FFFEF751FB074AA4
:2064E0000023904201D8064B1B1A064A1364FFF7D3FF10BD000059400080584055040000E2
:2065000056040000000400409623006810B5DB00984202DC00B2FFF7D5FF10BD002210B534
:20652000012802D0002805D1012290200421C00502F072FC10BD9020042110B5C00502F027
:2065400065FC0023012805D090200421C00502F05DFC0123180010BD1FB515200CB205F00F
:206560003FFF0123844200DC0023D8B204B010BD1FB503B201AC012002910392002B0CD063
:20658000074AE3889B18074A9BB2934205D80823E05E963843425841C0B204B010BDC046EE
:2065A000BFE0FFFFDE2E000084B00392084A01901268002001AB02911F2A06D902215B5EA9
:2065C0000122632B00DC021CD0B204B07047C046E80300200020054B090CC918044B89B222
:2065E0008B42404184B0C0B204B07047BFE0FFFFDE2E000010B5084C01222000402102F0E4
:206600000BFC20000122102102F006FC01222021200002F001FC10BD0004004870B5040056
:2066200047200D0005F0DCFE0023844214D00B4B1B68002B10D00A4B1B68002B0CD0002265
:2066400029B2492005F09EFEFFF7D4FF0022472021B205F097FE2300180070BD0402002028
:206660000802002070B504000F2800D949E1FEF755F910002700390068008C009900A600A7
:20668000C300D000DD00EA00F700040121012E013B01A22005F0A4FE012802D1002420007E
:2066A00070BD00220121A22005F06CFE0124A12005F09EFE0122A2400388134303803EE04A
:2066C000A22005F08DFE0028E8D00022A220110005F058FEA12005F08BFE0122A240038889
:2066E000934342E0962005F07BFE0128D6D000220121962005F046FE00220121492005F0DA
:2067000041FE0125492005F06BFE0024C1B24020FFF784FF7C4B95201C6005F069FE012266
:20672000AA40038813430380FFF705FF012805D0902022000421C00502F06EFBC0460224D0
:20674000ADE7962005F04CFE0028A7D000229620110005F017FE012501246B4B95201C60EC
:2067600005F046FEAC400388A3430122038011001E2005F007FEFFF7DEFE0224002800D1A3
:206780008DE70020FFF7CAFE89E7A32005F028FE012800D182E700220121A32005F0F2FD0B
:2067A000022484E7A32005F01BFE002800D175E70022A320110005F0E5FD02248AE7972007
:2067C00005F00EFE012800D168E700220121972005F0D8FD80210022C900482005F0D2FDF2
:2067E000002201214A2005F0CDFD00224920110005F0C8FD022585E7972005F0F1FD002881
:2068000000D14BE700229720110005F0BBFD0225A2E7A42005F0E4FD012800D13EE7002253
:206820000121A42005F0AEFD032440E7A42005F0D7FD002800D131E70022A420110005F0FA
:20684000A1FD032446E7A52005F0CAFD012800D124E700220121A52005F094FD042426E7FC
:20686000A52005F0BDFD002800D117E70022A520110005F087FD04242CE7982005F0B0FDA7
:20688000012800D10AE700220121982005F07AFD80210022C900482005F074FD0022022106
:2068A0004A2005F06FFD00224920110005F06AFD032527E7982005F093FD002800D1EDE6D6
:2068C00000229820110005F05DFD032544E7A72005F086FD012800D1E0E600220121A72021
:2068E00005F050FD0624E2E6A72005F079FD002800D1D3E60022A720110005F043FD062427
:20690000E8E60024E6E6C04604020020F0B5294B85B015B201AE1F78274C01907160B2604B
